:100000000C9467030C94AE030C94AE030C94AE03F3
:100010000C94AE030C94AE030C94AE030C94AE039C
:100020000C94AE030C94AE030C9420320C94F43276
:100030000C94BB2C0C94AE030C94AE030C94AE0346
:100040000C94AE030C94AE030C94AE030C94AE036C
:100050000C94AE030C94122D0C94AE030C94AE03CE
:100060000C94AE030C94AE030C94AE030C94AE034C
:100070000C94AE030C94AE030C94AE030C94AE033C
:100080000C94AE030C94AE030C94AE030C94AE032C
:100090000C94AE030C94AE030C94AE030C94AE031C
:1000A0000C94AE030C94AE030C94AE030103E10177
:1000B00003E2000102E10102E2002B0014001A0039
:1000C0000800150017001C00180029410400160044
:1000D000070009000A000B000D00E1001D001B00D5
:1000E00006001900050011001000E0000251E300B5
:1000F000000000002C000000000026002500240065
:100100004C002A00130012000C00230022002100E2
:10011000A800344133000F000E0020001F001E0015
:1001200052002842380037003600370027004F00C1
:1001300051005000E500E200000001000100010054
:1001400001000100010001000100010001000100A7
:100150000100010001000100010001000100010097
:100160000100010001000100010001000100010087
:10017000000000000100000000000100010001007B
:100180000100010001000100010001000100010067
:100190000100010001000100010001000100010057
:1001A0000100010001000100010001000100010047
:1001B0000100010001000100000001000100010038
:1001C0000100010001000100010001000100010027
:1001D0000100010001000100010001000100010017
:1001E0000100010001000100010001000100010007
:1001F00000000000010000000000010001000100FB
:1002000001000100010001000100010001000100E6
:1002100001000100010001000100010001000100D6
:1002200001000100010001000100010001000100C6
:1002300001000100010001000000000000000000BA
:1002400000002A2B28000000000000000000000031
:10025000000000000029000000002C1E3420212294
:1002600024342627252E362D3738271E1F202122FD
:10027000232425263333362E37381F040506070876
:10028000090A0B0C0D0E0F10111213141516171866
:10029000191A1B1C1D2F3130232D350405060708A4
:1002A000090A0B0C0D0E0F10111213141516171846
:1002B000191A1B1C1D2F3130354C000000000000A6
:1002C000000000000000000000000000000000002E
:1002D00000000000000000000000000000007E0F91
:1002E00000D4FFFFFFC700000078FD377A585A009E
:1002F0000004E6D6B4460200210116000000742F67
:10030000E5A3E002F6011A5D003D8889C65436C3B4
:10031000174FE4DF1E9B8B7FF69D3C43AB579285C6
:10032000D87B215411DF82A665984F1AF86CDC9EA9
:1003300008D0878BBB6C432E7D1B68D6E14A38649E
:10034000C45EB8D246B4EF7CA327F9B3527EAD2B7E
:10035000C83641C85023220CCC64595B6372C14338
:10036000F6FA7B1E877D25425F907B85D526230587
:10037000AC25D19591B0A8A9CC5D3BDD27FAA89713
:10038000906D40996090A22CA55CB23D683FC3601F
:10039000489166E5C164A36B73E0BB0AC79AC9D0F4
:1003A000E81BB974EF86D7C8065AF5C1ABA7AE5D96
:1003B00098D10A5027F8BF6FD8A2635A624DA2EFB6
:1003C0005BD68923D1DFA6C0D16283A8071FE906C7
:1003D00001308E0065CDBB9BDB61716D52F25C59C3
:1003E000C18027442B217FCD5568632164D57BEDE7
:1003F00028AA24F5E3795A6786617EBB3FB9245E5B
:10040000920289E5D348FD9B705E05936C488EAFE0
:1004100007DB10E6B541015F0562F63DBED38C19DE
:10042000F35E56000000B9326C89787DB3C80001D4
:10043000B602F7050000209B7C68B1C467FB020090
:1004400000000004595A01000100210300000200CD
:1004500002001D030000030001002203000004004D
:100460000200070303170500010023030000060034
:10047000020009030000070002001F03000008003B
:10048000010024030000090002000B03DE160A002D
:1004900002000D03DE160B0002000F03DE160C0037
:1004A00002001103DE160D0002001303DE160E001B
:1004B00002001503DE160F0002001703DE161000FF
:1004C00002001903DE16110002001B03DE161200E3
:1004D00002002503000013000200270300001C0394
:1004E0007600690061006C003A0066003600340056
:1004F0006300320062003300630000001C03470009
:100500006100720062006100670065002000540015
:100510007200750063006B00000022035400680045
:100520006500560061006E0020004B0065007900F8
:1005300062006F0061007200640073000000040339
:10054000090409025B00030100A032090400000154
:10055000030101000921110100012240000705816A
:100560000308000A09040100020300000009211128
:100570000100012222000705820320000107050374
:1005800003200001090402000103000000092111F9
:1005900001000122BC000705840320000A1201109B
:1005A0000100000008AEFE498801000102030106B7
:1005B00060FF0961A1010962150026FF0095207501
:1005C0000881020963150026FF0095207508910235
:1005D000C005010902A10185020901A1000509194F
:1005E0000129051500250195057501810295017503
:1005F0000381010501093009311581257F950275B7
:1006000008810609381581257F9501750881060541
:100610000C0A38021581257F950175088106C0C036
:1006200005010980A101850319012AB700150126DA
:10063000B700950175108100C0050C0901A1018565
:100640000419012AA002150126A002950175108146
:1006500000C005010906A1018505050719E029E784
:10066000150025019508750181020507190029EF7C
:100670001500250195F0750181020508190129056C
:10068000950575019102950175039101C005010958
:1006900006A101050719E029E71500250195087550
:1006A0000181029501750881010507190029FF15CF
:1006B0000026FF0095067508810005081901290527
:1006C000950575019102950175039101C0001124F2
:1006D0001FBECFEFDAE0DEBFCDBF04B603FE27C0FA
:1006E00080913A0390913B03A0913C03B0913D036C
:1006F0008730904BA740B04BD1F410923A03109240
:100700003B0310923C0310923D0314BE84B7877FD5
:1007100084BF0FB6F894A89580916000886180939B
:100720006000109260000FBEE0E0F8E3099511E070
:10073000A0E0B1E0EAE8FBE602C005900D92AC3B18
:10074000B107D9F723E0ACEBB1E001C01D92AA33A9
:10075000B207E1F70E94092F0C944E350C9400006B
:10076000CF93DF93A9E2B1E041E351E0C1E0D0E0F3
:100770008D91E82FE295EF70F0E061A18F709E01FE
:1007800001C0220F8A95EAF7922F9095962391A3A4
:1007900082A1822B82A34A175B0751F7A1E2B1E045
:1007A00049E251E0C1E0D0E08D91E82FE295EF7091
:1007B000F0E061A18F709E0101C0220F8A95EAF7D7
:1007C000922F9095962391A382A1822B82A34A1700
:1007D0005B0751F7DF91CF9108956F927F928F92CF
:1007E0009F92AF92BF92CF92DF92EF92FF920F93C0
:1007F0001F93CF93DF9329E2822E21E0922E8C016A
:100800005C0188E0A80EB11C712CCC24C394D12CBF
:10081000F40181914F01C82FC295CF70D0E099A10A
:100820008F70760101C0EE0C8A95EAF7892F8E2928
:1008300089A38AA16E2C609486218AA30E94FF0955
:10084000E1E2F1E050E040E020E03191A32FA295F9
:10085000AF70B0E090968C9190E03F7002C095959B
:1008600087953A95E2F780FD2FC08C2D042E01C0AC
:10087000880F0A94EAF7282B4F5F5F4F48305105E5
:1008800021F789A1682269A28AA1E82AEAA2F801CF
:1008900080812817D9F0208381E0782A0F5F1F4FCD
:1008A0000A151B0509F0B4CF872DDF91CF911F9159
:1008B0000F91FF90EF90DF90CF90BF90AF909F90FF
:1008C0008F907F906F90089580E0D5CF80E0E5CF46
:1008D0000C94E2090C94E3090C9470040C94A604A3
:1008E000CF93FB01C281CC2359F08E359D4529F46D
:1008F00083EB90E00E949C07C0E08C2FCF9108957D
:100900008E359D4529F48CEA90E00E949C07F5CF36
:10091000C1E0F3CF61FF05C05F9A62FF04C05C9A3B
:1009200008955F98FACF5C980895579A569A5E9A00
:10093000549A0E948A1D482F609175027091760228
:1009400080917702909178020C948A040E948A1D0B
:10095000482F609175027091760280917702909194
:1009600078020C948A04CF92DF92EF92FF926B018F
:100970007C010E948A1D482FC701B6010E948A048B
:10098000C701B601FF90EF90DF90CF900895CF930D
:10099000DF939C013A9521153F4168F5EC01CC2786
:1009A000D170DC01AA27B270AC01442754709C01BD
:1009B0002227387094FF11C080E1CD2B09F480E02C
:1009C000AB2B09F08062452B09F08064232B09F0E2
:1009D0008068FB01DF91CF91099481E0CD2B09F470
:1009E00080E0AB2B09F08260452B09F08460232B5B
:1009F00081F38860EECFDF91CF910895CF93DF939D
:100A0000EC01805E9109089720F066E670E220977D
:100A100011F468E570E2CE010E94C7048C2FDF91CB
:100A2000CF910C94481FCF93DF93EC010E94DF1FFE
:100A3000CE01805E9109089720F06DE670E2209764
:100A400011F46FE570E2CE01DF91CF910C94C704F1
:100A500081E0089508950C942A051F93CF93DF93A6
:100A600000D000D00F92CDB7DEB749835A836B8395
:100A70003091120289819A8131111DC06623B9F02B
:100A80002223A9F00E945A29182F682F89819A8160
:100A90000E94FD2869817A81812F0F900F900F901D
:100AA0000F900F90DF91CF911F910C94C5150E946C
:100AB0002D29182FEFCF0E945A2969817A81EDCF15
:100AC000FC01262F408151816281738184810C94C5
:100AD0002D05CF93DF93EC0160E00E946005BE011D
:100AE000DF91CF910C942B058F929F92AF92BF9282
:100AF000CF92DF92EF92FF920F931F936B017C01D5
:100B000081E090E0A0E0B0E04C015D0104C0880C01
:100B1000991CAA1CBB1C4A95D2F7B501A4014C0133
:100B20005D0104C0880C991CAA1CBB1C2A95D2F735
:100B3000482959296A297B2904C0880F991FAA1FAF
:100B4000BB1F0A95D2F78A019B010C211D212E2182
:100B50003F21041715072607370789F48C299D299B
:100B6000AE29BF29BC01CD011F910F91FF90EF90DD
:100B7000DF90CF90BF90AF909F908F900895809519
:100B80009095A095B0958C219D21AE21BF21EACFF3
:100B90000F93382F262F6091750270917602809105
:100BA000770290917802042F432F0E9474050F91D1
:100BB0000C943B280E94BE090C9468040E94A41A5D
:100BC0000E94801C0C946A0408950E948A200E944E
:100BD000E4052FEF84E39CE0215080409040E1F752
:100BE00000C000000C94362D0F931F93CF93DF931A
:100BF000EC018B010E94A50F882309F448C0B801BD
:100C0000CE010E946C04882309F441C0B801CE01D2
:100C10000E94CF1A8823D9F1B801CE010E94E31CAB
:100C20008823A9F1B801CE010E94BA18882379F16E
:100C3000B801CE010E940C19882349F1B801CE01F8
:100C40000E942F1A882319F1F8018281882361F00C
:100C5000CA35FDE5DF0721F170F4C115ECE5DE07CB
:100C6000A1F0CE3DDC45C9F0C801DF91CF911F91C5
:100C70000F910C942805CB358DE5D807A1F0CC3524
:100C8000DD4591F70E94382AEFCF0E94E50580E00C
:100C9000DF91CF911F910F9108950E94ED2BF7CF17
:100CA0000E94412AE1CF0E94442ADECFCF93DF93F6
:100CB000EC0161E00E946005BE01DF91CF910C94D0
:100CC000F405DF92EF92FF920F931F93CF93DF9380
:100CD000E82FF0E0E65CFD4FD490282F269526956E
:100CE000269530E0F901E652FD4F0491877010E03F
:100CF000082E02C0159507950A94E2F70170112796
:100D0000F901E653FD4FE490F12C082E02C0F59452
:100D1000E7940A94E2F791E0E922FF24F901E6540E
:100D2000FD4FC491D0E002C0D595C7958A95E2F7F2
:100D3000C170DD270115110519F081EE0E94481FD1
:100D4000E114F10419F086EE0E94481F8D2D0E94D7
:100D50004C20EF2819F086EE0E94DF1F012B19F0BE
:100D600081EE0E94DF1FCD2B51F08CE2DF91CF91FD
:100D70001F910F91FF90EF90DF900C944C20DF912A
:100D8000CF911F910F91FF90EF90DF900895EF9218
:100D9000FF920F931F93CF93DF93EC01162F0AE07E
:100DA0008881882309F454C0813009F04EC08981BC
:100DB000813099F47E0122E0E20EF11C8A810E94CA
:100DC0004C20E7012196812F815050F3EFE9FFE09D
:100DD0003197F1F700C00000F7CF823041F47E0177
:100DE00082E0E80EF11C8A810E94481FEACF83301E
:100DF00041F47E01E2E0EE0EF11C8A810E94DF1FC9
:100E0000E0CF843011F02196DDCF2A81229690E048
:100E100080E0AE014F5F5F4F2053330B2A30310526
:100E200048F0019778F2EFE9FFE03197F1F700C061
:100E30000000F7CF089FB001099F700D1124C90170
:100E4000860F971F2981EA01E4CF0E946106BACF7D
:100E5000DF91CF911F910F91FF90EF90089560E087
:100E60000C94C706EF92FF920F931F93CF93DF93DB
:100E70008C01F62E8AE0E82EF8018491882309F48B
:100E800054C0813009F04DC0E8012196FE018491E3
:100E9000813091F42196FE0184910E944C208E01B4
:100EA0000F5F1F4F8F2D815038F3EFE9FFE031972F
:100EB000F1F700C00000F7CF823039F4E801229644
:100EC000FE0184910E94481FEACF833039F4E80183
:100ED0002296FE0184910E94DF1FE1CF8430F9F653
:100EE000E8012296FE01249190E080E0FE01319617
:100EF0002053330B2A30310548F0019780F2EFE997
:100F0000FFE03197F1F700C00000F7CFE89EA001A5
:100F1000E99E500D1124C901840F951F2491EF0102
:100F2000E5CF0E946106E801BACFDF91CF911F9112
:100F30000F91FF90EF90089560E00C94320781E0EC
:100F400008950C949F07CF93C82F0E946E048C2F96
:100F5000CF910C94A10790E080E008950895FC01E2
:100F6000EE0FFF1FE651FD4F859194910895CF93A9
:100F7000DF930E94C5150E94CC08EC01811520E585
:100F8000920708F042C0811530E4930708F0BDC015
:100F9000883E910528F5803E910508F09DC0883A6D
:100FA000910588F4853A910508F08FC0813091054C
:100FB00009F492C0009709F48FC0049708F08CC020
:100FC000D0E0C0E089C08F3B910508F489C0805C07
:100FD0009109C03CD105A0F30E94AF07EC017CC091
:100FE0008115904250F4C11581E0D80708F074C013
:100FF000C03FD10528F3D0656FC0C11590E3D90774
:1010000008F079C0CE019F70E7CF811525E59207E2
:1010100058F5811534E5930708F0A6C0811542E51F
:10102000940750F4C11581E5D80708F471C0DC2F8E
:10103000CC27C16FD06A50C0982F969596959E0187
:1010400023703327C115D34508F07FC0C1E0D0E03D
:1010500002C0CC0FDD1F2A95E2F720E2929FC0016B
:101060001124C82BD92B6FC0C11589E5D807A8F466
:10107000C11598E5D90708F07CC0C11526E5D2074F
:1010800008F09ECF8C2F0E946309C82FD0E0DC2F80
:10109000CC27CC27DF71D0621FC0C1153AE5D3073A
:1010A00008F46CC0CE0190568115904208F088CFAC
:1010B0008D2F8F710E94630990E0982F88278827D1
:1010C0009F719C012C2BE901E6CFC55AD0E0C15A93
:1010D000DE4FC881D0E0D064CE01DF91CF9108957A
:1010E000C85AD0E0CC0FDD1FCF5CDE4F0990D8810D
:1010F000C02DD464F1CFCE019927D3FF03C0EC01FA
:10110000D86CEACFEC01D06CE7CFDF70D06AE4CFC7
:10111000CE01E4E096958795EA95E1F783702C2F50
:1011200026952695237090E2299F90011124382B53
:101130008C2F8370C1E0D0E002C0CC0FDD1F8A95F8
:10114000E2F7C22BD32BDC68C7CFC1E0D0E002C0EE
:10115000CC0FDD1F2A95E2F730E2939FC0011124E6
:10116000C82BD92BDA68B8CFD82FCC27C46FD06A58
:10117000B3CFDC2FCC27C06FD06AAECF8C2F8F704F
:101180000E94630934E0D695C7953A95E1F7CF7090
:101190009C2FEC01D069A0CF82389105B1F1B0F459
:1011A0008133910509F475C048F48932910509F439
:1011B00069C08A32910509F473C008958533910599
:1011C00009F459C08933910501F10895833E9105D1
:1011D000A9F138F4803E9105F9F0823E910549F17C
:1011E0000895863E9105A9F1873E9105C9F1843E97
:1011F000910519F52091CC0221FF1FC08091CB02EF
:1012000084FD14C087EE90E008952091CB022370F6
:10121000A1F080EE90E008952091CB0220FD47C020
:101220003091CC0230FF09C024FF44C090E080E040
:1012300004C02091CB0222FDF7CF08952091CB026C
:1012400022FD3BC03091CC0230FDE3CF24FFF5CF2F
:10125000EDCF2091CB0223FFF0CF24FDE7CFD2CFFB
:101260002091CB0223FD2CC03091CC0231FFEECF78
:1012700084EE90E008952091CB0225FFDECF89E235
:1012800090E008952091CB0225FFD7CF85E390E031
:1012900008952091CB0226FFD0CF8AE290E00895F6
:1012A0002091CB0226FFC9CF81E390E0089589E326
:1012B00090E0089583EE90E0089582EE90E0089526
:1012C00086EE90E008959091CB0292FF06C0282F01
:1012D00028712830F9F4877F846093FF06C0282F97
:1012E00028712831F1F4877E84612091CC0220FF9F
:1012F00006C0382F38713830D9F4877F816021FFDC
:1013000006C0282F28712831D1F4877E816194FD91
:10131000877E0895282F24712430F9F68B7F88600A
:10132000DCCF282F2471243101F78B7E8861DDCF3B
:10133000382F3171313019F78E7F8860E0CF282F38
:101340002171213121F78E7E8861E1CF0C947F0FCE
:101350000E94140A8FE39CE90197F1F700C0000096
:101360000E94140A80E00E94F80980FF04C00E94D5
:10137000A6090C94362D08950C94A8090E94482BB8
:10138000811102C00E94ED2B0E94532B8093A70273
:101390000E945B2B9093CC028093CB020E94BC09ED
:1013A0000E94572B682F70E090E080E00E94012897
:1013B0006091750270917602809177029091780227
:1013C0000C94392808950895E82FF0E0EB52FD4F72
:1013D000208130E081E090E002C0880F991F6A957B
:1013E000E2F72823392381E0232B09F480E00895D4
:1013F000E82FF0E0EB52FD4F80810895089580EAD8
:101400008A95F1F708950E94B003EDECF2E0A5EDA6
:10141000B2E011921D9282E0E53DF807D1F788E035
:101420000E94270A0C94DA05CF938DEC92E00E947B
:10143000ED03C82F282F48E065ED72E08DEC92E0B7
:101440000E94280A0E94DE058C2FCF9108950895EE
:10145000FF920F931F93CF93DF93F82E092F162F30
:10146000D72FC42F222349F081E08093C0010E942E
:10147000EB2C9093BF018093BE018091C001882323
:10148000A1F08091BE019091BF010E94032D0697AB
:1014900060F0EF2DF02FA12FBD2FCE0FDF2FD11D2C
:1014A000EC17FD0741F41092C001DF91CF911F911D
:1014B0000F91FF90089581918D93F2CF833081F148
:1014C00028F4813059F08230D1F00895853009F444
:1014D00049C0B8F1863009F456C0089580910701DB
:1014E000482F460F5527551F4F3F510524F4680FCD
:1014F0006093070108958FEF80930701089580910D
:101500000601482F460F5527551F4F3F510524F41C
:10151000680F6093060108958FEF80930601089588
:1015200080910501482F460F5527551F4F3F510504
:1015300024F4680F6093050108958FEF80930501EF
:10154000089580910401482F460F5527551F4F3F9E
:10155000510524F4680F6093040108958FEF809380
:101560000401089580910101482F460F5527551F0A
:101570004F3F510524F4680F6093010108958FEFE8
:1015800080930101089580910001482F460F55274F
:10159000551F4F3F510524F4680F609300010895D3
:1015A0008FEF809300010895833011F128F481308A
:1015B00049F0823091F00895853081F120F1863034
:1015C000C1F1089580910701681720F4861B80936C
:1015D0000701089510920701089580910601681788
:1015E00020F4861B80930601089510920601089549
:1015F00080910501681720F4861B809305010895EA
:1016000010920501089580910401681720F4861B4B
:1016100080930401089510920401089580910101BE
:10162000681720F4861B8093010108951092010130
:10163000089580910001681720F4861B80930001B3
:1016400008951092000108950F931F9341E050E018
:1016500060E070E08A019B0104C0000F111F221F8F
:10166000331F8A95D2F7C901B8010E9401281F9142
:101670000F910C948A20EBEFE80FEF3308F060C075
:10168000F0E0E05BFA4C0C94CE340E94ED2B81E04C
:1016900008958091A702807F8093A70281E08093C4
:1016A000C20108958091D9019091DA01892B79F3D3
:1016B0000E94E505ECCF9091A702892F8E7F90FFC5
:1016C00081608093A70280FDE2CF817F8093A70293
:1016D000DECF9091A702892F8D7F91FF826080934A
:1016E000A70281FFD4CF8091A7028160EFCF9091B4
:1016F000A702892F8B7F92FF84608093A70282FDCF
:10170000F2CFC5CF9091A702892F877F93FF886082
:101710008093A70283FDE7CFBACF0E948A209091E1
:10172000CB02892F97FB87F980588093CB02AFCFEC
:1017300080E00E94240BABCF8953FBCF8D51F9CFB2
:1017400080E0089580E008950C94A20B8E518A30B9
:1017500030F4E82FF0E0EE59FE4F8081089580E0EC
:101760000895CF93C82F8091C2018130D1F0882392
:1017700031F08230D1F11092C20180E010C0E091CE
:101780000C01F0910D0180818232B9F78C2F0E94FB
:10179000A20B81111EC08C2F0E943B0B8170CF9138
:1017A0000895E0910C01F0910D018081823271F376
:1017B0008C2F0E94A40B81110AC0C43199F060F4EF
:1017C000CB3029F0C03151F782E08093C20181E033
:1017D000E5CF81E090E0E2CFC93221F0C833B9F320
:1017E00080E0DCCF1092C201FBCFC93219F188F43E
:1017F000C43101F120F4C73081F181E0D0CF82EE15
:101800008C0F8630D0F78C2F0E94A60B8093C101DD
:10181000F4CFCE3401F140F46AE0CB3471F780911B
:10182000C1010E945E0AE9CFC13579F061E0C2359D
:10183000B1F3E3CF8091C101882319F01092C10167
:10184000DCCF81E08093C201AACF61E08091C10129
:101850000E94D40AD2CF6AE0F9CF8EE180930701CB
:1018600082E3809306018AE08093050184E18093FE
:10187000040188E08093010188E280930001BDCFDC
:101880008091C90160910F037091100380FF16C011
:1018900020910501269FC001279F900D1124BC01B6
:1018A00076956795769567956038710508F043C021
:1018B0006115710509F441C0862F089581FF0BC0A1
:1018C00020910501269FC001279F900D1124BC0186
:1018D00076956795E9CF82FF09C0809105019B014C
:1018E000829FB001839F700D1124DECF2091C8012B
:1018F0002223D1F29091040180910501482F50E0FC
:10190000291748F0CB01849FB001859F700D949FEB
:10191000700D1124C9CF289F90011124269FA0018A
:10192000279F500D369F500D1124692F70E0CA017A
:101930000E94A634B9CF8FE7089581E00895809181
:10194000C90180FF0CC06091010170E07595679539
:10195000759567956115710549F1862F089581FF89
:1019600006C06091010170E075956795F3CF6091B5
:10197000010182FD0BC09091C7019923A1F06091F4
:10198000000180910101961738F0682F70E06038EF
:10199000710500F38FE70895899FC001112470E05D
:1019A0000E94BA34F4CF61E070E0D7CF81E00895AF
:1019B000803F31F40E94400C81958093CD010895C1
:1019C000813F19F40E94400CF8CF823F31F40E940D
:1019D000400C81958093CC010895833F19F40E94B7
:1019E000400CF8CF893F29F40E949F0C8093CE01D0
:1019F00008958A3F21F40E949F0C8195F7CF8B3F79
:101A000031F40E949F0C81958093CF0108958C3F03
:101A100019F40E949F0CF8CF843F31F48091CB01E0
:101A200081608093CB010895853F21F48091CB01A3
:101A30008260F7CF863F21F48091CB018460F1CFA3
:101A4000873F21F48091CB018860EBCF883F21F460
:101A50008091CB018061E5CF8D3F31F48091C90148
:101A600081608093C90108958E3F21F48091C9015E
:101A70008260F7CF8F3FB9F78091C9018460F1CFC1
:101A80009091CC01803F59F48091CD0187FF0DC02A
:101A90001092CD0191110BC01092C80108C0813F76
:101AA00081F48091CD0118169CF3992381F08091E7
:101AB000CE019091CF01892B09F064C01092C7012B
:101AC0000895823F49F497FFF0CF1092CC018091A6
:101AD000CD018111ECCFE0CF833F19F41916ACF39F
:101AE000E4CF2091CE01893F29F41216F4F610922A
:101AF000CE01DBCF8A3F19F427FFD7CFF8CF209153
:101B0000CF018B3F29F427FFD0CF1092CF01CDCF4B
:101B10008C3F19F41216CCF3C8CF843F31F4809176
:101B2000CB018E7F8093CB01C0CF853F21F4809184
:101B3000CB018D7FF7CF863F21F48091CB018B7F46
:101B4000F1CF873F21F48091CB01877FEBCF883F96
:101B500021F48091CB018F7EE5CF8D3F31F48091D0
:101B6000C9018E7F8093C901A0CF8E3F21F480915F
:101B7000C9018D7FF7CF8F3F09F097CF8091C901C1
:101B80008B7FF0CF08950E94EB2C9C019091CC01AB
:101B90008091CD01982B21F03093C6012093C5018F
:101BA0009091CE018091CF01982B21F03093C40108
:101BB0002093C3018AEC91E00C94B01DEF92FF9248
:101BC0000F931F93CF93DF9300D000D000D0CDB7F9
:101BD000DEB786E0EAECF1E0DE01119601900D92AD
:101BE0008A95E1F7E090CC01F090CD010091CE0113
:101BF0001091CF011092CC011092CD011092CE0124
:101C00001092CF018E2D8F2991F08091C501909176
:101C1000C6010E94032DAC019091C801992309F4DB
:101C20003FC0809106018417150608F447C0802F35
:101C3000812B91F08091C3019091C4010E94032DEA
:101C4000AC019091C701992309F477C080910201FA
:101C50008417150608F47FC08091CC019091CD01C6
:101C6000892B9091CE01892B9091CF01892B11F076
:101C70000E94C30D86E0FE013196AAECB1E001900E
:101C80000D928A95E1F726960FB6F894DEBF0FBE47
:101C9000CDBFDF91CF911F910F91FF90EF900895ED
:101CA000209107018AE0289F90011124241735070D
:101CB00008F0BDCF9F5F9093C80102C09F3FD1F74E
:101CC000EE2059F00E94400C9FEF1E140CF491E09E
:101CD000899F802D11248093CC01FF2059F00E9410
:101CE000400C9FEF1F140CF491E0899F802D11246C
:101CF0008093CD013091CC01332309F498CF20910A
:101D0000CD01222309F493CF45EB3403C001112404
:101D1000992359F09093CC0145EB240390011124B1
:101D2000332339F03093CD0182CF81E08093CC0111
:101D3000F3CF81E08093CD017ACF209103018AE037
:101D4000289F900111242417350708F085CF9F5F45
:101D50009093C70102C09F3FD1F7002359F00E9422
:101D60009F0C9FEF10160CF491E0899F802D112499
:101D70008093CE01112359F00E949F0C9FEF111602
:101D80000CF491E0899F802D11248093CF01309134
:101D9000CE01332309F460CF2091CF01222309F42F
:101DA0005BCF45EB3403C0011124992359F0909384
:101DB000CE0145EB240390011124332339F03093F5
:101DC000CF014ACF81E08093CE01F3CF81E08093B1
:101DD000CF0142CF86E0EAECF1E0DF011D928A9567
:101DE000E9F71092C8011092C7011092C901089535
:101DF0002098289A2198299A83B18170199905C051
:101E000090E0892B8093D201089592E0FACFE0917F
:101E1000D201EE0FEE0FE093D20143B1842F817017
:101E200043B141FB222720F941FF02C022E030E00C
:101E3000822BE82BE093D201EF70F0E0E459FE4FE3
:101E400080819091D101890F8093D10120E084306D
:101E500054F08091D0018F5F8093D00160E080E0EA
:101E60000E94191321E08091D1018D3F54F480919B
:101E7000D00181508093D00161E080E00E9419136D
:101E800021E08091D101082E000C990B64E070E0F4
:101E90000E94BA348093D101822F089583E290E0AA
:101EA0000E940435873989F484E290E00E94043569
:101EB000873A59F485E290E00E94043591E081343C
:101EC00009F090E0892F8170089580E0FCCFCF93D6
:101ED000C82F6FEF811167E983E290E00E9412350D
:101EE0006FEFC11167EA84E290E00E9412356FEF54
:101EF000C11161E485E290E0CF910C94123580E04D
:101F00000E94670F0C94422B089586E290E00E9495
:101F10000435682F70E090E080E0089586E290E05C
:101F20000C9412350E94840F0E944E0F81110CC038
:101F300060E070E0CB010E948E0F0E9491140E941D
:101F4000381681E00C94670F0895CF93FB01C2818E
:101F5000CC2309F19C0122513F452031310520F568
:101F600082510E944816C0E08C2FCF91089581E0E5
:101F70000E94612843E062E081E00E94C805F3CF3F
:101F800081E00E94822843E062E081E00E94C8056F
:101F9000EBCF82E0F6CF8031FFE59F0789F38131F7
:101FA0009F45B9F3C1E0E0CF8031EFE59E07F9F23C
:101FB00081319F45C9F682E0DBCF2FEFFC01208302
:101FC0000895EF92FF920F931F93CF93DF93EC014D
:101FD000162F88812091D7013091D801232B79F0D9
:101FE0008E3F09F05CC08981833020F085508330BA
:101FF00008F055C0612FCE010E94831150C08B3074
:1020000009F4EBC0D0F4843009F489C060F4823064
:1020100009F44FC008F076C08130F1F1612FCE0194
:102020000E94DD0F3CC0863009F48FC008F482C0E6
:102030008A30A0F78FEF888332C0803109F4A5C0C1
:1020400000F58D3009F488C008F482C08E3009F4A0
:102050008BC08F3019F78091D9019091DA01892BCB
:10206000F1F06B8170E06D317105C8F489819A815E
:10207000AE014C5F5F4F9827892798270E940D1665
:102080000EC0823109F487C008F482C0833109F49C
:1020900093C08E3F19F6AECF198289E08A83612FF3
:1020A000CE01DF91CF911F910F91FF90EF900C9493
:1020B000FD2D8981823071F0833079F0813009F013
:1020C000ADCF0E94F72C0E94D4346A837B838C832B
:1020D0009D83E5CF0E94850FF6CF8091D901909125
:1020E000DA01892BE1F27E0122E0E20EF11C00E030
:1020F000802F0E94F809F70181937F010F5F08305C
:10210000B9F7CDCF8981823009F088CF6A817B8190
:102110008C819D810E94D4340E948E0FC0CF4B8150
:102120006A8189810E94B2139827892798279D8305
:102130008C83B5CF2C813D813227232732274B81D9
:102140006A8189810E94D413AACF0E949114A7CFDB
:102150000E94E1158983A3CF0E94E3159827892760
:1021600098279A8389839BCF6B8170E06D317105CD
:1021700008F095CF89819A81AE014C5F5F4F982717
:10218000892798270E94E6158ACF0E94381687CFA4
:102190000E949F13DFCF6B8170E06D31710508F0F5
:1021A0007ECF89819A81AE014C5F5F4F9827892746
:1021B00098270E940E1573CF6B8170E06D31710509
:1021C00008F06DCF89819A81AE014C5F5F4F9827EF
:1021D000892798270E94341562CF8091D901909168
:1021E000DA01892B09F45BCFCE010E94FD2DFFEFB0
:1021F00021EE84E0F15020408040E1F700C0000073
:102200000E94362D4CCFCF93DF9300D000D00F9299
:10221000CDB7DEB79093060380930503811520E2C6
:10222000920748F40F900F900F900F900F90DF914E
:10223000CF910C94FE048EEF89838A8381E08B8397
:102240000E94EB2C8160782F9D838C8349815A8179
:102250006B818D810F900F900F900F900F90DF91F9
:10226000CF910C94EC1ECF93DF9300D000D00F924F
:10227000CDB7DEB79093060380930503811520E266
:10228000920748F40F900F900F900F900F90DF91EE
:10229000CF910C9413058EEF89838A831B820E9451
:1022A000EB2C8160782F9D838C8349815A816B81CF
:1022B0008D810F900F900F900F900F90DF91CF9125
:1022C0000C94EC1EEDEDF2E01182108281E090E0C2
:1022D0009683858382E090E09387828783E090E015
:1022E000908B878784E090E0958B848B85E090E0ED
:1022F000928F818F86E090E0978F868F87E090E0C5
:1023000094A383A30895CF92DF92FF920F931F931C
:10231000CF93DF93CDB7DEB72A970FB6F894DEBF21
:102320000FBECDBF8C01603269F5DC011196EC91D6
:102330001197EE3038F5F0E0E157FA4C0C94CE34BA
:1023400088E0E9E1F1E0DE01119601900D928A95B5
:10235000E1F780E2F80111928A95E9F784E0D8016B
:102360008C9311961C92119712961C9212971396A9
:102370001C92139788E0FE013196149601900D92FD
:102380008A95E1F72A960FB6F894DEBF0FBECDBF4F
:10239000DF91CF911F910F91FF90DF90CF90089523
:1023A0008CE5F801808381E0818312821382EACF79
:1023B00013968C911397682F70E0762F66271296EC
:1023C0008C91860F972F911D092E000CAA0BBB0B29
:1023D00035E0880F991FAA1FBB1F3A95D1F7AC01B2
:1023E000BD01405E5F4F6F4F7F4F481759076A0727
:1023F0007B0740F28C35E1E09E07A105B10510F6A0
:102400004D35F1E05F076105710520F04CE551E0C5
:1024100060E070E0481B590BBC0166517D4FC8015C
:102420000E94DB34AFCF1296FC9012971396DC908B
:1024300040E06D2D8F2D0E94FC1398278927982747
:10244000F8019183808341E06D2D8F2D0E94FC1354
:10245000982789279827D80113969C938E931297D3
:1024600091CFFC01258136813227232732274481F1
:10247000638182810E94271485CF40E250E06FEF94
:1024800070E00E94ED348091D901D8018C93809145
:10249000D70111968C93119712961C92129713964E
:1024A0001C92139786E014968C93149784E01596EB
:1024B0008C9368CF81E090E09093D8018093D7010E
:1024C00082E390E09093D6018093D5010E94EB2C9B
:1024D0009093D4018093D30155CF8091D7019091EF
:1024E000D801892B91F160E080E00E94E409D82EA8
:1024F00064E086E00E94E409F82E8091D301909177
:10250000D4010E94032D8536910550F1DD2041F163
:10251000FF2031F10E94EB2C9093D4018093D301E2
:102520008091D5019091D60101979093D601809327
:10253000D501892B51F41092D8011092D70181E076
:1025400090E09093DA018093D9018091D901F8014C
:1025500080838091D70181838091D501828312CFBE
:1025600082E390E09093D6018093D501EECF109254
:10257000DA011092D90106CF40E250E0BC01129678
:102580008D919C910E948917FDCEBC016F5F7F4F9A
:102590004FE150E0FC01828193810E94BB17D8017A
:1025A0008C93F0CEBC016C5F7F4F4CE150E0FC019E
:1025B000828193810E94E317F2CF0E944A17E2CEF4
:1025C000FC018281833061F0843009F18111DACE1F
:1025D00080E21D928A95E9F7108288E08183D2CE4D
:1025E00013968C919AE0F92EFE0131966F01DF016E
:1025F000EF2D1D92EA95E9F7B6010E946914D80102
:102600008D93F60101900D92FA94E1F7BBCE1396EB
:102610008C919AE03496DE01119601900D929A9574
:10262000E1F7BE016F5F7F4F0E947D14F801808348
:10263000A9CEAF92BF92CF92DF92EF92FF920F930B
:102640001F93CF93DF93B82EA62EC0907502D09023
:102650007602E0907702F090780280917902909172
:102660007A02A0917B02B0917C02C82AD92AEA2A78
:10267000FB2ACFE1D0E0D701C6010C2E04C0B695ED
:10268000A795979587950A94D2F780FF20C04A2D89
:102690006B2D8C2F0E94FC138C0181309105B9F0B9
:1026A0000E9403118FE39CE90197F1F700C000003D
:1026B000C8010E94331181E0DF91CF911F910F91EA
:1026C000FF90EF90DF90CF90BF90AF90089521974B
:1026D00090F64A2D6B2D80E00E94FC13EC010E94C5
:1026E00003118FE39CE90197F1F700C00000CE01D0
:1026F000E0CF1F93CF93DF93CDB7DEB72A970FB606
:10270000F894DEBF0FBECDBF162FBE016F5F7F4FA7
:102710000E946914892B31F489859A85112361F00F
:102720000E9403112A960FB6F894DEBF0FBECDBFEC
:10273000DF91CF911F9108950E943311F3CF84E070
:10274000089520E1629FB001112450E0440F551F0D
:10275000640F751F20E8829FC0011124860F971F08
:10276000879608950F931F93CF93DF938430C8F417
:102770006830B8F44830A8F40E94A1138C010E947C
:102780000435C82FD0E0DC2FCC27C80101960E9469
:1027900004359E01282BC901DF91CF911F910F9124
:1027A000089590E080E0F8CF0F931F93CF93DF93CD
:1027B000E9018430E0F46830D0F44830C0F42115E9
:1027C0003C4531F42091D9013091DA01232B79F085
:1027D0000E94A1138C016D2F0E9412356C2FC8012D
:1027E0000196DF91CF911F910F910C941235DF91DB
:1027F000CF911F910F9108950F931F93CF93DF9364
:10280000843010F5611120C04230F0F424E0829F42
:102810008001112450E0440F551F040F151F095D5E
:102820001D4FC8010E940435C82FD0E0DC2FCC27F3
:10283000C80101960E9404359E01282BC901DF9131
:10284000CF911F910F91089590E080E0F8CF0F9302
:102850001F93CF93DF938901843028F5611123C042
:10286000423008F521153C4531F42091D9013091D1
:10287000DA01232BC1F094E0899FE001112450E09C
:10288000440F551FC40FD51FC95DDD4F612FCE0109
:102890000E941235602FCE010196DF91CF911F91DA
:1028A0000F910C941235DF91CF911F910F910895E4
:1028B0008232910520F4895C9D4F0C94043580E0B0
:1028C00008958232910520F4895C9D4F0C94123555
:1028D00008959B01883070F49AE0899FB00111241B
:1028E000675A7D4F4AE050E0C9010E94F43490E0FD
:1028F00080E008958FEF9FEF08959B01883070F47A
:102900009AE0899FB0011124675A7D4F4AE050E058
:10291000C9010E94363590E080E008958FEF9FEF67
:1029200008957F928F929F92AF92BF92CF92DF9243
:10293000EF92FF920F931F93CF93DF93CDB7DEB744
:102940002A970FB6F894DEBF0FBECDBFA090D90175
:10295000B090DA0181E090E09093DA018093D901A0
:102960008AEBC82E80E0D82E10E0760100E015C07A
:10297000F40125913491472D602F812F0E94D413AB
:1029800082E0880E911C739498E07912F1CFE0E117
:10299000EE0EF11C0F5F083019F04701712CE8CFE3
:1029A00021E030E040E060E0812F0E94271421E028
:1029B00030E041E060E0812F0E9427141F5FF0E8C3
:1029C000CF0ED11C143089F60E944A17CE01019611
:1029D0007C018AE0F70111928A95E9F710E0B701CE
:1029E000812F0E947D141F5F1830C9F7B092DA0161
:1029F000A092D9012A960FB6F894DEBF0FBECDBFC4
:102A0000DF91CF911F910F91FF90EF90DF90CF90CA
:102A1000BF90AF909F908F907F900895EF92FF921C
:102A20000F931F93CF93DF93EC018A017C01E60E95
:102A3000F71ECE018796CE15DF0539F4DF91CF91D1
:102A40001F910F91FF90EF900895C11522E0D207DA
:102A500040F40E940435F80180830F5F1F4F2196D8
:102A6000E8CFF8011082F9CF4F925F926F927F9278
:102A70008F929F92AF92BF92CF92DF92EF92FF928E
:102A80000F931F93CF93DF93EC017B018A01811594
:102A90009240D8F480E092E08C1B9D0B861797073C
:102AA000A0F03E0137E2630E711C8091D901909134
:102AB000DA012E01460E571E892BC1F07E01C70197
:102AC0008796E414F50409F050C0DF91CF911F916F
:102AD0000F91FF90EF90DF90CF90BF90AF909F90BD
:102AE0008F907F906F905F904F9008956E0181E07E
:102AF000C822DD24C0FF0FC0CE0186960E94043597
:102B0000F801908189279827892781159C4519F418
:102B10008FEFF8018083570140FE13C0F1E0AF1A38
:102B2000B10848018A0C9B1CC3018E0D9F1D0E9499
:102B30000435F401908181159C4519F48FEFF4015F
:102B40008083F801EC0DFD1D2FEFCA14DB0408F0A3
:102B5000B5CF9081818181159C4511F4208321831B
:102B600082E0C80ED11C3296F0CFE114E2E0FE06FE
:102B700040F4F701EC1BFD0BE00FF11F60810E9498
:102B80001235FFEFEF1AFF0A9ACF462F2091D70197
:102B90003091D801232B91F47E3F39F46E3F71F4CC
:102BA00080910503909106030895843038F47830BD
:102BB00028F4683018F4672F0C94B21390E080E08A
:102BC000089580E1089587E591E00895EF92FF92DE
:102BD0000F931F93CF93DF93EC018A017C01E60EE4
:102BE000F71ECE0187559D4FCE15DF0539F4DF91D5
:102BF000CF911F910F91FF90EF900895C73521E07D
:102C0000D20740F40E940435F80180830F5F1F4F04
:102C10002196E7CFF8011082F9CFCF92DF92EF92A1
:102C2000FF920F931F93CF93DF937C016A018C0176
:102C3000060F171FEC01CE0187559D4FC017D10716
:102C400049F4DF91CF911F910F91FF90EF90DF90AA
:102C5000CF900895C73521E0D20740F4FE01EE1968
:102C6000FF09EC0DFD1D60810E9412352196E3CF16
:102C7000CF93DF93C9EAD2E060E0CE010E94123523
:102C80002196C11584E0D807B9F7DF91CF91089557
:102C9000BF92CF92DF92EF92FF920F931F93CF9349
:102CA000DF9300D000D0CDB7DEB7F82E2FE0281785
:102CB00040F08FEF93E00E94043509EA12E0882388
:102CC000D1F00F900F900F900F90DF91CF911F9147
:102CD0000F91FF90EF90DF90CF90BF900895011576
:102CE00044E0140771F3C8010E940435811101C04A
:102CF000FA940F5F1F4FF110F2CF19821A821B82D4
:102D00001C82BB24BA9478015FEFE51AF50AC8016A
:102D10000E94043589831A82882399F2813009F050
:102D200047C0680182E0C80ED11CC7010E9404356B
:102D3000E82E8A83882329F2C6010E940435F82EE2
:102D40008FEF8E0D833068F46801E3E0CE0ED11C66
:102D5000FB82FF2021F0CE0101960E942F07860101
:102D6000D2CFF4E0EF12FBCF680124E0C20ED11CF9
:102D7000C80103960E940435FF2009F4A2CF8823DE
:102D800009F49FCF8150990BB89E9001B99E300DE8
:102D900011244F2D4150550BCA01820F931F0197EB
:102DA000F0F2EFE9FFE03197F1F700C00000F7CF54
:102DB000CE0101960E942F076701D1CFE7E0F3E033
:102DC000848195812AE030E0B9010E94A6346093A5
:102DD00007018681809306018285809305018485A1
:102DE0008093040186859785B9010E94A63460937B
:102DF0000301808980930201828980930101848983
:102E000080930001089580910703909108030C942A
:102E1000B51C0F931F93CF93DF9307E013E0D0E02F
:102E2000C0E0CE010E945814F80161918F0186170D
:102E300019F0CE010E9461142196C232D10589F7A2
:102E4000DF91CF911F910F9108950F931F93CF930F
:102E5000DF9307E013E0D0E0C0E0CE010E945814F9
:102E6000F80181938F012196C232D105B1F7CCE4EC
:102E7000D4E0FE0185919491009711F0FC01099531
:102E80002896F4E0C43EDF07A1F7DF91CF911F91B0
:102E90000F910895E7E0F3E0128E138E8FEA90E031
:102EA0009183808325E0248F28E833E133832283D4
:102EB0004CE251E05583448322E330E0378326839C
:102EC00025E030E0318720872AE030E03387228711
:102ED00064E170E0758764875787468744E650E071
:102EE000518B408B48E050E0538B428B48E250E0DE
:102EF000558B448B978B868B918F808F158E378F58
:102F0000268F80E590E091A380A30E9409170C947E
:102F10002517EF92FF920F931F93CF93DF937C01BE
:102F2000EB018A016FEF70E0CE010E94ED3426E4E0
:102F300034E0AEEDB4E090E080E0AC014E5F5F4F76
:102F40000417150788F0F90165917491E616F706E4
:102F500030F48C0F9D1FFC0171836083CA01285FD0
:102F60003F4FA217B30749F7DF91CF911F910F9100
:102F7000FF90EF900895DC01CB0126E434E0F901E5
:102F800065917491A617B70749F0285F3F4F64E039
:102F90002E3D3607A1F78FEF9FEF0895B9016E5FC1
:102FA0007F4FFB01A591B4914A175B07A0F3FB018A
:102FB00045915491F9013496659174910E94E434DD
:102FC00090E080E00895CF93DF93C6E4D4E0FE0163
:102FD000259134918217930741F0289624E0CE3D45
:102FE000D207A9F78FEF9FEF1DC0CE010296FC011B
:102FF0002591349142175307A8F3FC014591549150
:10300000FE013496859194910E94E4340E94091740
:10301000FE01369685919491009711F0FC01099577
:1030200090E080E0DF91CF91089580911F0390910F
:1030300020030895809124038170089580912403D2
:103040008695817008958091240382FB882780F9FA
:1030500008958091240383FB882780F90895AF9217
:10306000BF92CF92DF92EF92FF920F931F93CF9375
:10307000DF937C015B01C42FD22FFC018281882366
:10308000F9F04093DD010E94EB2C9093DC018093DA
:10309000DB0180E28C0F883008F061C0C77081E0EE
:1030A00001C0880FCA95EAF7DF91CF911F910F9168
:1030B000FF90EF90DF90CF90BF90AF900C9458208E
:1030C0001091DD01141340C08091DB019091DC016F
:1030D0000E94032D6C01B701C5010E941518C81686
:1030E000D90690F5C0E2CD0F1D17B9F080E2810F2F
:1030F000883040F4177081E001C0880F1A95EAF714
:103100000E945F20C83048F481E09D2F977001C075
:10311000880F9A95EAF70E945820802F0E944C2031
:10312000C830E8F4D77081E001C0880FDA95EAF77B
:10313000DF91CF911F910F91FF90EF90DF90CF9093
:10314000BF90AF900C945F2080E28C0F883038F4F1
:10315000C77081E001C0880FCA95EAF7E9CFDF9117
:10316000CF911F910F91FF90EF90DF90CF90BF9084
:10317000AF9008950F939C01CB01233F4CE534079A
:1031800059F1A8F4283DFCE53F0701F1293D4CE544
:103190003407D1F1273D3C4591F406E221EE41EEA2
:1031A00067ED7CE50E942F1880E00F910895253F80
:1031B000FCE53F07E9F0B0F0263F3C45F9F0FC01A3
:1031C0008281882339F11092DD01EFCF07E225EEED
:1031D00045EE68ED7CE5E6CF06E221EE40EE63EFDA
:1031E0007CE5E0CF07E225EE44EE64EF7CE5DACF44
:1031F00006E221EE42EE65EF7CE5D4CF07E225EE54
:1032000046EE66EF7CE5CECF08E221E045EE69EDC3
:103210007CE5C8CF81E0C9CFCF93DF93EC01FB0100
:103220008281882309F419C1C230FCE5DF07C0F1AF
:10323000C6319CE5D90730F09E012A5F3C45293014
:10324000310570F50E945B2B9093CC028093CB02EA
:10325000C031ECE5DE0709F4CFC008F05BC0C83030
:103260008CE5D80709F4B6C088F5C430ECE5DE0774
:1032700009F4A8C0C0F4C2308CE5D80709F49CC09A
:103280008091CB028260C330DC4509F498C0809104
:10329000CB029091CC020E94692B0E948A2080E090
:1032A000DF91CF9108958091CB028061C630ECE52B
:1032B000DE0709F484C08091CB028860C730DC450A
:1032C00008F47DC08091CB02806279C0CC308CE55F
:1032D000D80709F489C070F48091CB028C60CA30A1
:1032E000ECE5DE0709F46BC008F478C08091CB02EE
:1032F0008E7F65C0CE308CE5D80709F479C0809107
:10330000CB028B7FCF30DC4508F459C08091CB02D3
:103310008F7E55C0CB3FECE5DE0709F457C030F592
:10332000C3318CE5D80709F46FC078F4C131ECE5FE
:10333000DE0709F465C0C231DC4509F0A8CF0E9460
:103340008A208091CB028F773AC0C5318CE5D807AF
:1033500009F462C008F476C08091CC028160CA3F53
:10336000DC4509F094CF8093CC0291CFCF3FFCE5B0
:10337000DF0709F44DC088F48091CC028D7FCD3FEA
:103380009CE5D90781F38091CC028E7FCE3FDC454E
:1033900050F38091CC028360E6CFC130FDE5DF07BA
:1033A00009F459C008F444C080E0C230DD4509F09A
:1033B0006ECF0E94EF2B6BCF8091CB028160809308
:1033C000CB0265CF8091CB028460F9CF8091CC0293
:1033D0008260C9CF8091CB028064F1CF0E948A20A5
:1033E0008091CB028068EBCF8091CB028D7FE7CFBD
:1033F0008091CB02877FE3CF8091CB028F7DDFCF9F
:103400008091CB028F7BDBCF8091CB02837FD7CFA4
:103410008091CC028C7FA7CF8091CB0282FB992731
:1034200090F921E0922790FB82F990FB83F9C7CFB6
:103430008091CC02982F909591708E7F892B90FB74
:1034400081F991CF0E948A209091CB02892F97FB1E
:1034500087F98058B4CF81E0ACCF81E021CFCF9302
:10346000DF93EB0186319C4509F03BC00E94472A5F
:10347000982F9A7A2091210320FF04C0382F3474AA
:1034800009F090E021FF04C0382F317109F090E07D
:1034900022FF04C0382F387809F090E023FF03C0E2
:1034A000827209F090E08A81882389F081E091118D
:1034B00001C080E08093DE0189E2911185E30E94E2
:1034C000CA290E94BC2A80E0DF91CF9108958091A3
:1034D000DE01811104C089E20E94D129F2CF85E387
:1034E000FBCF81E0F1CFEDEDF2E083E0E530F807CE
:1034F00039F488E090E09093F0018093EF01089513
:10350000848187FF14823596F0CFCF939091ED019F
:10351000992321F0811116C01092ED01CF910895E9
:10352000EC2FF0E0EE0FFF1FE152FE4F8081918102
:103530000E94FE040E94BC2ACF5F8091ED01C81753
:1035400078F3EACFC0E0F9CF809108018823A1F099
:103550008091F1019091F201009771F00E94032D8A
:1035600020911D0330911E032817390728F481E0AC
:103570000E94851A0C94731A0895109208011092F3
:10358000F2011092F10181E00C94851A80910801FA
:1035900081110C94BD1A81E08093080108952F9247
:1035A0003F924F925F926F927F928F929F92AF92D3
:1035B000BF92CF92DF92EF92FF920F931F93CF9320
:1035C000DF93CDB7DEB72A970FB6F894DEBF0FBEF4
:1035D000CDBF7C016B01873F4CE5940709F5FB01EA
:1035E0001281112391F181E080930801812F2A96A5
:1035F0000FB6F894DEBF0FBECDBFDF91CF911F9104
:103600000F91FF90EF90DF90CF90BF90AF909F9081
:103610008F907F906F905F904F903F902F90089584
:10362000883FFCE59F0739F4FB011281112369F003
:103630000E94BD1ADBCF893F9C4539F4FB01128102
:10364000112319F00E94C61AD1CF4090080111E051
:10365000442061F21092F0011092EF0110E095E029
:10366000392E88248394912C22242394A090EF0156
:10367000B090F001F8E0AF16B10480F08091EE0157
:10368000882309F4B2C00E94EB2C9093F20180933E
:10369000F1011092EE0181E01827A8CF3A9CF001C9
:1036A0003B9CF00D1124E352FD4FBE016F5F7F4F35
:1036B00080810E946914892B61F000E0102B8091B9
:1036C000EF019091F00101969093F0018093EF014A
:1036D000CDCFFE01319690E080E055245A94282FFA
:1036E000419151914115510589F1E416F50609F40E
:1036F000582E01968430910591F724E0FFEF5F1674
:10370000E1F2F60102813A9CC0013B9C900D11242C
:10371000AC0143525D4F3A01FA018481A40102C019
:10372000440F551F2A95E2F79A01215031090023D1
:1037300049F1A40101C0440F5A94EAF7842B848311
:103740008F778217130631F0042DB8CF823008F43A
:10375000B4CFD4CF80E00E94851AF30184818068C1
:10376000848382819381009729F00E94FE04209235
:10377000EE01A4CF61E08091EF019091F0010E94F1
:103780007913F5CF8F778217130631F482819381F5
:10379000009719F10E9413053A9CF0013B9CF00D33
:1037A0001124E352FD4F4481242F30E0052C02C048
:1037B000359527950A94E2F720FF7FCFC40101C019
:1037C000880F5A94EAF780958423848387FF75CF06
:1037D000803809F0B9CF1482B7CF60E08091EF0153
:1037E0009091F0010E947913D7CF111106C081E0AA
:1037F0000E94851A0E94731A4ECFF6018281882397
:1038000009F449CF0E94EB2C9093F2018093F101CF
:10381000E091ED01E73008F03ECF81E08E0F80931C
:10382000ED01F0E0EE0FFF1FE152FE4FF182E0826A
:1038300032CFFF920F931F93CF93DF938C01EB0155
:10384000F42E8091090182FF4AC08B7F8093090189
:103850008091F5019091F6019B01281B390BC9015C
:1038600020910A0130910B0182179307B8F48091DF
:10387000F3010E94481F809109018D7F8093090107
:103880008091250390912603019710F58091F30113
:103890000E94DF1F82E00E94602A2BC082E00E940B
:1038A0005A2A8091F3010E94481F80910901826089
:1038B000809309018091220385FFE2CF86FDE0CF4E
:1038C000FF20F1F2DF91CF911F910F91FF900895AA
:1038D000EFE9FFE03197F1F700C00000D5CF802F6E
:1038E0000E94DF1F8091F3019091F40180179107EE
:1038F00089F20E94BC2AD093F601C093F501E2CF71
:103900008091220380FF1DC08091090182FF19C0B0
:103910000E94EB2C2091F5013091F601AC01421B85
:10392000530B9A0140910A0150910B01241735075E
:1039300040F041E0BC018091F3019091F4010C94BE
:10394000191C089590910901892F8E7F90FF816045
:103950008093090182E00C94602A809109018E7F96
:103960008093090182E00C94602A90930B0180936C
:103970000A0108958832910538F48E319105E8F4F2
:103980000497A0F480E008958933910558F48D32AE
:10399000910510F48B97B1F78091220382FB882761
:1039A00080F908C084369105B9F3ECCF80912203E9
:1039B0008295817091E0892708958091220383FB8D
:1039C000882780F9F7CFCF92DF92EF92FF920F9383
:1039D0001F93CF938C016B018091220380FD0AC05D
:1039E000C1E08C2FCF911F910F91FF90EF90DF904E
:1039F000CF9008950E94EB2C7C01F601C281CC236C
:103A000029F18091090182FF06C040E0B70190E0F2
:103A100080E00E94191C82E00E94602A0B31FCE5C4
:103A20001F0759F00C314CE5140769F00A315CE5C9
:103A3000150761F40E94A21CD4CF80910901816016
:103A400080930901CECF0E94AD1CCBCFB601C80137
:103A50000E94BA1C882321F2F601C281CC2309F40A
:103A60004EC08091090180FFBBCF8091220381FF6E
:103A700015C08091220385FD16C01093F4010093B8
:103A8000F301F092F601E092F50180910901846062
:103A90008093090182E00E94242B2FC00E94472AB4
:103AA000882339F39DCF2091F5013091F601A701CC
:103AB000421B530B9A0186FD04C08091090181FDD0
:103AC000DCCF2F3A3105C8F68091F3019091F401D3
:103AD0000817190791F68091090181FBCC27C0F9DD
:103AE00081FD04C0802F0E94481F7BCF82E00E948E
:103AF0005A2A8091F3010E94481FC0E072CF40E033
:103B0000B701C8010E94191C6CCF9093FC018093EF
:103B1000FB010895E091FB01F091FC01309721F049
:103B20000190F081E02D099480E00895E091FB017F
:103B3000F091FC01309799F020911801222359F05F
:103B40002091CB0227FF07C0DC012C9111962C930A
:103B5000119725E02C930280F381E02D09940895BC
:103B6000E091FB01F091FC01309739F022E0DC019B
:103B70002C930480F581E02D099408952091F9019A
:103B80003091FA012817390771F09093FA01809368
:103B9000F901E091FB01F091FC01309721F00680E2
:103BA000F781E02D099408952091F7013091F801F3
:103BB0002817390771F09093F8018093F701E0918D
:103BC000FB01F091FC01309721F00084F185E02D9C
:103BD000099408950E94F72C60930E0270930F02CF
:103BE000809310029093110260930A0270930B026B
:103BF00080930C0290930D0208950E94F72C60931D
:103C00000E0270930F028093100290931102609342
:103C100006027093070280930802909309020895A8
:103C200085B7806885BF85B7806885BF089508958A
:103C300008950C94171E0C9495040E94101E80E4A5
:103C40009BE20E945A2D0E9462110E9425170E9439
:103C5000181E0C94191E81E008950C942B1E0895D3
:103C600008950E942F1E0C94301E0E94E22C0E9488
:103C7000030A0E94920F0E94F80E0C941B1EAF9232
:103C8000BF92CF92DF92EF92FF920F931F93CF9349
:103C9000DF93CDB7DEB72A970FB6F894DEBF0FBE1D
:103CA000CDBF0E94140A81110E94EA1D8EEFA82E3A
:103CB00081E0B82E10E000E0C02E802F0E94F809AD
:103CC000E82EF501F1905F01F81609F453C08091D8
:103CD000A70281FD0E94FE098F2D8E25D12CFF2485
:103CE000F394982F9F2109F440C00E942D1E882331
:103CF00099F0DE82CF82EF2081E009F480E08887AE
:103D00000E94EB2C8160782F9A8789874E815F8192
:103D100068858A850E94EC1EF801E250FE4F808182
:103D2000F826F0820E94070F81110E94FD1D0E945B
:103D3000DE0D0E948A1D9091FD01891791F10E946C
:103D40008A1D8093FD012A960FB6F894DEBF0FBE40
:103D5000CDBFDF91CF911F910F91FF90EF90DF903A
:103D6000CF90BF90AF900C94A307D394FF0CF8E0D2
:103D7000DF12B7CF0F5F1F4F0830110509F09CCF3E
:103D80008FEF89838A831B820E94EB2C8160782FBE
:103D90009D838C8349815A816B818D810E94EC1EA9
:103DA000C1CF2A960FB6F894DEBF0FBECDBFDF910C
:103DB000CF911F910F91FF90EF90DF90CF90BF9028
:103DC000AF900895019708F40895EFE9FFE0319767
:103DD000F1F700C00000F6CFCF92DF92FF920F9371
:103DE0001F93CF93DF93CDB7DEB72B970FB6F89421
:103DF000DEBF0FBECDBF7A878B878A01F62ECA84BD
:103E0000DB84C114D10421F0812F84238F3F89F5F5
:103E1000F1100E94672A1E821D8209831A83FB8289
:103E2000DD82CC828091090390910A03892B61F095
:103E30000E94052A882319F082E00E94242B0E9408
:103E4000E12981110E94AE2A49815A816B817C81CE
:103E50008D819E812B960FB6F894DEBF0FBECDBF2D
:103E6000DF91CF911F910F91FF90DF90CF900C9435
:103E7000DF26809113029091140201969093140210
:103E800080931302C5CFFC01808191810C949C2901
:103E9000CF93C82F882309F490C08238C1F40E94C0
:103EA0008A1D81FD8AC089E30E94CA290E94BC2A1A
:103EB0002FEF81EE94E0215080409040E1F700C068
:103EC000000089E30E94D129CF910C94BC2A833849
:103ED000A1F40E948A1D80FD70C083E50E94CA295A
:103EE0000E94BC2A2FEF81EE94E021508040904048
:103EF000E1F700C0000083E5E5CF8438A1F40E941B
:103F00008A1D82FD5AC087E40E94CA290E94BC2AE9
:103F10002FEF81EE94E0215080409040E1F700C007
:103F2000000087E4CFCF8CEF8C0F813AB8F48C2F50
:103F30000E94B10B811141C06C2F80910C019091B6
:103F40000D010E94082C882329F08C2F0E94D12972
:103F50000E94BC2A8C2F0E94CA29B6CF80E28C0F07
:103F6000883048F4C77081E001C0880FCA95EAF72D
:103F70000E944A2AA9CFEBE5EC0FE33040F4F0E0D1
:103F8000E655FE4F808190E0CF910C94BE1DE8E590
:103F9000EC0FE73150F4F0E0EE0FFF1FE458FE4F56
:103FA00080819181CF910C94D41DC03F30F08C2F33
:103FB0000E94D80CCF910C94C30DCF910895882303
:103FC00009F452C0823871F40E948A1D81FF4CC0EE
:103FD00089E30E94CA290E94BC2A89E30E94D12950
:103FE0000C94BC2A833859F40E948A1D80FF3CC07F
:103FF00083E50E94CA290E94BC2A83E5EFCF84385A
:1040000059F40E948A1D82FF2FC087E40E94CA29AA
:104010000E94BC2A87E4E2CF9CEF980F913AF0F21D
:1040200090E2980F983050F4877091E001C0990F9A
:104030008A95EAF7892F0E94502AD2CF9BE5980FE4
:10404000933020F490E080E00C94BE1D98E5980F2A
:10405000973120F490E080E00C94D41D803F20F054
:104060000E94400D0C94C30D08951F93CF93DF93CE
:10407000182FEB010E94481F209731F4812FDF9108
:10408000CF911F910C94DF1F8FE99FE00197F1F70B
:1040900000C000002197F0CF6091270370912803A2
:1040A000893321F060912503709126030C9435200B
:1040B000882321F00E944A2A0C94BC2A0895882360
:1040C00021F00E94502A0C94BC2A0895882321F0E4
:1040D0000E945A2A0C94BC2A0895882321F00E9439
:1040E000602A0C94BC2A089590E080E00E94BE1DD6
:1040F00090E080E00E94D41D0E94672A0E94772AE7
:104100000E94BC2A0E94EA0E0C94C30D0E94D8297A
:104110000C9474200E94572A0C948620E92FE29573
:10412000EF70E250EE3070F4F0E0E356FA4C0C948D
:10413000CE34803F19F020F4883E20F481E00895C9
:10414000843FE1F380E00895883EC0F3813FD1F7DA
:10415000F5CF93FB882780F908950E949C290C9441
:104160008E204F925F926F927F92BF92CF92DF929A
:10417000EF92FF920F931F93CF93DF937C01EB019C
:10418000FC010281158112951F700E941F2AC82E02
:104190008823A1F0C02E002389F08D2F807F8034EA
:1041A00029F080E28C0FC12C883040F082E00E9420
:1041B000242B0E941F2A91E0C82EC926BD2EB2943E
:1041C0002FE0B222EB2DF0E0E555FA4C0C94CE3402
:1041D000FD2FFF70DF2E8D2F807F19F0D29490EF8E
:1041E000D9220023A9F0DD2059F080E28C0F88301D
:1041F00010F0C11109C08D2D0E944A2A0E94BC2ACC
:104200008C2F0E94481F14C08D2D0E945A2AF6CF71
:104210008C2F0E94DF1FDD2059F080E28C0F883048
:1042200010F0C11138C08D2D0E94502A0E94BC2A66
:10423000EB2DE850FF0B349720F40E948A1D0E945A
:10424000A307CE010E948E20811111C21092140288
:1042500010921302CC2009F42BC20E94012A80FD87
:1042600027C2F70112820E94FB290E946128C70120
:104270000E947D230E94FB29DF91CF911F910F9116
:10428000FF90EF90DF90CF90BF907F906F905F9006
:104290004F900C9482288D2D0E94602AC7CF2D2F1D
:1042A0002F70D22E8D2F807F803219F0D29480EF24
:1042B000D822CC23E9F0C13009F455C0002309F419
:1042C0005CC0112391F120E0F701408151816281AE
:1042D000738184810E942D05B7010E941E188111EF
:1042E0008FCFF701858180FF8BCF8F7085831DC0B5
:1042F0000023E9F0111106C00E947A2A8D290E943C
:10430000582096CF113031F40E947A2A8D290E94CC
:10431000962A8ECF80912303823070F38113ECCFE5
:104320000E94AE2A8D2D0E94802A8D2DE8CF11117A
:1043300006C00E94AE2A8D2D0E945F2079CF809109
:104340002303113059F4823008F472CF0E94472AB7
:104350008D2109F46DCF0E94892AEBCF823048F37A
:104360001813E7CF65CF002321F0163008F060CF97
:10437000DCCF153008F05CCFDECF1123E1F2809165
:10438000270390912803C93321F080912503909150
:1043900026030E94E21E8C2F0E94DF1F49CF8D2F23
:1043A00086958695837061F0813009F041CFCE010A
:1043B0009370011102C090E080E00E94D41D38CFBC
:1043C000CE019370011102C090E080E00E94BE1DFA
:1043D0002FCF8C2F002339F00E94D80C0E94C30DE0
:1043E0000E94C30D25CF0E94400DFACF8D2F837000
:1043F00009F043C001111CCF2C2F22952695277060
:10440000220F220F6C2F6F70462E512C712C612CB5
:10441000022E04C0440C551C661C771C0A94D2F76B
:1044200060E070E0CB01C4FF0FC06FE070E080E09F
:1044300090E004C0660F771F881F991F2A95D2F756
:1044400060957095809590952D2F269526952370D3
:104450006429752986299729223049F058F421309A
:1044600019F00E941528E4CE0E940328E1CE0E9494
:104470002728DECE0E940128DBCE8695002311F08E
:104480008D2F8170882309F4D3CE2C2F2295269569
:104490002770220F220F6C2F6F70462E512C712C1B
:1044A000612C022E04C0440C551C661C771C0A9417
:1044B000D2F760E070E0CB01C4FF0FC06FE070E0A6
:1044C00080E090E004C0660F771F881F991F2A952F
:1044D000D2F760957095809590952D2F269526950D
:1044E00023706429752986299729223049F058F4C8
:1044F000213019F00E94D8289BCE0E94C62898CE61
:104500000E94EA2895CE0E943B2892CEFD2FFF7094
:10451000DF2E002329F08F2F0E9461288C2FEFCEF1
:104520008C2F0E945F208D2D0E94822881CEC23F59
:1045300009F43FC060F4C03F31F1C13F91F1002365
:1045400009F480C011115CCE8D2F8F712FC0C33F35
:10455000A9F1C43FA1F780912303823008F45BC026
:10456000002309F444C00E94DE290E94502A0E94C0
:10457000012A843069F50E941B2B8D2F8F710E94B8
:104580008228C12C55CE002341F0153008F050CEC2
:104590008D2F8F710E94A5284BCE163008F048CE83
:1045A000F7CF8D2F8F71002309F4BECF0E946128B1
:1045B0003FCE8D2F8F710023C9F3B6CF002329F092
:1045C0008D2F8F710E944C2833CE0E94472830CE09
:1045D000809123031817A8F62D2F2F71D22E822F2A
:1045E0000E94612863E08D2D0E94FF2ACACF0E949D
:1045F000DE290E944A2A80912303181740F00E9466
:104600001B2B0E94892A64E08D2F8F71EDCF81E0F2
:104610000E94242BB6CF002359F03D2F3F71D32E9B
:10462000832F0E94612863E08D2D0E94FF2A00CE17
:1046300081E00E94242B123008F4FACD82E00E941F
:10464000242BF6CD11119BCE8D2F8F716DCF4D2F59
:104650004F706C2FC7010E94AB070E947927E8CDED
:104660004D2F4F706C2FC7010E94AE07E1CD002384
:1046700019F01111EBCDEECD1111E8CD20E0F701CD
:10468000408151816281738184810E942D05B7012F
:104690000E942918882309F4D9CD809113029091A2
:1046A0001402029709F0D2CD8C2F0E944C20CECD5F
:1046B000DF91CF911F910F91FF90EF90DF90CF90FE
:1046C000BF907F906F905F904F9008950F931F93CE
:1046D000CF93DF93EC01688179818A810E94A629BA
:1046E0008C010E94FC280E940028B801CE01DF91B5
:1046F000CF911F910F910C94B120CF93DF93EC01D8
:104700008B819C81892B29F08881998189238F3F16
:1047100059F4DF91CF910895CE010E946623CE0116
:10472000DF91CF910C946905CE010E94560681114C
:10473000F3CF0E941F2A882361F38A81882349F3DB
:1047400082E0DF91CF910C94242BCF93DF9300D0A4
:1047500000D00F92CDB7DEB70F900F900F900F9053
:104760000F90DF91CF910895CF93DF9300D000D0C9
:1047700000D0CDB7DEB726960FB6F894DEBF0FBED9
:10478000CDBFDF91CF9108951F93CF93DF93C09159
:10479000150216E0809116028C1304C0DF91CF91B0
:1047A0001F910895D0E01C9FF0011D9FF00D112472
:1047B000E95EFD4F408151816281738184819581E1
:1047C0000E94B4232196C770E5CF409147025091D3
:1047D00048026091490270914A0280914B02909187
:1047E0004C020C94B423209115029091160256E0CD
:1047F000291302C080E0089530E0529FF001539FDA
:10480000F00D1124E95EFD4F7181761306C07081B1
:10481000781303C07281741304C02F5F3F4F277059
:10482000E7CF81E00895DF92EF92FF920F931F93FD
:10483000CF93DF9380914C02807F61F48091490295
:10484000882341F0C091150286E0D82E809116028F
:104850008C1308C0DF91CF911F910F91FF90EF90C3
:10486000DF90089520914A0230914B02D0E021154B
:10487000310541F08091470290914802482F492329
:104880004F3F19F42196C770E1CFDC9E8001DD9E79
:10489000100D1124F801E95EFD4F51815913F2CF3B
:1048A00040814813EFCF82818111ECCFE380F48007
:1048B000E21AF30A20E06091490270914A02809165
:1048C0004B020E942D0567E472E00E941518E8165D
:1048D000F906C0F680914C028F70806180934C0283
:1048E000F801E45EFD4F80818F708061808387E4F2
:1048F00092E00E947D23DF91CF911F910F91FF9055
:10490000EF90DF900C94C4236F927F928F929F92CE
:10491000AF92BF92CF92DF92EF92FF920F931F93CD
:10492000CF93DF93CDB7DEB761970FB6F894DEBFB4
:104930000FBECDBF8C0185E0F801DE011D96019010
:104940000D928A95E1F7D8017C901196EC90119721
:104950001296FC9087E4882E82E0982E80914A027D
:1049600090914B02009749F04091470250914802C4
:10497000242F25232F3F09F0BDC1F1101BC1C80111
:104980000E947D2387C020E0409147025091480259
:104990006091490270914A0280914B020E942D055C
:1049A000B8010E941A188111E9C1CD2829F08E2D75
:1049B00087218F3F09F017C180E0B82FB170CB2E4F
:1049C00080FF29C04F2D6E2D872D0E94F323D82EF6
:1049D000811121C07D86EE868D859E850E949C2951
:1049E000292F22952F70223050F0243078F49F70B8
:1049F00051F0F8019581907F31F46D2C10C19F70BA
:104A000011F08823D1F3805E8830B8F3C8010E948A
:104A10007D23DC2CF2CFFF2009F401C180914C02F0
:104A2000816080934C02612CFAC0892B49F08091FF
:104A3000470290914802282F29232F3F09F005C1F2
:104A40007D86EE868D859E850E94AD20882309F4A3
:104A500096CFFF2009F493CF80914C02803270F002
:104A6000209147023091480238872F831986DB86D0
:104A7000CA868C87CE0107960E947D2386E0F801C6
:104A8000A7E4B2E001900D928A95E1F70E94132409
:104A90000E94E52366246394C2C0211113C07C2DBB
:104AA000D98AC88A472D5E2D6F2D89890E94A5233A
:104AB00087E492E00E947D2386E0F40111928A95BA
:104AC000E9F77AC180914A0290914B02892B49F013
:104AD0008091470290914802282F29232F3F09F007
:104AE000CDC07D86EE868D859E850E94AD20882373
:104AF00009F445CFFF2009F442CF80914C02803267
:104B000008F4BCCF20914702309148023A832983B0
:104B10001B82DD82CC828E83CE010196ADCF20E058
:104B200060E070914A0280914B020E942D0567E47B
:104B300072E00E941518A816B90668F56F2CFF20C0
:104B400009F41DCF80914A0290914B02892B49F0C4
:104B50004091470250914802842F85238F3F09F0EE
:104B6000A3C07D86EE868D859E850E94AD20811135
:104B700085CF80914C02816080934C02C8010E94D5
:104B80007D234DC086E0F801A7E4B2E001900D92CC
:104B90008A95E1F744C07C2DD98AC88A472D5E2DBD
:104BA0006F2D89890E94A52386E0D4011D928A95E4
:104BB000E9F761C07D86EE868D859E850E94AD20D9
:104BC000682E882309F4DBCE86E0F801A7E4B2E082
:104BD00001900D928A95E1F787E492E00E94431FCD
:104BE0000E94132448C081E08F25E7CE81E08F2505
:104BF000CEC09E11AFC08711ADC0F110ABC0809187
:104C00004C028F70806180934C020E94E52387E400
:104C100092E00E947D2380914C02F8018583862DCD
:104C200061960FB6F894DEBF0FBECDBFDF91CF9176
:104C30001F910F91FF90EF90DF90CF90BF90AF90BA
:104C40009F908F907F906F9008959E11F9CE87115D
:104C5000F7CEF110F5CE80914C02D80115968C93C9
:104C6000C8010E947D2386E0F801A7E4B2E001902C
:104C70000D928A95E1F70E94E523D1CF9E1131CFA5
:104C800087112FCFF1102DCF80914C02D8011596AE
:104C90008C93C8010E947D23E7E4F2E086E0DF0107
:104CA0001D928A95E9F7BBCF5E115BCF471159CFB3
:104CB00020E06091490270914A0280914B020E946B
:104CC0002D05B8010E94231881115CCF80914C0200
:104CD00080FD58CF982F907F09F454CFF801858339
:104CE000903F09F4BDCF982F907F905F8F70892BF4
:104CF0008583B6CFF801C380D48060904902560105
:104D0000A81AB90A662009F40ACF20E0662D70912E
:104D10004A0280914B020E942D0567E472E00E94D6
:104D2000151820914C02207FA816B90608F0B5CEC0
:104D300080914A0290914B02211177CE6F2C892BE2
:104D400049F08091470290914802282F29232F3F54
:104D500009F04FCF20E04091470250914802609106
:104D6000490270914A0280914B020E942D05B801C0
:104D70000E941518843F914008F405CEC114D10457
:104D800029F08E2D87218F3F09F030CF80E080FF02
:104D90000CCE4F2D6E2D872D0E94F323882309F40E
:104DA00004CE87E492E00E947D2386E0E7E4F2E00F
:104DB000DF011D928A95E9F70E94E52334CE1F9307
:104DC000CF93DF93CDB7DEB72C970FB6F894DEBF45
:104DD0000FBECDBF4F83588769877A878B879C87A3
:104DE000CE0107960E948424882369F08A859B85DA
:104DF000892B39F04F815885842F85238F3F09F007
:104E000071C016E05FC086E0FE013796DE011196A4
:104E100001900D928A95E1F78A859B85892B89F30C
:104E20008F81988589238F3F61F32091160230E0AE
:104E3000C9010196877099274091150248171906F4
:104E400071F40E948A20109216021092150286E0D8
:104E5000E7E4F2E0DF011D928A95E9F7D2CF96E010
:104E6000929FD001939FB00D1124A95EBD4FFE010A
:104E7000319601900D929A95E1F7809316020E9467
:104E8000C423BFCF819FC0011124895E9D4F0E9422
:104E900084248823E9F0E09115021E9FF00111247B
:104EA000E95EFD4F408151816281738184819581EA
:104EB0000E94B4238091150290E001968770992793
:104EC0008093150280911502909116028913DACF12
:104ED0002C960FB6F894DEBF0FBECDBFDF91CF91F9
:104EE0001F91089569857A858B859C850E94B423DE
:104EF00088CFEF92FF920F931F93CF93DF938C0194
:104F0000892B81F0F12CEE24E394E8012196F8013D
:104F10008491843770F4843008F05FC08130B1F040
:104F20008230A1F1DF91CF911F910F91FF90EF900F
:104F30000895853709F44CC008F43DC09CE7980FEC
:104F4000903780F78F770E94DF1F49C00E5F1F4F99
:104F5000FE01849190E2980F983060F48770FE2DE6
:104F600001C0FF0F8A95EAF78F2F0E946A2A0E94DC
:104F7000BC2A02C00E94481F8F2D815030F2EFE9F9
:104F8000FFE03197F1F700C00000F7CF0E5F1F4F31
:104F9000FE01849190E2980F983050F48770FE2DB6
:104FA00001C0FF0F8A95EAF78F2F0E94702ADFCF8A
:104FB0000E94DF1FE1CF0E5F1F4FFE01C491C15061
:104FC000D8F28FE99FE00197F1F700C00000F7CF1A
:104FD0000E5F1F4FFE01F490CFCF0E94481F8E013D
:104FE000CBCF08950C94F1270E94F22760937902A9
:104FF00070937A0280937B0290937C020C947420CD
:1050000008950C94F4270F931F9300917902109147
:105010007A0220917B0230917C02602B712B822BD3
:10502000932B1F910F910C94F4270F931F930091D2
:10503000790210917A0220917B0230917C026023E8
:105040007123822393231F910F910C94F4270F93C4
:105050001F930091790210917A0220917B02309186
:105060007C0260277127822793271F910F910C9450
:10507000F4270C94B3040E9439286093750270934E
:10508000760280937702909378020C94742060E00B
:1050900070E0CB010C943B280F931F9341E050E04C
:1050A00060E070E08A019B0104C0000F111F221F05
:1050B000331F8A95D2F7C901B8011F910F910C9443
:1050C0003B280F931F9341E050E060E070E004C084
:1050D000440F551F661F771F8A95D2F7809175027E
:1050E00090917602A0917702B09178028A019B019B
:1050F000082B192B2A2B3B2BC901B8011F910F91AB
:105100000C943B280F931F9341E050E060E070E067
:1051100004C0440F551F661F771F8A95D2F7CB0135
:10512000BA016095709580959095009175021091E7
:1051300076022091770230917802602371238223D6
:1051400093231F910F910C943B280F931F9341E0E1
:1051500050E060E070E004C0440F551F661F771FE9
:105160008A95D2F78091750290917602A09177028C
:10517000B09178028A019B01082719272A273B272B
:10518000C901B8011F910F910C943B280F931F93F5
:105190000091750210917602209177023091780289
:1051A000602B712B822B932B1F910F910C943B281A
:1051B0000F931F9300917502109176022091770250
:1051C0003091780260237123822393231F910F91E2
:1051D0000C943B280F931F93009175021091760257
:1051E00020917702309178026027712782279327D8
:1051F0001F910F910C943B2808959E3F69F1990FE0
:10520000990F990FE92FE80F8E2F877041E001C0A9
:10521000440F8A95EAF7E695E695E69585E0E89FDE
:10522000F0011124E35BFD4F30E020E070E051918C
:10523000DF011197CB01022E02C0969587950A9443
:10524000E2F7817081958527842385278C932F5FD2
:105250003F4F2530310559F708959E3F49F1990F89
:10526000990F990FE92FE80F9E2F9770E695E69515
:10527000E69585E0E89FF0011124E35BFD4F50E0E7
:1052800040E080E0219130E0092E02C0369527955C
:105290000A94E2F721703327042E01C0220F0A94EA
:1052A000EAF7822B4F5F5F4F4530510559F708955C
:1052B00080E00895BF92CF92DF92EF92FF920F931A
:1052C0001F93CF93DF938C01C0907502D09076022C
:1052D000E0907702F09078028091790290917A02C2
:1052E000A0917B02B0917C02C82AD92AEA2AFB2A23
:1052F000CFE1D0E0BC2ED701C6010C2E04C0B6957C
:10530000A795979587950A94D2F780FD0EC02197AF
:1053100088F7B12C8B2DDF91CF911F910F91FF90CA
:10532000EF90DF90CF90BF900895B8018C2F0E942E
:10533000B707019761F3EECFCF93DF93EC010E94A3
:105340005A29BE01DF91CF910C94B7071F93CF93D9
:10535000DF93EB0190911202992331F0CB01DF91A1
:10536000CF911F910C949C29882379F0CB010E9446
:105370005A29182F682FCE010E94FD28BE01812FC7
:10538000DF91CF911F910C94B707CB010E942D297B
:10539000182FF4CF682F80910C0190910D010C947F
:1053A000882C682F80910C0190910D010C94932C06
:1053B00080910C0190910D010C949E2C80918202A1
:1053C00008958091090390910A03892B89F00E9426
:1053D000EB2C2091800230918102AC01421B530BD7
:1053E00081E02091090330910A034217530708F422
:1053F00080E08170089580917F02859585958595DF
:10540000089580917F02877008950E94EB2C20916F
:105410007D0230917E02821B930B20910903309113
:105420000A038217930748F080917F0282FB882746
:1054300080F991E089278170089580E0FCCF9091F8
:105440007F02977081E009F480E008959091CC028A
:1054500092FB222720F9281751F080FB92F99093B4
:10546000CC028091CB029091CC020C94692B0895D0
:105470008091CC0282FB882780F991E089270C94E7
:10548000262A81E00C94262A80E00C94262A80911A
:10549000A60208959091A602892B8093A6020895F2
:1054A00080959091A60298239093A6020895109259
:1054B000A60208959091A502892B8093A5020895D4
:1054C00080959091A50298239093A502089510923B
:1054D000A50208959091A402892B8093A4020895B7
:1054E00080959091A40298239093A402089510921D
:1054F000A402089580918302089508950C947D2A52
:1055000090918202981721F0809382020C947E2A57
:10551000089580918202882329F01092820280E00F
:105520000C947E2A089508950C94932ACF93C82F43
:105530008091CC0282FD10C0809183028C1761F0B3
:105540000E94EB2C9093810280938002C09383028F
:105550008C2FCF910C94942ACF910895809183023F
:10556000882349F0109283021092810210928002E7
:1055700080E00C94942A0895E0910C01F0910D01C3
:105580008091A6028083E0910C01F0910D01808151
:105590009091A502892B8083E0910C01F0910D017F
:1055A00080819091A402892B80838091830288233B
:1055B000E9F08091090390910A03892B29F00E9458
:1055C000E12981110E94AE2AE0910C01F0910D01B8
:1055D000808190918302892B808380910C0190912E
:1055E0000D010E94F42B81110E94AE2A80910C01C2
:1055F00090910D010C94961D08950C94FC2A9091A5
:10560000CC0292FD16C098E0899F90011124622B74
:1056100060937F020E9461280E94EB2C90937E028F
:1056200080937D0280917F028595859585950C9468
:10563000FD2A0C94612810927F0210927E02109233
:105640007D0280E00C94FD2A90917F028095892351
:1056500080937F02282F277039F4282F082E000C02
:10566000330B9217130621F49091CC0292FF07C0DE
:105670008595859585950E9482280C941B2B08950D
:1056800080E008956FEF7FEF90E080E00C9430357C
:1056900090E080E00E940C3521E08A3E9E4F09F0A8
:1056A00020E0822F089582E090E00C94043583E09E
:1056B00090E00C940435CF9384E090E00E94043590
:1056C000C82F82E290E00E940435982F8C2FCF9152
:1056D0000895CF93C92F682F84E090E00E9412357F
:1056E0006C2F82E290E0CF910C941235AB01BC019B
:1056F0008FE090E00C942435AB01BC0183E190E095
:105700000C94243560E070E0CB010C947C2B60E0BD
:1057100070E0CB010E94762B0C94822B6AEE7EEF18
:1057200090E080E00E94303560E082E090E00E94EE
:10573000123560E083E090E00E9412351092790209
:1057400010927A0210927B0210927C0260E084E058
:1057500090E00E94123560E082E290E00E941235F3
:1057600060E085E090E00E94123560E086E090E025
:105770000E9412356FEF87E090E00E94123540E002
:1057800050E0BA0188E090E00E94243560E08DE0AE
:1057900090E00E94123540E050E0BA0188E190E0CC
:1057A0000E94243560E087E190E00E94123540E0DD
:1057B00050E0BA018CE190E00E94243570E060E096
:1057C00080E290E00E94303540E050E0BA0188E18C
:1057D00090E00E9424350C94872B0C948E2B682F1C
:1057E0008EE090E00C941235FC0132968091180105
:1057F000882321F08091CB029EE187FF96E080E034
:10580000915008F4089521912223D1F38F5FF8CFAE
:10581000662301F1209118012223F1F02091CB029F
:1058200027FF1AC0462F4695469546954E3190F46F
:10583000677021E030E002C0220F331F6A95E2F763
:10584000840F911DFC01828190E02823392381E09F
:10585000232B69F480E00895FC013296089621918B
:10586000261721F0E817F907D1F7F4CF81E0089562
:105870009C01FC0132969FEF80E04191461751F068
:105880009F3F19F4411101C0982F8F5F8630A9F70F
:105890009F3F09F40895290F311D97FD3A95F901AD
:1058A00062830895FC01329608962191261303C065
:1058B000DF0111971C92E817F907B9F70895E62F51
:1058C000E695E695E695EE3168F4E80FF92FF11DBF
:1058D000677021E030E001C0220F6A95EAF782810B
:1058E000822B82830895E62FE695E695E695EE31C4
:1058F00070F4E80FF92FF11D677021E030E001C06E
:10590000220F6A95EAF72095828128232283089541
:1059100020911801222329F02091CB0227FD0C941D
:105920005F2C0C94382C20911801222329F020910F
:10593000CB0227FD0C94732C0C94522CFC01329654
:1059400080911801882351F08091CB0287FF06C017
:105950008EE1DF011D928A95E9F7089586E0F9CF7F
:1059600008950C94B02C0E948A200E948A1D0E94E7
:10597000A3070C94B12C1F921FB61F9211248F9372
:105980009F93AF93BF938091A802811113C0809120
:10599000290390912A03A0912B03B0912C034196E7
:1059A000A11DB11D8093290390932A03A0932B037B
:1059B000B0932C03BF91AF919F918F911F901FBE09
:1059C0001F90189582E084BD93E095BD9AEF97BD36
:1059D00080936E0008952FB7F894809129039091D9
:1059E0002A03A0912B03B0912C032FBF08952FB74A
:1059F000F8946091290370912A0380912B03909170
:105A00002C032FBF08959C014FB7F8948091290370
:105A100090912A03A0912B03B0912C034FBF821BBE
:105A2000930B089578941F921FB61F9211248F93A1
:105A30009F93AF93BF938091290390912A03A091E4
:105A40002B03B0912C030196A11DB11D8093290356
:105A500090932A03A0932B03B0932C03BF91AF9193
:105A60009F918F911F901FBE1F90189581E080938A
:105A7000E00080E28093D8001092C9008FE19EE49C
:105A80000197F1F700C0000087E090EBDC01809304
:105A90003A0390933B03A0933C03B0933D0388E10A
:105AA0009CE00FB6F894A895809360000FBE909389
:105AB0006000FFCF9093BD018093BC010895809159
:105AC000C9020895CF93DF9300D00F92CDB7DEB710
:105AD00090913103943011F589837B836A8390938D
