:100000000C94C8030C940F040C940F040C940F046C
:100010000C940F040C940F040C940F040C940F0414
:100020000C940F040C940F040C94A2310C947632AF
:100030000C940F2C0C940F040C940F040C940F04CC
:100040000C940F040C940F040C940F040C940F04E4
:100050000C940F040C94662C0C940F040C940F0455
:100060000C940F040C940F040C940F040C940F04C4
:100070000C940F040C940F040C940F040C940F04B4
:100080000C940F040C940F040C940F040C940F04A4
:100090000C940F040C940F040C940F040C940F0494
:1000A0000C940F040C940F040C940F0429001A00F4
:1000B00015001C000C0013002A005F0061001400F2
:1000C00008001700180012002F0000006000A800B0
:1000D0002B42160009000B000E00330001515C009A
:1000E0005E00040007000A000D000F00344200000B
:1000F0005D004600E1001B001900110036003800C9
:10010000520059005B001D0006000500100037007A
:10011000280000005A005500E000025100000000D5
:100120000351E70000004F006300E2002C42000092
:100130002C4303515000510062005843005C3B00C7
:100140003D003F00410043004C004A004B003A0094
:100150003C003E0040004200300000000000000073
:100160003900450000000000000000000000000011
:10017000000044000000000000000000000000003B
:10018000000055000100000047004900E3000000A6
:100190004B004D004E000000460048006500E7009F
:1001A0000100000000005400E40001000000000015
:1001B0000100010000004D004C00010000000000A3
:1001C000000001004A004E0049002E0035001F00CB
:1001D00021002300250027002E00000000001E0043
:1001E00020002200240026002D0000000000000056
:1001F00035021F022102230225022F0031000000D8
:1002000000001E022002220224022D023000000003
:1002100000000000010000000000000000000000DD
:10022000000000000000640000000000000000006A
:1002300001000000000000000100010000000000BB
:1002400001000100000000000000010000000000AB
:1002500000000100000000000000000035021F0245
:1002600021022302250227022E02530055001E02FE
:1002700020022202240226022D0200005400000067
:10028000010000000000000000002F0231024600C3
:1002900048000000000000000000000030020000E4
:1002A0004700000001000000000000000000000006
:1002B00000000000000064020000000000000000D8
:1002C000010000000000000001000100000000002B
:1002D000010001000000000000000100000000001B
:1002E000000001000000000000000100000000000C
:1002F000000000002A2B2800000000000000000081
:100300000000000000000029000000002C1E342026
:10031000212224342627252E362D3738271E1F204C
:100320002122232425263333362E37381F04050691
:100330000708090A0B0C0D0E0F10111213141516D5
:100340001718191A1B1C1D2F3130232D35040506D3
:100350000708090A0B0C0D0E0F10111213141516B5
:100360001718191A1B1C1D2F3130354C00000000C6
:10037000000000000000000000000000000000007D
:10038000000000000000000000000000000000006D
:100390007E0F00D4FFFFFFC700000078FD377A58BA
:1003A0005A000004E6D6B4460200210116000000FF
:1003B000742FE5A3E002EE01355D003D8889C65447
:1003C00036C3174FE4E176CBBFB38935FC70D6EF67
:1003D000122923CFCDC46A1EAC923A7DE2069E94C8
:1003E0007A8EFC5602FF7703C4B750C704F074F44A
:1003F000A0C7A56850966F330EB42093728B134B31
:100400002F18497FE6E823765F5F3015CA1B2EEA76
:1004100032C2E5CCE2106E215606C64F60901697A8
:10042000A4C849295C53F45AAAB4AF43178C827408
:100430001BDF6B1FC9482D032FBFA5E12C5EA0AAAF
:100440003BCF3ECD5D95B544D0C66BA79BEB0A0173
:100450007C721341FC0B7A5FFC0B6823CCCEA62E7A
:1004600043367BDB33123107A4E4C3841EA3FE644E
:100470005BEFEC79E53AC83BB9044C452A3F62880A
:10048000F8B0565528B3E1835EB8461260F934D609
:10049000163B06DA9CDC2A633C450125A6B8E87DBC
:1004A000B3FD41C02C124BD875D409869B245E8EB7
:1004B0009B278734D89EE8C9F46FE4669A69AEEF4B
:1004C0006C833CA3E203D2F5F1F7B63F62222BAD79
:1004D000EFA44313B1FCF3252B638ADCE70FB3F2DF
:1004E000A71921EE09D209CFF2167F15B179730B46
:1004F000000000002708241E14EA6F040001D10246
:10050000EF050000B2DB20E8B1C467FB0200000089
:100510000004595A010001003E03000002000200DD
:100520003A030000030001003F0300000400020042
:100530002403FE1505000100400300000600020030
:1005400026030000070002003C0300000800010031
:1005500041030000090002002803D9150A00020027
:100560002A03D9150B0002002C03D9150C00020038
:100570002E03D9150D0002003003D9150E0002001C
:100580003203D9150F0002003403D9151000020000
:100590003603D915110002003803D91512000200E4
:1005A0004203000013000200440300001C03760015
:1005B000690061006C003A00660036003400630098
:1005C0003200620033006300000018034B0061003A
:1005D0007300740065006E007700610067006500BD
:1005E0006E0000001A034E006F00500075006E0090
:1005F00049006E00310030004400690064000000D2
:100600000403090409025B00030100A0FA090400C5
:10061000000103010100092111010001224000072E
:1006200005810308000A0904010002030000000913
:100630002111010001222200070582032000010789
:100640000503032000010904020001030000000962
:10065000211101000122BC000705840320000A12B9
:1006600001100100000008504E574B010001020329
:10067000010660FF0961A1010962150026FF0095CE
:1006800020750881020963150026FF009520750872
:100690009102C005010902A10185020901A100051D
:1006A0000919012905150025019505750181029596
:1006B00001750381010501093009311581257F95F7
:1006C000027508810609381581257F950175088115
:1006D00006050C0A38021581257F950175088106EB
:1006E000C0C005010980A101850319012AB70015C1
:1006F0000126B700950175108100C0050C0901A104
:1007000001850419012AA002150126A00295017590
:10071000108100C005010906A1018505050719E042
:1007200029E71500250195087501810205071900C3
:1007300029EF1500250195F07501810205081901C1
:100740002905950575019102950175039101C00573
:10075000010906A101050719E029E7150025019502
:1007600008750181029501750881010507190029A5
:10077000FF150026FF009506750881000508190180
:100780002905950575019102950175039101C00038
:1007900011241FBECFEFDAE0DEBFCDBF04B603FEEB
:1007A00027C08091570390915803A0915903B091AD
:1007B0005A038730904BA740B04BD1F410925703A7
:1007C000109258031092590310925A0314BE84B722
:1007D000877F84BF0FB6F894A895809160008861E8
:1007E00080936000109260000FBEE0E0F8E309958E
:1007F00011E0A0E0B1E0E0E1FAE602C005900D9260
:10080000A83BB107D9F723E0A8EBB1E001C01D92E6
:10081000A735B207E1F70E945C2E0C94D0340C94FB
:100820000000209A549A3E9A0895CF92DF92EF9258
:10083000FF926B017C010E94BA068370823041F006
:10084000833081F0813089F428985C98469A03C0FF
:1008500028985C9A4698C701B601FF90EF90DF9008
:10086000CF900895289A5C98F5CF289A5C9AEECF9D
:100870008091BC01882371F08091BA019091BB01F5
:100880000E94572C833E944028F082EE0E94EB1E7B
:100890001092BC010895CF93DF939C013A952115E6
:1008A0003F4168F5EC01CC27D170DC01AA27B2707A
:1008B000AC01442754709C012227387094FF11C06A
:1008C00080E1CD2B09F480E0AB2B09F08062452B51
:1008D00009F08064232B09F08068FB01DF91CF9140
:1008E000099481E0CD2B09F480E0AB2B09F0826004
:1008F000452B09F08460232B81F38860EECFDF91D4
:10090000CF910895CF93DF93EC01805E9109089712
:1009100020F062E77FE1209711F464E67FE1CE01E9
:100920000E944B048C2FDF91CF910C94591ECF93D2
:10093000DF93EC010E94EB1ECE01805E91090897C7
:1009400020F069E77FE1209711F46BE67FE1CE01AB
:10095000DF91CF910C944B0481E0089581E00895DC
:100960000C94AE0408950C94B2041F93CF93DF93BC
:1009700000D000D00F92CDB7DEB749835A836B8386
:1009800030911A0289819A8131111DC06623B9F014
:100990002223A9F00E946628182F682F89819A8146
:1009A0000E94092869817A81812F0F900F900F9002
:1009B0000F900F90DF91CF911F910C94C0140E9463
:1009C0003928182FEFCF0E94662869817A81EDCFF0
:1009D000FC01262F408151816281738184810C94B6
:1009E000B504CF93DF93EC0160E00E94E804BE0100
:1009F000DF91CF910C94B3048F929F92AF92BF92EC
:100A0000CF92DF92EF92FF920F931F936B017C01C5
:100A100081E090E0A0E0B0E04C015D0104C0880CF2
:100A2000991CAA1CBB1C4A95D2F7B501A4014C0124
:100A30005D0104C0880C991CAA1CBB1C2A95D2F726
:100A4000482959296A297B2904C0880F991FAA1FA0
:100A5000BB1F0A95D2F78A019B010C211D212E2173
:100A60003F21041715072607370789F48C299D298C
:100A7000AE29BF29BC01CD011F910F91FF90EF90CE
:100A8000DF90CF90BF90AF909F908F90089580950A
:100A90009095A095B0958C219D21AE21BF21EACFE4
:100AA0000F93382F262F60918202709183028091DC
:100AB000840290918502042F432F0E94FC040F9121
:100AC0000C9447270E9429090C944E090E94A119F1
:100AD0000E947D1B0C94500908950E94961F0E944D
:100AE0006C052FEF84E39CE0215080409040E1F7BB
:100AF00000C000000C948A2C0F931F93CF93DF93B8
:100B0000EC018B010E94830E882309F448C0B801D0
:100B1000CE010E94B004882309F441C0B801CE017F
:100B20000E94CC198823D9F1B801CE010E94E01BA4
:100B30008823A9F1B801CE010E94B717882379F163
:100B4000B801CE010E940918882349F1B801CE01ED
:100B50000E942C19882319F1F8018281882361F001
:100B6000CA35FDE5DF0721F170F4C115ECE5DE07BC
:100B7000A1F0CE3DDC45C9F0C801DF91CF911F91B6
:100B80000F910C94AC04CB358DE5D807A1F0CC3592
:100B9000DD4591F70E944429EFCF0E946D0580E06A
:100BA000DF91CF911F910F9108950E94F92AF7CFFD
:100BB0000E944D29E1CF0E945029DECFCF93DF93D1
:100BC000EC0161E00E94E804BE01DF91CF910C943A
:100BD0007C05DF92EF92FF920F931F93CF93DF93E9
:100BE000E82FF0E0E451FD4FD490282F269526956C
:100BF000269530E0F901E457FC4F0491877010E02E
:100C0000082E02C0159507950A94E2F70170112786
:100C1000F901E458FC4FE490F12C082E02C0F59441
:100C2000E7940A94E2F791E0E922FF24F901E459FC
:100C3000FC4FC491D0E002C0D595C7958A95E2F7E4
:100C4000C170DD270115110519F081EE0E94591EB2
:100C5000E114F10419F086EE0E94591E8D2D0E94B8
:100C6000581FEF2819F086EE0E94EB1E012B19F099
:100C700081EE0E94EB1ECD2B51F08CE2DF91CF91E3
:100C80001F910F91FF90EF90DF900C94581FDF9110
:100C9000CF911F910F91FF90EF90DF900895EF9209
:100CA000FF920F931F93CF93DF93EC01162F0AE06F
:100CB0008881882309F454C0813009F04EC08981AD
:100CC000813099F47E0122E0E20EF11C8A810E94BB
:100CD000581FE7012196812F815050F3EFE9FFE083
:100CE0003197F1F700C00000F7CF823041F47E0168
:100CF00082E0E80EF11C8A810E94591EEACF8330FF
:100D000041F47E01E2E0EE0EF11C8A810E94EB1EAE
:100D1000E0CF843011F02196DDCF2A81229690E039
:100D200080E0AE014F5F5F4F2053330B2A30310517
:100D300048F0019778F2EFE9FFE03197F1F700C052
:100D40000000F7CF089FB001099F700D1124C90161
:100D5000860F971F2981EA01E4CF0E94E905BACFE7
:100D6000DF91CF911F910F91FF90EF90089560E078
:100D70000C944F06CF92DF92EF92FF926C01EE241B
:100D8000FF2420E0C114D104E104F10419F0C701EB
:100D9000B60120E1C72ED82EE92EFF24C114D104BC
:100DA000E104F10419F0285FC701B6016B017C0171
:100DB00054E0F694E794D794C7945A95D1F7C114A8
:100DC000D104E104F10419F02C5FC701B6016B01F5
:100DD0007C0142E0F694E794D794C7944A95D1F702
:100DE000C114D104E104F10419F02E5FC701B6016A
:100DF0009695879577956795672B682B692B09F0F2
:100E00002F5F822FFF90EF90DF90CF90089508958D
:100E10000C94070781E008950C940A07CF93C82F1C
:100E20000E9408078C2FCF910C940C0790E080E073
:100E300008950895FC01EE0FFF1FE456FC4F8591C5
:100E400094910895CF93DF930E94C0140E943708B5
:100E5000EC01811520E5920708F042C0811530E4CD
:100E6000930708F0BDC0883E910528F5803E9105A6
:100E700008F09DC0883A910588F4853A910508F0FC
:100E80008FC08130910509F492C0009709F48FC09A
:100E9000049708F08CC0D0E0C0E089C08F3B91057A
:100EA00008F489C0805C9109C03CD105A0F30E9480
:100EB0001A07EC017CC08115904250F4C11581E005
:100EC000D80708F074C0C03FD10528F3D0656FC0C3
:100ED000C11590E3D90708F079C0CE019F70E7CF24
:100EE000811525E5920758F5811534E5930708F03B
:100EF000A6C0811542E5940750F4C11581E5D807D5
:100F000008F471C0DC2FCC27C16FD06A50C0982F75
:100F1000969596959E0123703327C115D34508F009
:100F20007FC0C1E0D0E002C0CC0FDD1F2A95E2F700
:100F300020E2929FC0011124C82BD92B6FC0C1158C
:100F400089E5D807A8F4C11598E5D90708F07CC051
:100F5000C11526E5D20708F09ECF8C2F0E94CE083F
:100F6000C82FD0E0DC2FCC27CC27DF71D0621FC088
:100F7000C1153AE5D30708F46CC0CE01905681152F
:100F8000904208F088CF8D2F8F710E94CE0890E09C
:100F9000982F882788279F719C012C2BE901E6CF89
:100FA000C55AD0E0C15BDE4FC881D0E0D064CE012D
:100FB000DF91CF910895C85AD0E0CC0FDD1FCF5DEF
:100FC000DE4F0990D881C02DD464F1CFCE0199278E
:100FD000D3FF03C0EC01D86CEACFEC01D06CE7CFB3
:100FE000DF70D06AE4CFCE01E4E096958795EA956C
:100FF000E1F783702C2F26952695237090E2299F88
:1010000090011124382B8C2F8370C1E0D0E002C0F6
:10101000CC0FDD1F8A95E2F7C22BD32BDC68C7CF3C
:10102000C1E0D0E002C0CC0FDD1F2A95E2F730E22C
:10103000939FC0011124C82BD92BDA68B8CFD82FC1
:10104000CC27C46FD06AB3CFDC2FCC27C06FD06A57
:10105000AECF8C2F8F700E94CE0834E0D695C79506
:101060003A95E1F7CF709C2FEC01D069A0CF823880
:101070009105B1F1B0F48133910509F475C048F4DC
:101080008932910509F469C08A32910509F473C067
:1010900008958533910509F459C08933910501F10B
:1010A0000895833E9105A9F138F4803E9105F9F049
:1010B000823E910549F10895863E9105A9F1873E4A
:1010C0009105C9F1843E910519F52091D90221FFBE
:1010D0001FC08091D80284FD14C087EE90E008956F
:1010E0002091D8022370A1F080EE90E00895209125
:1010F000D80220FD47C03091D90230FF09C024FF3B
:1011000044C090E080E004C02091D80222FDF7CFD7
:1011100008952091D80222FD3BC03091D90230FDC4
:10112000E3CF24FFF5CFEDCF2091D80223FFF0CFFE
:1011300024FDE7CFD2CF2091D80223FD2CC03091DF
:10114000D90231FFEECF84EE90E008952091D802CD
:1011500025FFDECF89E290E008952091D80225FF97
:10116000D7CF85E390E008952091D80226FFD0CF15
:101170008AE290E008952091D80226FFC9CF81E34A
:1011800090E0089589E390E0089583EE90E008955B
:1011900082EE90E0089586EE90E008959091D80256
:1011A00092FF06C0282F28712830F9F4877F8460C9
:1011B00093FF06C0282F28712831F1F4877E8461BF
:1011C0002091D90220FF06C0382F38713830D9F469
:1011D000877F816021FF06C0282F28712831D1F434
:1011E000877E816194FD877E0895282F24712430A5
:1011F000F9F68B7F8860DCCF282F2471243101F72A
:101200008B7E8861DDCF382F3171313019F78E7FB9
:101210008860E0CF282F2171213121F78E7E8861EF
:10122000E1CF0C945D0E0E94B8098FE39CE9019711
:10123000F1F700C000000E94B80980E00E94680930
:1012400080FF04C00E9411090C948A2C08950C940C
:1012500013090E94542A811102C00E94F92A0E9497
:101260005F2A8093B4020E94672A9093D9028093E8
:10127000D8020E9427090E94632A682F70E090E03C
:1012800080E00E940D27609182027091830280911C
:101290008402909185020C94452708950C944D0981
:1012A0000C943804E82FF0E0EE0FFF1FE651FD4FDD
:1012B00021E030E002C0220F331F6A95E2F78081FF
:1012C00091812823392381E0232B09F480E00895BC
:1012D000E82FF0E0EE0FFF1FE651FD4F8081918176
:1012E0000895089580EA8A95F1F7089500C0089559
:1012F0000C947209F894E82FE295EF70F0E031A1B8
:10130000282F2F7081E090E001C0880F2A95EAF71E
:10131000982F9095932391A392A1892B82A37894DF
:101320000895CF93DF93CBE5D1E089910E947A09AC
:1013300081E0C336D807C9F7C2E5D1E089910E94A0
:101340007A0981E0CB35D807C9F7EAEDF2E0AAEED9
:10135000B2E0119211921D921D9282E0EA3EF807CE
:10136000C1F788E00E94380ADF91CF910C946205A2
:10137000AF92BF92DF92EF92FF920F931F93CF93A2
:10138000DF93CBE5D1E00AED12E0D12CEE24E3941B
:10139000F12C8991F894E82FE295EF70F0E021A10B
:1013A0008F70A70102C0440F551F8A95E2F7CA014A
:1013B000922F982B91A392A18095892382A3789450
:1013C0000E947609E2E5F1E030E020E0B12CA12CAA
:1013D0004191A42FA295AF70B0E090968C9190E0CF
:1013E0004F7002C0959587954A95E2F780FD3BC006
:1013F000C701022E02C0880F991F0A94E2F7A82A9B
:10140000B92A2F5F3F4F2930310511F7FE0131977F
:1014100080810E947A090E947809F8018081918177
:10142000A816B90619F1B182A08281E0D82A0E5F10
:101430001F4FF1E0C336DF0709F0ABCF2D2D48E099
:101440006AEE72E08AED92E00E94390A0E94660517
:101450008D2DDF91CF911F910F91FF90EF90DF9035
:10146000BF90AF90089590E080E0C9CF80E0DECFDC
:101470000895FF920F931F93CF93DF93F82E092FB8
:10148000162FD72FC42F222349F081E08093BF016C
:101490000E943F2C9093BE018093BD018091BF01BB
:1014A0008823A1F08091BD019091BE010E94572C2C
:1014B000069760F0EF2DF02FA12FBD2F90E080E078
:1014C000D0E08C179D0744F01092BF01DF91CF91BF
:1014D0001F910F91FF900895219131912D933D938C
:1014E0000196EFCF8091C60160912C0370912D037E
:1014F00080FF16C020910501269FC001279F900DF7
:101500001124BC01769567957695679560387105CD
:1015100008F043C06115710509F441C0862F089594
:1015200081FF0BC020910501269FC001279F900DD0
:101530001124BC0176956795E9CF82FF09C080919F
:1015400005019B01829FB001839F700D1124DECFA6
:101550002091C5012223D1F29091040180910501CF
:10156000482F50E0291748F0CB01849FB001859F98
:10157000700D949F700D1124C9CF289F90011124E4
:10158000269FA001279F500D369F500D1124692FD3
:1015900070E0CA010E942834B9CF8FE7089581E036
:1015A00008958091C60180FF0CC06091010170E038
:1015B00075956795759567956115710549F1862F44
:1015C000089581FF06C06091010170E075956795EF
:1015D000F3CF6091010182FD0BC09091C40199236A
:1015E000A1F06091000180910101961738F0682FF9
:1015F00070E06038710500F38FE70895899FC0019E
:10160000112470E00E943C34F4CF61E070E0D7CF49
:1016100081E00895803F31F40E94720A81958093A1
:10162000CA010895813F19F40E94720AF8CF823FDF
:1016300031F40E94720A81958093C9010895833F15
:1016400019F40E94720AF8CF893F29F40E94D10A46
:101650008093CB0108958A3F21F40E94D10A81959D
:10166000F7CF8B3F31F40E94D10A81958093CC0152
:1016700008958C3F19F40E94D10AF8CF843F31F4C9
:101680008091C80181608093C8010895853F21F44D
:101690008091C8018260F7CF863F21F48091C80114
:1016A0008460F1CF873F21F48091C8018860EBCF3F
:1016B000883F21F48091C8018061E5CF8D3F31F4EE
:1016C0008091C60181608093C60108958E3F21F408
:1016D0008091C6018260F7CF8F3FB9F78091C60134
:1016E0008460F1CF9091C901803F59F48091CA0183
:1016F00087FF0DC01092CA0191110BC01092C50155
:1017000008C0813F81F48091CA0118169CF3992387
:1017100081F08091CB019091CC01892B09F064C0BC
:101720001092C4010895823F49F497FFF0CF1092C0
:10173000C9018091CA018111ECCFE0CF833F19F438
:101740001916ACF3E4CF2091CB01893F29F412168E
:10175000F4F61092CB01DBCF8A3F19F427FFD7CFE5
:10176000F8CF2091CC018B3F29F427FFD0CF1092E6
:10177000CC01CDCF8C3F19F41216CCF3C8CF843FE7
:1017800031F48091C8018E7F8093C801C0CF853F1E
:1017900021F48091C8018D7FF7CF863F21F480919D
:1017A000C8018B7FF1CF873F21F48091C801877FEB
:1017B000EBCF883F21F48091C8018F7EE5CF8D3F2C
:1017C00031F48091C6018E7F8093C601A0CF8E3FF9
:1017D00021F48091C6018D7FF7CF8F3F09F097CF1D
:1017E0008091C6018B7FF0CF08950E943F2C9C0111
:1017F0009091C9018091CA01982B21F03093C301C7
:101800002093C2019091CB018091CC01982B21F0C3
:101810003093C1012093C00187EC91E00C94AD1C82
:10182000EF92FF920F931F93CF93DF9300D000D0DE
:1018300000D0CDB7DEB786E0E7ECF1E0DE0111962F
:1018400001900D928A95E1F7E090C901F090CA01EC
:101850000091CB011091CC011092C9011092CA01E4
:101860001092CB011092CC018E2D8F2991F0809196
:10187000C2019091C3010E94572CAC019091C50107
:10188000992309F43FC0809106018417150608F4D6
:1018900047C0802F812B91F08091C0019091C101B0
:1018A0000E94572CAC019091C401992309F477C090
:1018B000809102018417150608F47FC08091C90148
:1018C0009091CA01892B9091CB01892B9091CC01E9
:1018D000892B11F00E94F50B86E0FE013196A7ECF2
:1018E000B1E001900D928A95E1F726960FB6F89433
:1018F000DEBF0FBECDBFDF91CF911F910F91FF9043
:10190000EF900895209107018AE0289F900111240B
:101910002417350708F0BDCF9F5F9093C50102C023
:101920009F3FD1F7EE2059F00E94720A9FEF1E14DC
:101930000CF491E0899F802D11248093C901FF2030
:1019400059F00E94720A9FEF1F140CF491E0899FD6
:10195000802D11248093CA013091C901332309F4E9
:1019600098CF2091CA01222309F493CF45EB340389
:10197000C0011124992359F09093C90145EB240328
:1019800090011124332339F03093CA0182CF81E0D2
:101990008093C901F3CF81E08093CA017ACF20916F
:1019A00003018AE0289F900111242417350708F0CD
:1019B00085CF9F5F9093C40102C09F3FD1F7002362
:1019C00059F00E94D10A9FEF10160CF491E0899F04
:1019D000802D11248093CB01112359F00E94D10A4C
:1019E0009FEF11160CF491E0899F802D11248093B4
:1019F000CC013091CB01332309F460CF2091CC018D
:101A0000222309F45BCF45EB3403C0011124992351
:101A100059F09093CB0145EB24039001112433231B
:101A200039F03093CC014ACF81E08093CB01F3CFE2
:101A300081E08093CC0142CF86E0E7ECF1E0DF016A
:101A40001D928A95E9F71092C5011092C401109277
:101A5000C6010895AF92BF92CF92DF92EF92FF92AC
:101A60000F931F93CF93DF93A5E7B1E023E731E016
:101A700081EDA82E81E0B82E67E771E041E050E0EB
:101A80000D91802F82958F7090E0FC01C1A10F70A5
:101A90007A01002E01C0EE0C0A94EAF7FE2DF095B3
:101AA000CF23FC01C1A3C2A1CE29C2A3E901199190
:101AB0009E01E12FE295EF70F0E0F1A01F706A0146
:101AC000012E01C0CC0C0A94EAF7EC2CE094EF2034
:101AD000E1A2F2A0FC28F2A2EC0188A190E002C0F1
:101AE000959587950A95E2F78170E0A1F0E002C034
:101AF000F595E7951A95E2F790E0E0FD92E0892BE5
:101B0000F50181935F016A177B0709F0B9CFDF9177
:101B1000CF911F910F91FF90EF90DF90CF90BF90EA
:101B2000AF9008956F927F928F929F92AF92BF92E3
:101B3000CF92DF92EF92FF920F931F93CF93DF9399
:101B400001ED11E085E7C82E81E0D82E93E7E92E5C
:101B500091E0F92E2FEC822E21E0922ECDECD1E0F7
:101B6000712C612C34E0A32EB12CD801EC91EE0F36
:101B7000EE0FED938D01D6012D916D01A22FA2954F
:101B8000AF70B0E090968C9190E02F7002C0959568
:101B900087952A95E2F781709927D7014D917D01AC
:101BA000A42FA295AF70B0E090962C9130E04F70CA
:101BB00002C0359527954A95E2F7A901417055274E
:101BC00020FF02C042E050E0842BE82BD80111979F
:101BD000EC93EF70F0E0ED59FE4F8081F4019081BD
:101BE000890F808320E0843044F088818F5F888370
:101BF00060E0872D0E94F61121E0D4018C918D3F89
:101C000044F488818150888361E0872D0E94F61119
:101C100021E0F4018081082E000C990BB5010E948F
:101C20003C34D4018D934D01622A2196B1E07B12A0
:101C300010C0862DDF91CF911F910F91FF90EF90F3
:101C4000DF90CF90BF90AF909F908F907F906F90DC
:101C500008957724739489CF83E290E00E948634BC
:101C60008F3189F484E290E00E948634873A59F4F7
:101C700085E290E00E94863491E0893209F090E09C
:101C8000892F8170089580E0FCCFCF93C82F6FEF2C
:101C900081116FE183E290E00E9494346FEFC111F3
:101CA00067EA84E290E00E9494346FEFC11169E228
:101CB00085E290E0CF910C94943480E00E94450E30
:101CC0000C944E2A089586E290E00E948634682F94
:101CD00070E090E080E0089586E290E00C94943407
:101CE0000E94620E0E942C0E81110CC060E070E018
:101CF000CB010E946C0E0E947C130E94331581E080
:101D00000C94450E0895CF93FB01C281CC2309F1B9
:101D10009C0122513F452031310520F582510E941E
:101D20004315C0E08C2FCF91089581E00E946D276C
:101D300043E062E081E00E945005F3CF81E00E9421
:101D40008E2743E062E081E00E945005EBCF82E005
:101D5000F6CF8031FFE59F0789F381319F45B9F3C5
:101D6000C1E0E0CF8031EFE59E07F9F281319F4578
:101D7000C9F682E0DBCF2FEFFC0120830895EF92BC
:101D8000FF920F931F93CF93DF93EC01162F88815F
:101D90002091D7013091D801232B79F08E3F09F0A3
:101DA0005CC08981833020F08550833008F055C0B5
:101DB000612FCE010E94611050C08B3009F4EBC03E
:101DC000D0F4843009F489C060F4823009F44FC043
:101DD00008F076C08130F1F1612FCE010E94BB0E78
:101DE0003CC0863009F48FC008F482C08A30A0F766
:101DF0008FEF888332C0803109F4A5C000F58D30A3
:101E000009F488C008F482C08E3009F48BC08F308A
:101E100019F78091D9019091DA01892BF1F06B814A
:101E200070E06D317105C8F489819A81AE014C5F13
:101E30005F4F9827892798270E9408150EC0823186
:101E400009F487C008F482C0833109F493C08E3F3F
:101E500019F6AECF198289E08A83612FCE01DF9116
:101E6000CF911F910F91FF90EF900C94512D89818C
:101E7000823071F0833079F0813009F0ADCF0E946B
:101E80004B2C0E9456346A837B838C839D83E5CFE1
:101E90000E94630EF6CF8091D9019091DA01892BCF
:101EA000E1F27E0100E0802F0E946809F701928331
:101EB00083830F5FF2E0EF0EF11C0830A1F7CDCF66
:101EC0008981823009F088CF6A817B818C819D81F4
:101ED0000E9456340E946C0EC0CF4B816A8189816A
:101EE0000E948E129827892798279D838C83B5CFCF
:101EF0002C813D813227232732274B816A818981BA
:101F00000E94B012AACF0E947C13A7CF0E94DC14BB
:101F10008983A3CF0E94DE149827892798279A8364
:101F200089839BCF6B8170E06D31710508F095CF8F
:101F300089819A81AE014C5F5F4F98278927982746
:101F40000E94E1148ACF0E94331587CF0E947C1231
:101F5000DFCF6B8170E06D31710508F07ECF898134
:101F60009A81AE014C5F5F4F9827892798270E947E
:101F7000081473CF6B8170E06D31710508F06DCF7F
:101F800089819A81AE014C5F5F4F982789279827F6
:101F90000E942E1462CF8091D9019091DA01892B91
:101FA00009F45BCFCE010E94512D2FEF81EE94E01A
:101FB000215080409040E1F700C000000E948A2C30
:101FC0004CCFCF93DF9300D000D00F92CDB7DEB7C8
:101FD0009093230380932203811520E2920748F413
:101FE0000F900F900F900F900F90DF91CF910C9466
:101FF00082048EEF89838A8381E08B830E943F2C49
:102000008160782F9D838C8349815A816B818D817A
:102010000F900F900F900F900F90DF91CF910C9435
:10202000FD1DCF93DF9300D000D00F92CDB7DEB768
:102030009093230380932203811520E2920748F4B2
:102040000F900F900F900F900F90DF91CF910C9405
:1020500097048EEF89838A831B820E943F2C8160C4
:10206000782F9D838C8349815A816B818D810F905C
:102070000F900F900F900F90DF91CF910C94FD1D5A
:10208000EAEFF2E01182108281E090E0968385838E
:1020900082E090E09387828783E090E0908B87874F
:1020A00084E090E0958B848B85E090E0928F818F27
:1020B00086E090E0978F868F87E090E094A383A3DB
:1020C0000895CF92DF92FF920F931F93CF93DF93E8
:1020D000CDB7DEB72A970FB6F894DEBF0FBECDBFDF
:1020E0008C01603269F5DC011196EC911197EE30AC
:1020F00038F5F0E0EE52FB4C0C94503488E0E9E106
:10210000F1E0DE01119601900D928A95E1F780E2EF
:10211000F80111928A95E9F784E0D8018C93119621
:102120001C92119712961C92129713961C92139759
:1021300088E0FE013196149601900D928A95E1F7A0
:102140002A960FB6F894DEBF0FBECDBFDF91CF91B8
:102150001F910F91FF90DF90CF90089588E7F801CD
:10216000808381E0818312821382EACF13968C915F
:102170001397682F70E0762F662712968C91860F42
:10218000972F911D092E000CAA0BBB0B35E0880F71
:10219000991FAA1FBB1F3A95D1F7AC01BD01405E44
:1021A0005F4F6F4F7F4F481759076A077B0740F211
:1021B0008837E1E09E07A105B10510F64937F1E047
:1021C0005F076105710520F048E751E060E070E0CD
:1021D000481B590BBC0164567C4FC8010E945D34FA
:1021E000AFCF1296FC9012971396DC9040E06D2DC5
:1021F0008F2D0E94D812982789279827F80191835C
:10220000808341E06D2D8F2D0E94D8129827892759
:102210009827D80113969C938E93129791CFFC0127
:1022200025813681322723273227448163818281A9
:102230000E940A1385CF40E250E06FEF70E00E94E9
:102240006F348091D901D8018C938091D701119678
:102250008C93119712961C92129713961C921397B7
:1022600085E014968C93149715968C9369CF81E032
:1022700090E09093D8018093D70182E390E090930F
:10228000D6018093D5010E943F2C9093D401809376
:10229000D30156CF8091D7019091D801892B91F12C
:1022A00060E080E00E945209D82E65E085E00E943F
:1022B0005209F82E8091D3019091D4010E94572C9D
:1022C0008536910550F1DD2041F1FF2031F10E946A
:1022D0003F2C9093D4018093D3018091D5019091AC
:1022E000D60101979093D6018093D501892B51F4A3
:1022F0001092D8011092D70181E090E09093DA011A
:102300008093D9018091D901F80180838091D70110
:1023100081838091D501828313CF82E390E09093F3
:10232000D6018093D501EECF1092DA011092D90137
:1023300007CF40E250E0BC0112968D919C910E9423
:102340008616FECEBC016F5F7F4F4FE150E0FC016F
:10235000828193810E94B816D8018C93F1CEBC0182
:102360006C5F7F4F4CE150E0FC01828193810E94C1
:10237000E016F2CF0E944516E3CEFC018281833045
:1023800061F0843009F18111DBCE80E21D928A95E3
:10239000E9F7108288E08183D3CE13968C919AE07E
:1023A000F92EFE0131966F01DF01EF2D1D92EA95A6
:1023B000E9F7B6010E945413D8018D93F6010190FC
:1023C0000D92FA94E1F7BCCE13968C919AE0349674
:1023D000DE01119601900D929A95E1F7BE016F5FB3
:1023E0007F4F0E946813F8018083AACEAF92BF92FC
:1023F000CF92DF92EF92FF920F931F93CF93DF93D1
:10240000B82EA62EC0908202D0908302E090840263
:10241000F09085028091860290918702A0918802B7
:10242000B0918902C82AD92AEA2AFB2ACFE1D0E052
:10243000D701C6010C2E04C0B695A7959795879530
:102440000A94D2F780FF20C04A2D6B2D8C2F0E945A
:10245000D8128C0181309105B9F00E94E10F8FE311
:102460009CE90197F1F700C00000C8010E9411101B
:1024700081E0DF91CF911F910F91FF90EF90DF905E
:10248000CF90BF90AF900895219790F64A2D6B2D75
:1024900080E00E94D812EC010E94E10F8FE39CE9DA
:1024A0000197F1F700C00000CE01E0CF1F93CF935A
:1024B000DF93CDB7DEB72A970FB6F894DEBF0FBE15
:1024C000CDBF162FBE016F5F7F4F0E945413892B23
:1024D00031F489859A85112361F00E94E10F2A96D3
:1024E0000FB6F894DEBF0FBECDBFDF91CF911F9125
:1024F00008950E941110F3CF84E0089550E0440F36
:10250000551F92E1699F400D511D112490E9899F4B
:10251000400D511D1124CA01879608950F931F93F2
:10252000CF93DF938430C8F46830B8F44930A8F40E
:102530000E947E128C010E948634C82FD0E0DC2FCE
:10254000CC27C80101960E9486349E01282BC90120
:10255000DF91CF911F910F91089590E080E0F8CF27
:102560000F931F93CF93DF93E9018430E0F4683039
:10257000D0F44930C0F421153C4531F42091D90103
:102580003091DA01232B79F00E947E128C016D2F9D
:102590000E9494346C2FC8010196DF91CF911F9156
:1025A0000F910C949434DF91CF911F910F91089566
:1025B0000F931F93CF93DF93843048F5623038F543
:1025C000423028F528E0829FC001112434E0639F47
:1025D000B0011124860F971FC42FD0E0CC0FDD1F50
:1025E000C80FD91FC959DD4FCE010E948634082F6C
:1025F00010E0102F0027CE0101960E94863498012A
:10260000282BC901DF91CF911F910F91089590E080
:1026100080E0F8CF0F931F93CF93DF93890184302D
:1026200068F5623058F5423048F501152CE512077F
:1026300031F42091D9013091DA01232BF9F028E00F
:10264000829FC001112424E0629FB0011124860FF3
:10265000971FC42FD0E0CC0FDD1FC80FD91FC95959
:10266000DD4F612FCE010E949434602FCE01019680
:10267000DF91CF911F910F910C949434DF91CF9102
:102680001F910F9108958232910520F489579D4F33
:102690000C94863480E008958232910520F48957A5
:1026A0009D4F0C94943408959B01883070F49AE007
:1026B000899FB001112467557D4F4AE050E0C90160
:1026C0000E94763490E080E008958FEF9FEF0895A8
:1026D0009B01883070F49AE0899FB00111246755FE
:1026E0007D4F4AE050E0C9010E94B83490E080E09C
:1026F00008958FEF9FEF08957F928F929F92AF92F0
:10270000BF92CF92DF92EF92FF920F931F93CF93DE
:10271000DF93CDB7DEB72A970FB6F894DEBF0FBEB2
:10272000CDBFA090D901B090DA0181E090E0909304
:10273000DA018093D9018CEAC82E80E0D82E10E00F
:10274000760100E015C0F40125913491472D602FEA
:10275000812F0E94B01282E0880E911C739499E040
:102760007912F1CFE2E1EE0EF11C0F5F083019F0A3
:102770004701712CE8CF21E030E040E060E0812F9C
:102780000E940A1321E030E041E060E0812F0E94C6
:102790000A1321E030E040E061E0812F0E940A133B
:1027A00021E030E041E061E0812F0E940A131F5FC9
:1027B000F0E9CF0ED11C143009F0C2CF0E944516AB
:1027C000CE0101967C018AE0F70111928A95E9F722
:1027D00010E0B701812F0E9468131F5F1830C9F7FE
:1027E000B092DA01A092D9012A960FB6F894DEBF12
:1027F0000FBECDBFDF91CF911F910F91FF90EF9052
:10280000DF90CF90BF90AF909F908F907F90089572
:10281000EF92FF920F931F93CF93DF93EC018A0106
:102820007C01E60EF71ECE018796CE15DF0539F442
:10283000DF91CF911F910F91FF90EF900895C034D9
:1028400022E0D20740F40E948634F80180830F5FB3
:102850001F4F2196E8CFF8011082F9CF4F925F9277
:102860006F927F928F929F92AF92BF92CF92DF92A0
:10287000EF92FF920F931F93CF93DF93EC017B01B5
:102880008A0180349240D8F480E492E08C1B9D0B46
:1028900086179707A0F03E0137E2630E711C809106
:1028A000D9019091DA012E01460E571E892BC1F0F5
:1028B0007E01C7018796E414F50409F050C0DF914A
:1028C000CF911F910F91FF90EF90DF90CF90BF902D
:1028D000AF909F908F907F906F905F904F900895F2
:1028E0006E0181E0C822DD24C0FF0FC0CE018696B4
:1028F0000E948634F80190818927982789278115BD
:102900009C4519F48FEFF8018083570140FE13C0F6
:10291000F1E0AF1AB10848018A0C9B1CC3018E0D6F
:102920009F1D0E948634F401908181159C4519F405
:102930008FEFF4018083F801EC0DFD1D2FEFCA1419
:10294000DB0408F0B5CF9081818181159C4511F49D
:102950002083218382E0C80ED11C3296F0CFE0E4C0
:10296000EE16E2E0FE0640F4F701EC1BFD0BE00F73
:10297000F11F60810E949434FFEFEF1AFF0A99CF94
:10298000462F2091D7013091D801232B91F47E3F1F
:1029900039F46E3F71F480912203909123030895DE
:1029A000843038F4783028F4693018F4672F0C94A8
:1029B0008E1290E080E0089580E1089587E091E034
:1029C0000895EF92FF920F931F93CF93DF93EC0143
:1029D0008A017C01E60EF71ECE0187509D4FCE1571
:1029E000DF0539F4DF91CF911F910F91FF90EF90A8
:1029F0000895C73021E0D20740F40E948634F801E0
:102A000080830F5F1F4F2196E7CFF8011082F9CF27
:102A1000CF92DF92EF92FF920F931F93CF93DF93AA
:102A20007C016A018C01060F171FEC01CE01875053
:102A30009D4FC017D10749F4DF91CF911F910F919E
:102A4000FF90EF90DF90CF900895C73021E0D2073C
:102A500040F4FE01EE19FF09EC0DFD1D60810E949E
:102A600094342196E3CFCF93DF93C9EFD2E060E0B7
:102A7000CE010E9494342196C11584E0D807B9F79D
:102A8000DF91CF910895BF92CF92DF92EF92FF92A4
:102A90000F931F93CF93DF9300D000D0CDB7DEB755
:102AA000F82E2FE0281740F08FEF93E00E94863435
:102AB00009EF12E08823D1F00F900F900F900F9044
:102AC000DF91CF911F910F91FF90EF90DF90CF900A
:102AD000BF900895011544E0140771F3C8010E94E6
:102AE0008634811101C0FA940F5F1F4FF110F2CFAD
:102AF00019821A821B821C82BB24BA9478015FEF70
:102B0000E51AF50AC8010E94863489831A8288234F
:102B100099F2813009F047C0680182E0C80ED11CEB
:102B2000C7010E948634E82E8A83882329F2C601D1
:102B30000E948634F82E8FEF8E0D833068F4680182
:102B4000E3E0CE0ED11CFB82FF2021F0CE010196E6
:102B50000E94B7068601D2CFF4E0EF12FBCF6801E6
:102B600024E0C20ED11CC80103960E948634FF20C7
:102B700009F4A2CF882309F49FCF8150990BB89E06
:102B80009001B99E300D11244F2D4150550BCA01B3
:102B9000820F931F0197F0F2EFE9FFE03197F1F711
:102BA00000C00000F7CFCE0101960E94B706670172
:102BB000D1CFE4E2F3E0848195812AE030E0B901ED
:102BC0000E942834609307018681809306018285E4
:102BD0008093050184858093040186859785B901DA
:102BE0000E942834609303018089809302018289C6
:102BF00080930101848980930001089580912403CA
:102C0000909125030C94B21B0F931F93CF93DF93E6
:102C100004E213E0D0E0C0E0CE010E944313F801CB
:102C200061918F01861719F0CE010E944C132196F5
:102C3000C232D10589F7DF91CF911F910F9108958D
:102C40000F931F93CF93DF9304E213E0D0E0C0E033
:102C5000CE010E944313F80181938F012196C23265
:102C6000D105B1F7CAE1D5E0FE01859194910097B5
:102C700011F0FC0109952896F5E0C23BDF07A1F7AA
:102C8000DF91CF911F910F910895E4E2F3E0128E4E
:102C9000138E8FEA90E09183808385E0848F88E8AB
:102CA00093E1938382832CE231E03583248382E3B2
:102CB00090E09783868385E090E0918780878AE023
:102CC00090E09387828744E150E0558744873787B7
:102CD000268724E630E0318B208B28E030E0338BF0
:102CE000228B28E230E0358B248B28EC30E0378BC8
:102CF000268B318F208F158E978F868F80E590E001
:102D000091A380A30E9404160C942016EF92FF92C8
:102D10000F931F93CF93DF937C01EB018A016FEF39
:102D200070E0CE010E946F3424E135E0ACEAB5E0FA
:102D300090E080E0AC014E5F5F4F0417150788F00C
:102D4000F90165917491E616F70630F48C0F9D1F1A
:102D5000FC0171836083CA01285F3F4FA217B3074C
:102D600049F7DF91CF911F910F91FF90EF90089558
:102D7000DC01CB0124E135E0F90165917491A617DE
:102D8000B70749F0285F3F4F65E02C3A3607A1F7B7
:102D90008FEF9FEF0895B9016E5F7F4FFB01A59103
:102DA000B4914A175B07A0F3FB0145915491F901D7
:102DB0003496659174910E94663490E080E00895A5
:102DC000CF93DF93C4E1D5E0FE01259134918217C2
:102DD000930741F0289625E0CC3AD207A9F78FEF68
:102DE0009FEF1DC0CE010296FC0125913491421740
:102DF0005307A8F3FC0145915491FE013496859147
:102E000094910E9466340E940416FE0136968591C4
:102E10009491009711F0FC01099590E080E0DF911A
:102E2000CF91089580913C0390913D030895809146
:102E300041038170089580914103869581700895C2
:102E40008091410382FB882780F908958091410396
:102E500083FB882780F90895AF92BF92CF92DF92CB
:102E6000EF92FF920F931F93CF93DF937C015B014F
:102E7000C42FD22FFC0182818823F9F04093DD0119
:102E80000E943F2C9093DC018093DB0180E28C0F49
:102E9000883008F061C0C77081E001C0880FCA9512
:102EA000EAF7DF91CF911F910F91FF90EF90DF90A4
:102EB000CF90BF90AF900C94641F1091DD0114135C
:102EC00040C08091DB019091DC010E94572C6C0185
:102ED000B701C5010E941217C816D90690F5C0E2C5
:102EE000CD0F1D17B9F080E2810F883040F41770C4
:102EF00081E001C0880F1A95EAF70E946B1FC83065
:102F000048F481E09D2F977001C0880F9A95EAF7E9
:102F10000E94641F802F0E94581FC830E8F4D770A9
:102F200081E001C0880FDA95EAF7DF91CF911F9118
:102F30000F91FF90EF90DF90CF90BF90AF900C94E7
:102F40006B1F80E28C0F883038F4C77081E001C0BD
:102F5000880FCA95EAF7E9CFDF91CF911F910F91C2
:102F6000FF90EF90DF90CF90BF90AF9008950F93B8
:102F70009C01CB01233F4CE5340759F1A8F4283DCF
:102F8000FCE53F0701F1293D4CE53407D1F1273D30
:102F90003C4591F406E221EE41EE67ED7CE50E94AE
:102FA0002C1780E00F910895253FFCE53F07E9F0DD
:102FB000B0F0263F3C45F9F0FC018281882339F1CD
:102FC0001092DD01EFCF07E225EE45EE68ED7CE5DE
:102FD000E6CF06E221EE40EE63EF7CE5E0CF07E2CC
:102FE00025EE44EE64EF7CE5DACF06E221EE42EE18
:102FF00065EF7CE5D4CF07E225EE46EE66EF7CE593
:10300000CECF08E221E045EE69ED7CE5C8CF81E056
:10301000C9CFCF93DF93EC01FB018281882309F4B0
:1030200019C1C230FCE5DF07C0F1C6319CE5D90704
:1030300030F09E012A5F3C452930310570F50E9431
:10304000672A9093D9028093D802C031ECE5DE075D
:1030500009F4CFC008F05BC0C8308CE5D80709F48C
:10306000B6C088F5C430ECE5DE0709F4A8C0C0F4AA
:10307000C2308CE5D80709F49CC08091D8028260E8
:10308000C330DC4509F498C08091D8029091D902F0
:103090000E94752A0E94961F80E0DF91CF910895CB
:1030A0008091D8028061C630ECE5DE0709F484C067
:1030B0008091D8028860C730DC4508F47DC08091DB
:1030C000D802806279C0CC308CE5D80709F489C079
:1030D00070F48091D8028C60CA30ECE5DE0709F408
:1030E0006BC008F478C08091D8028E7F65C0CE3066
:1030F0008CE5D80709F479C08091D8028B7FCF3056
:10310000DC4508F459C08091D8028F7E55C0CB3F72
:10311000ECE5DE0709F457C030F5C3318CE5D8077C
:1031200009F46FC078F4C131ECE5DE0709F465C03D
:10313000C231DC4509F0A8CF0E94961F8091D802C9
:103140008F773AC0C5318CE5D80709F462C008F41E
:1031500076C08091D9028160CA3FDC4509F094CFE6
:103160008093D90291CFCF3FFCE5DF0709F44DC032
:1031700088F48091D9028D7FCD3F9CE5D90781F3FA
:103180008091D9028E7FCE3FDC4550F38091D902E9
:103190008360E6CFC130FDE5DF0709F459C008F4CC
:1031A00044C080E0C230DD4509F06ECF0E94FB2AAA
:1031B0006BCF8091D80281608093D80265CF8091D7
:1031C000D8028460F9CF8091D9028260C9CF809102
:1031D000D8028064F1CF0E94961F8091D802806847
:1031E000EBCF8091D8028D7FE7CF8091D802877F87
:1031F000E3CF8091D8028F7DDFCF8091D8028F7B83
:10320000DBCF8091D802837FD7CF8091D9028C7F8A
:10321000A7CF8091D80282FB992790F921E09227CD
:1032200090FB82F990FB83F9C7CF8091D902982F48
:10323000909591708E7F892B90FB81F991CF0E94A0
:10324000961F9091D802892F97FB87F98058B4CFA9
:1032500081E0ACCF81E021CFCF93DF93EB018631CA
:103260009C4509F03BC00E945329982F9A7A2091DF
:103270003E0320FF04C0382F347409F090E021FF92
:1032800004C0382F317109F090E022FF04C0382FBC
:10329000387809F090E023FF03C0827209F090E0D3
:1032A0008A81882389F081E0911101C080E08093B8
:1032B000DE0189E2911185E30E94D6280E94C82987
:1032C00080E0DF91CF9108958091DE01811104C0EB
:1032D00089E20E94DD28F2CF85E3FBCF81E0F1CFC8
:1032E000EAEFF2E083E0E232F80739F488E090E0B8
:1032F0009093F0018093EF010895848187FF1482F9
:103300003596F0CFCF939091ED01992321F0811163
:1033100016C01092ED01CF910895EC2FF0E0EE0F62
:10332000FF1FE152FE4F808191810E9482040E9422
:10333000C829CF5F8091ED01C81778F3EACFC0E0CC
:10334000F9CF809108018823A1F08091F10190913B
:10335000F201009771F00E94572C20913A033091AE
:103360003B032817390728F481E00E9482190C9446
:1033700070190895109208011092F2011092F10153
:1033800081E00C9482198091080181110C94BA1982
:1033900081E08093080108952F923F924F925F92AF
:1033A0006F927F928F929F92AF92BF92CF92DF9255
:1033B000EF92FF920F931F93CF93DF93CDB7DEB7BA
:1033C0002A970FB6F894DEBF0FBECDBF7C016B010C
:1033D000873F4CE5940709F5FB011281112391F118
:1033E00081E080930801812F2A960FB6F894DEBF02
:1033F0000FBECDBFDF91CF911F910F91FF90EF9046
:10340000DF90CF90BF90AF909F908F907F906F9004
:103410005F904F903F902F900895883FFCE59F0765
:1034200039F4FB011281112369F00E94BA19DBCF34
:10343000893F9C4539F4FB011281112319F00E9448
:10344000C319D1CF4090080111E0442061F21092DD
:10345000F0011092EF0110E095E0392E882483945A
:10346000912C22242394A090EF01B090F001F8E079
:10347000AF16B10480F08091EE01882309F4B2C048
:103480000E943F2C9093F2018093F1011092EE0183
:1034900081E01827A8CF3A9CF0013B9CF00D112445
:1034A000E650FD4FBE016F5F7F4F80810E94541335
:1034B000892B61F000E0102B8091EF019091F001D9
:1034C00001969093F0018093EF01CDCFFE013196EC
:1034D00090E080E055245A94282F41915191411554
:1034E000510589F1E416F50609F4582E0196843049
:1034F000910591F724E0FFEF5F16E1F2F6010281FA
:103500003A9CC0013B9C900D1124AC0146505D4F8C
:103510003A01FA018481A40102C0440F551F2A9583
:10352000E2F79A0121503109002349F1A40101C0B9
:10353000440F5A94EAF7842B84838F7782171306FB
:1035400031F0042DB8CF823008F4B4CFD4CF80E06E
:103550000E948219F301848180688483828193812F
:10356000009729F00E9482042092EE01A4CF61E02E
:103570008091EF019091F0010E945612F5CF8F7764
:103580008217130631F482819381009719F10E940A
:1035900097043A9CF0013B9CF00D1124E650FD4F3E
:1035A0004481242F30E0052C02C0359527950A94DC
:1035B000E2F720FF7FCFC40101C0880F5A94EAF7D9
:1035C00080958423848387FF75CF803809F0B9CF35
:1035D0001482B7CF60E08091EF019091F0010E94DA
:1035E0005612D7CF111106C081E00E9482190E94A5
:1035F00070194ECFF6018281882309F449CF0E94C9
:103600003F2C9093F2018093F101E091ED01E730BE
:1036100008F03ECF81E08E0F8093ED01F0E0EE0FD9
:10362000FF1FE152FE4FF182E08232CFFF920F93F3
:103630001F93CF93DF938C01EB01F42E809109014E
:1036400082FF4AC08B7F809309018091F5019091A0
:10365000F6019B01281B390BC90120910A01309109
:103660000B0182179307B8F48091F3010E94591E51
:10367000809109018D7F809309018091420390918F
:103680004303019710F58091F3010E94EB1E82E045
:103690000E946C292BC082E00E9466298091F30170
:1036A0000E94591E809109018260809309018091D6
:1036B0003F0385FFE2CF86FDE0CFFF20F1F2DF91EF
:1036C000CF911F910F91FF900895EFE9FFE031979F
:1036D000F1F700C00000D5CF802F0E94EB1E809133
:1036E000F3019091F4018017910789F20E94C82993
:1036F000D093F601C093F501E2CF80913F0380FFA4
:103700001DC08091090182FF19C00E943F2C2091A9
:10371000F5013091F601AC01421B530B9A01409127
:103720000A0150910B012417350740F041E0BC011C
:103730008091F3019091F4010C94161B08959091DF
:103740000901892F8E7F90FF81608093090182E0BB
:103750000C946C29809109018E7F8093090182E08D
:103760000C946C2990930B0180930A010895883280
:10377000910538F48E319105E8F40497A0F480E0C7
:1037800008958933910558F48D32910510F48B9783
:10379000B1F780913F0382FB882780F908C0843607
:1037A0009105B9F3ECCF80913F038295817091E050
:1037B0008927089580913F0383FB882780F9F7CFFD
:1037C000CF92DF92EF92FF920F931F93CF938C01D2
:1037D0006B0180913F0380FD0AC0C1E08C2FCF9127
:1037E0001F910F91FF90EF90DF90CF9008950E946E
:1037F0003F2C7C01F601C281CC2329F18091090183
:1038000082FF06C040E0B70190E080E00E94161BF6
:1038100082E00E946C290B31FCE51F0759F00C3146
:103820004CE5140769F00A315CE5150761F40E9464
:103830009F1BD4CF80910901816080930901CECF75
:103840000E94AA1BCBCFB601C8010E94B71B8823D8
:1038500021F2F601C281CC2309F44EC08091090106
:1038600080FFBBCF80913F0381FF15C080913F0354
:1038700085FD16C01093F4010093F301F092F60158
:10388000E092F5018091090184608093090182E052
:103890000E94302A2FC00E945329882339F39DCFDC
:1038A0002091F5013091F601A701421B530B9A01BB
:1038B00086FD04C08091090181FDDCCF283C3105E3
:1038C000C8F68091F3019091F4010817190791F659
:1038D0008091090181FBCC27C0F981FD04C0802FB4
:1038E0000E94591E7BCF82E00E9466298091F301DD
:1038F0000E94591EC0E072CF40E0B701C8010E948B
:10390000161B6CCF9093FC018093FB010895E0910E
:10391000FB01F091FC01309721F00190F081E02D46
:10392000099480E00895E091FB01F091FC0130974B
:1039300099F020911801222359F02091D80227FFF5
:1039400007C0DC012C9111962C93119725E02C9344
:103950000280F381E02D09940895E091FB01F0913C
:10396000FC01309739F022E0DC012C930480F581D2
:10397000E02D099408952091F9013091FA0128175A
:10398000390771F09093FA018093F901E091FB01FE
:10399000F091FC01309721F00680F781E02D099429
:1039A00008952091F7013091F8012817390771F037
:1039B0009093F8018093F701E091FB01F091FC01F5
:1039C000309721F00084F185E02D099408950E943C
:1039D0004B2C6093160270931702809318029093F9
:1039E0001902609312027093130280931402909351
:1039F000150208950E944B2C6093160270931702D3
:103A0000809318029093190260930E0270930F0234
:103A10008093100290931102089585B7806885BF46
:103A200085B7806885BF089508950C9411040895A2
:103A30000C94171D0E940D1D8CE49AE20E94AE2C7E
:103A40000E9440100E9420160E94141D0C94151D07
:103A500081E008950C94281D089508950E942C1D5E
:103A60000C942D1D0E94362C0E9491090E94700E0C
:103A70000E942A0D0C94181D8F929F92AF92BF92B4
:103A8000CF92DF92EF92FF920F931F93CF93DF932A
:103A9000CDB7DEB72A970FB6F894DEBF0FBECDBF05
:103AA0000E94B80981110E94E71C5EEF852E51E04B
:103AB000952E10E000E0A02E802F0E9468096C0176
:103AC000F401E190F1904F01E816F90609F461C0A4
:103AD0008091B40281FD0E947109C7018C259D254A
:103AE000B12CEE24E394F12C9C012E213F21232BB9
:103AF00009F449C00E942A1D8823A9F0BE82AF8222
:103B0000CE20DF2081E0CD2809F480E088870E9464
:103B10003F2C8160782F9A8789874E815F816885E5
:103B20008A850E94FD1D000F111FF801E250FE4F13
:103B300080819181E826F926F182E0820E94920D2F
:103B400081110E94FA1C0E94100C0E94871C909107
:103B5000FD018917A9F10E94871C8093FD012A9617
:103B60000FB6F894DEBF0FBECDBFDF91CF911F918E
:103B70000F91FF90EF90DF90CF90BF90AF909F900C
:103B80008F900C940E07B394EE0CFF1CF9E0BF125B
:103B9000ABCF0F5F1F4F0830110509F08CCF8FEFAF
:103BA00089838A831B820E943F2C8160782F9D83AA
:103BB0008C8349815A816B818D810E94FD1DBECF0E
:103BC0002A960FB6F894DEBF0FBECDBFDF91CF911E
:103BD0001F910F91FF90EF90DF90CF90BF90AF902B
:103BE0009F908F900895019708F40895EFE9FFE002
:103BF0003197F1F700C00000F6CFCF92DF92FF922D
:103C00000F931F93CF93DF93CDB7DEB72B970FB6EC
:103C1000F894DEBF0FBECDBF7A878B878A01F62E60
:103C2000CA84DB84C114D10421F0812F84238F3F07
:103C300089F5F1100E9473291E821D8209831A835F
:103C4000FB82DD82CC828091260390912703892B11
:103C500061F00E941129882319F082E00E94302A25
:103C60000E94ED2881110E94BA2949815A816B81F5
:103C70007C818D819E812B960FB6F894DEBF0FBE9E
:103C8000CDBFDF91CF911F910F91FF90DF90CF902B
:103C90000C94EB2580911B0290911C02019690934D
:103CA0001C0280931B02C5CFFC01808191810C9482
:103CB000A828CF93C82F882309F48BC08238C1F479
:103CC0000E94871C81FD85C089E30E94D6280E943E
:103CD000C8292FEF81EE94E0215080409040E1F719
:103CE00000C0000089E30E94DD28CF910C94C82910
:103CF0008338A1F40E94871C80FD6BC083E50E947D
:103D0000D6280E94C8292FEF81EE94E021508040F0
:103D10009040E1F700C0000083E5E5CF8438A1F4CE
:103D20000E94871C82FD55C087E40E94D6280E940D
:103D3000C8292FEF81EE94E0215080409040E1F7B8
:103D400000C0000087E4CFCF8CEF8C0F813A90F455
:103D50006C2F80910C0190910D010E94142B8823EF
:103D600029F08C2F0E94DD280E94C8298C2F0E94E8
:103D7000D628BBCF80E28C0F883048F4C77081E032
:103D800001C0880FCA95EAF70E945629AECFEBE52D
:103D9000EC0FE33040F4F0E0EB55FE4F808190E013
:103DA000CF910C94BB1CE8E5EC0FE73150F4F0E048
:103DB000EE0FFF1FE958FE4F80819181CF910C9447
:103DC000D11CC03F30F08C2F0E940A0BCF910C9475
:103DD000F50BCF910895882309F452C0823871F40D
:103DE0000E94871C81FF4CC089E30E94D6280E9454
:103DF000C82989E30E94DD280C94C829833859F426
:103E00000E94871C80FF3CC083E50E94D6280E9448
:103E1000C82983E5EFCF843859F40E94871C82FFBC
:103E20002FC087E40E94D6280E94C82987E4E2CFE9
:103E30009CEF980F913AF0F290E2980F983050F47E
:103E4000877091E001C0990F8A95EAF7892F0E9447
:103E50005C29D2CF9BE5980F933020F490E080E06E
:103E60000C94BB1C98E5980F973120F490E080E00B
:103E70000C94D11C803F20F00E94720B0C94F50B27
:103E800008951F93CF93DF93182FEB010E94591EC3
:103E9000209731F4812FDF91CF911F910C94EB1E6D
:103EA0008FE99FE00197F1F700C000002197F0CF64
:103EB0006091440370914503893321F0609142037E
:103EC000709143030C94411F882321F00E945629CE
:103ED0000C94C8290895882321F00E945C290C9431
:103EE000C8290895882321F00E9466290C94C829C6
:103EF0000895882321F00E946C290C94C829089504
:103F000090E080E00E94BB1C90E080E00E94D11C09
:103F10000E9473290E9483290E94C8290E941C0DB7
:103F20000C94F50B0E94E4280C94801F0E946329D6
:103F30000C94921FE92FE295EF70E250EE3070F48E
:103F4000F0E0E052FB4C0C945034803F19F020F428
:103F5000883E20F481E00895843FE1F380E00895F5
:103F6000883EC0F3813FD1F7F5CF93FB882780F9D6
:103F700008950E94A8280C949A1F4F925F926F9206
:103F80007F92BF92CF92DF92EF92FF920F931F9397
:103F9000CF93DF937C01EB01FC0102811581129527
:103FA0001F700E942B29C82E8823A1F0C02E002349
:103FB00089F08D2F807F803429F080E28C0FC12C16
:103FC000883040F082E00E94302A0E942B2991E044
:103FD000C82EC926BD2EB2942FE0B222EB2DF0E000
:103FE000E251FB4C0C945034FD2FFF70DF2E8D2FCF
:103FF000807F19F0D29490EFD9220023A9F0DD2020
:1040000059F080E28C0F883010F0C11109C08D2D5D
:104010000E9456290E94C8298C2F0E94591E14C044
:104020008D2D0E946629F6CF8C2F0E94EB1EDD207D
:1040300059F080E28C0F883010F0C11138C08D2DFE
:104040000E945C290E94C829EB2DE850FF0B349791
:1040500020F40E94871C0E940E07CE010E949A1F26
:10406000811111C210921C0210921B02CC2009F483
:104070002BC20E940D2980FD27C2F70112820E94E7
:1040800007290E946D27C7010E9489220E940729E3
:10409000DF91CF911F910F91FF90EF90DF90CF9024
:1040A000BF907F906F905F904F900C948E278D2DD6
:1040B0000E946C29C7CF2D2F2F70D22E8D2F807F7D
:1040C000803219F0D29480EFD822CC23E9F0C130AD
:1040D00009F455C0002309F45CC0112391F120E0DC
:1040E000F701408151816281738184810E94B5040E
:1040F000B7010E941B1781118FCFF701858180FFC7
:104100008BCF8F7085831DC00023E9F0111106C08D
:104110000E9486298D290E94641F96CF113031F4A8
:104120000E9486298D290E94A2298ECF809140036A
:10413000823070F38113ECCF0E94BA298D2D0E943A
:104140008C298D2DE8CF111106C00E94BA298D2D22
:104150000E946B1F79CF80914003113059F4823057
:1041600008F472CF0E9453298D2109F46DCF0E946B
:104170009529EBCF823048F31813E7CF65CF0023A2
:1041800021F0163008F060CFDCCF153008F05CCF9E
:10419000DECF1123E1F28091440390914503C933AE
:1041A00021F080914203909143030E94F31D8C2FD4
:1041B0000E94EB1E49CF8D2F86958695837061F006
:1041C000813009F041CFCE019370011102C090E01F
:1041D00080E00E94D11C38CFCE019370011102C043
:1041E00090E080E00E94BB1C2FCF8C2F002339F081
:1041F0000E940A0B0E94F50B0E94F50B25CF0E942E
:10420000720BFACF8D2F837009F043C001111CCFC0
:104210002C2F229526952770220F220F6C2F6F705E
:10422000462E512C712C612C022E04C0440C551CBE
:10423000661C771C0A94D2F760E070E0CB01C4FFE3
:104240000FC06FE070E080E090E004C0660F771F61
:10425000881F991F2A95D2F7609570958095909543
:104260002D2F26952695237064297529862997294F
:10427000223049F058F4213019F00E942127E4CE71
:104280000E940F27E1CE0E943327DECE0E940D2729
:10429000DBCE8695002311F08D2F8170882309F4E1
:1042A000D3CE2C2F229526952770220F220F6C2F0C
:1042B0006F70462E512C712C612C022E04C0440CC0
:1042C000551C661C771C0A94D2F760E070E0CB01A5
:1042D000C4FF0FC06FE070E080E090E004C0660FA4
:1042E000771F881F991F2A95D2F760957095809542
:1042F00090952D2F2695269523706429752986295A
:104300009729223049F058F4213019F00E94E4270F
:104310009BCE0E94D22798CE0E94F62795CE0E946F
:10432000472792CEFD2FFF70DF2E002329F08F2F1D
:104330000E946D278C2FEFCE8C2F0E946B1F8D2D2E
:104340000E948E2781CEC23F09F43FC060F4C03F77
:1043500031F1C13F91F1002309F480C011115CCE0D
:104360008D2F8F712FC0C33FA9F1C43FA1F780915A
:104370004003823008F45BC0002309F444C00E946B
:10438000EA280E945C290E940D29843069F50E9468
:10439000272A8D2F8F710E948E27C12C55CE002386
:1043A00041F0153008F050CE8D2F8F710E94B1274B
:1043B0004BCE163008F048CEF7CF8D2F8F710023EB
:1043C00009F4BECF0E946D273FCE8D2F8F71002341
:1043D000C9F3B6CF002329F08D2F8F710E94582783
:1043E00033CE0E94532730CE809140031817A8F691
:1043F0002D2F2F71D22E822F0E946D2763E08D2DDD
:104400000E940B2ACACF0E94EA280E945629809156
:104410004003181740F00E94272A0E94952964E063
:104420008D2F8F71EDCF81E00E94302AB6CF00230F
:1044300059F03D2F3F71D32E832F0E946D2763E0EB
:104440008D2D0E940B2A00CE81E00E94302A12306E
:1044500008F4FACD82E00E94302AF6CD11119BCEED
:104460008D2F8F716DCF4D2F4F706C2FC7010E9414
:1044700016070E948526E8CD4D2F4F706C2FC7017F
:104480000E941907E1CD002319F01111EBCDEECDFB
:104490001111E8CD20E0F7014081518162817381E3
:1044A00084810E94B504B7010E942617882309F46D
:1044B000D9CD80911B0290911C02029709F0D2CDB8
:1044C0008C2F0E94581FCECDDF91CF911F910F915D
:1044D000FF90EF90DF90CF90BF907F906F905F90B4
:1044E0004F9008950F931F93CF93DF93EC01688152
:1044F00079818A810E94B2288C010E9408280E943A
:104500000C27B801CE01DF91CF911F910F910C9430
:10451000BD1FCF93DF93EC018B819C81892B29F008
:104520008881998189238F3F59F4DF91CF91089534
:10453000CE010E947222CE01DF91CF910C94F10442
:10454000CE010E94DE058111F3CF0E942B29882322
:1045500061F38A81882349F382E0DF91CF910C9443
:10456000302ACF93DF9300D000D00F92CDB7DEB7C3
:104570000F900F900F900F900F90DF91CF910895B3
:10458000CF93DF9300D000D000D0CDB7DEB7269612
:104590000FB6F894DEBF0FBECDBFDF91CF91089567
:1045A0001F93CF93DF93C0911D0216E080911E02EE
:1045B0008C1304C0DF91CF911F910895D0E01C9F10
:1045C000F0011D9FF00D1124E15EFD4F40815181EE
:1045D00062817381848195810E94C0222196C77077
:1045E000E5CF40914F02509150026091510270917D
:1045F000520280915302909154020C94C022209157
:104600001D0290911E0256E0291302C080E0089519
:1046100030E0529FF001539FF00D1124E15EFD4FF9
:104620007181761306C07081781303C07281741390
:1046300004C02F5F3F4F2770E7CF81E00895DF92DE
:10464000EF92FF920F931F93CF93DF9380915402C9
:10465000807F61F480915102882341F0C0911D0256
:1046600086E0D82E80911E028C1308C0DF91CF9176
:104670001F910F91FF90EF90DF90089520915202CB
:1046800030915302D0E02115310541F080914F0265
:1046900090915002482F49234F3F19F42196C7703B
:1046A000E1CFDC9E8001DD9E100D1124F801E15E5A
:1046B000FD4F51815913F2CF40814813EFCF8281D2
:1046C0008111ECCFE380F480E21AF30A20E06091DC
:1046D000510270915202809153020E94B5046FE41E
:1046E00072E00E941217E816F906C0F68091540293
:1046F0008F70806180935402F801EC5DFD4F8081E2
:104700008F70806180838FE492E00E948922DF9124
:10471000CF911F910F91FF90EF90DF900C94D022DA
:104720006F927F928F929F92AF92BF92CF92DF92C1
:10473000EF92FF920F931F93CF93DF93CDB7DEB726
:1047400061970FB6F894DEBF0FBECDBF8C0185E038
:10475000F801DE011D9601900D928A95E1F7D801CE
:104760007C901196EC9011971296FC908FE4882E15
:1047700082E0982E8091520290915302009749F066
:1047800040914F0250915002242F25232F3F09F0D2
:10479000BDC1F1101BC1C8010E94892287C020E061
:1047A00040914F025091500260915102709152021B
:1047B000809153020E94B504B8010E94171781111D
:1047C000E9C1CD2829F08E2D87218F3F09F017C12F
:1047D00080E0B82FB170CB2E80FF29C04F2D6E2DF9
:1047E000872D0E94FF22D82E811121C07D86EE8662
:1047F0008D859E850E94A828292F22952F70223012
:1048000050F0243078F49F7051F0F8019581907F3A
:1048100031F46D2C10C19F7011F08823D1F3805EAC
:104820008830B8F3C8010E948922DC2CF2CFFF2027
:1048300009F401C180915402816080935402612C7B
:10484000FAC0892B49F080914F0290915002282F95
:1048500029232F3F09F005C17D86EE868D859E8533
:104860000E94B91F882309F496CFFF2009F493CF43
:1048700080915402803270F020914F0230915002AA
:1048800038872F831986DB86CA868C87CE010796E8
:104890000E94892286E0F801AFE4B2E001900D9217
:1048A0008A95E1F70E941F230E94F12266246394F7
:1048B000C2C0211113C07C2DD98AC88A472D5E2D14
:1048C0006F2D89890E94B1228FE492E00E94892293
:1048D00086E0F40111928A95E9F77AC1809152023B
:1048E00090915302892B49F080914F029091500290
:1048F000282F29232F3F09F0CDC07D86EE868D8598
:104900009E850E94B91F882309F445CFFF2009F432
:1049100042CF80915402803208F4BCCF20914F02E4
:10492000309150023A8329831B82DD82CC828E83B0
:10493000CE010196ADCF20E060E0709152028091EF
:1049400053020E94B5046FE472E00E941217A81689
:10495000B90668F56F2CFF2009F41DCF8091520233
:1049600090915302892B49F040914F02509150028F
:10497000842F85238F3F09F0A3C07D86EE868D8529
:104980009E850E94B91F811185CF8091540281605C
:1049900080935402C8010E9489224DC086E0F8012C
:1049A000AFE4B2E001900D928A95E1F744C07C2D0E
:1049B000D98AC88A472D5E2D6F2D89890E94B12220
:1049C00086E0D4011D928A95E9F761C07D86EE8666
:1049D0008D859E850E94B91F682E882309F4DBCE41
:1049E00086E0F801AFE4B2E001900D928A95E1F71C
:1049F0008FE492E00E94541E0E941F2348C081E071
:104A00008F25E7CE81E08F25CEC09E11AFC08711E4
:104A1000ADC0F110ABC0809154028F708061809363
:104A200054020E94F1228FE492E00E948922809138
:104A30005402F8018583862D61960FB6F894DEBF87
:104A40000FBECDBFDF91CF911F910F91FF90EF90DF
:104A5000DF90CF90BF90AF909F908F907F906F909E
:104A600008959E11F9CE8711F7CEF110F5CE809101
:104A70005402D80115968C93C8010E94892286E0C1
:104A8000F801AFE4B2E001900D928A95E1F70E943F
:104A9000F122D1CF9E1131CF87112FCFF1102DCF21
:104AA00080915402D80115968C93C8010E948922E6
:104AB000EFE4F2E086E0DF011D928A95E9F7BBCFD3
:104AC0005E115BCF471159CF20E060915102709188
:104AD0005202809153020E94B504B8010E9420172F
:104AE00081115CCF8091540280FD58CF982F907F28
:104AF00009F454CFF8018583903F09F4BDCF982F76
:104B0000907F905F8F70892B8583B6CFF801C3802B
:104B1000D480609051025601A81AB90A662009F49F
:104B20000ACF20E0662D70915202809153020E94BC
:104B3000B5046FE472E00E94121720915402207FA6
:104B4000A816B90608F0B5CE809152029091530292
:104B5000211177CE6F2C892B49F080914F029091D3
:104B60005002282F29232F3F09F04FCF20E04091FA
:104B70004F02509150026091510270915202809107
:104B800053020E94B504B8010E941217843F91405D
:104B900008F405CEC114D10429F08E2D87218F3F52
:104BA00009F030CF80E080FF0CCE4F2D6E2D872D89
:104BB0000E94FF22882309F404CE8FE492E00E9431
:104BC000892286E0EFE4F2E0DF011D928A95E9F7A1
:104BD0000E94F12234CE1F93CF93DF93CDB7DEB77F
:104BE0002C970FB6F894DEBF0FBECDBF4F8358870A
:104BF00069877A878B879C87CE0107960E949023CE
:104C0000882369F08A859B85892B39F04F815885E7
:104C1000842F85238F3F09F071C016E05FC086E0C6
:104C2000FE013796DE01119601900D928A95E1F70B
:104C30008A859B85892B89F38F81988589238F3F6E
:104C400061F320911E0230E0C90101968770992717
:104C500040911D024817190671F40E94961F109288
:104C60001E0210921D0286E0EFE4F2E0DF011D92C9
:104C70008A95E9F7D2CF96E0929FD001939FB00D2D
:104C80001124A15EBD4FFE01319601900D929A95BF
:104C9000E1F780931E020E94D022BFCF819FC00106
:104CA0001124815E9D4F0E9490238823E9F0E091BA
:104CB0001D021E9FF0011124E15EFD4F40815181D4
:104CC00062817381848195810E94C02280911D023E
:104CD00090E001968770992780931D0280911D02B4
:104CE00090911E028913DACF2C960FB6F894DEBF8E
:104CF0000FBECDBFDF91CF911F91089569857A8551
:104D00008B859C850E94C02288CFEF92FF920F93E3
:104D10001F93CF93DF938C01892B81F0F12CEE242C
:104D2000E394E8012196F8018491843770F484308B
:104D300008F05FC08130B1F08230A1F1DF91CF91F6
:104D40001F910F91FF90EF900895853709F44CC0A3
:104D500008F43DC09CE7980F903780F78F770E944A
:104D6000EB1E49C00E5F1F4FFE01849190E2980F29
:104D7000983060F48770FE2D01C0FF0F8A95EAF726
:104D80008F2F0E9476290E94C82902C00E94591EB6
:104D90008F2D815030F2EFE9FFE03197F1F700C03D
:104DA0000000F7CF0E5F1F4FFE01849190E2980F35
:104DB000983050F48770FE2D01C0FF0F8A95EAF7F6
:104DC0008F2F0E947C29DFCF0E94EB1EE1CF0E5F68
:104DD0001F4FFE01C491C150D8F28FE99FE00197A7
:104DE000F1F700C00000F7CF0E5F1F4FFE01F490F7
:104DF000CFCF0E94591E8E01CBCF08950C94FD2673
:104E00000E94FE2660938602709387028093880238
:104E1000909389020C94801F08950C9400270F939F
:104E20001F93009186021091870220918802309191
:104E30008902602B712B822B932B1F910F910C9465
:104E400000270F931F9300918602109187022091F3
:104E500088023091890260237123822393231F915A
:104E60000F910C9400270F931F93009186021091CD
:104E7000870220918802309189026027712782275A
:104E800093271F910F910C9400270C9415040E94F6
:104E900045276093820270938302809384029093EB
:104EA00085020C94801F60E070E0CB010C944727D2
:104EB0000F931F9341E050E060E070E08A019B0196
:104EC00004C0000F111F221F331F8A95D2F7C9019A
:104ED000B8011F910F910C9447270F931F9341E046
:104EE00050E060E070E004C0440F551F661F771F5C
:104EF0008A95D2F78091820290918302A0918402D8
:104F0000B09185028A019B01082B192B2A2B3B2B80
:104F1000C901B8011F910F910C9447270F931F935C
:104F200041E050E060E070E004C0440F551F661F90
:104F3000771F8A95D2F7CB01BA016095709580955D
:104F40009095009182021091830220918402309109
:104F5000850260237123822393231F910F910C9468
:104F600047270F931F9341E050E060E070E004C0DA
:104F7000440F551F661F771F8A95D2F780918202D2
:104F800090918302A0918402B09185028A019B01D5
:104F9000082719272A273B27C901B8011F910F911C
:104FA0000C9447270F931F93009182021091830264
:104FB0002091840230918502602B712B822B932BE0
:104FC0001F910F910C9447270F931F93009182021A
:104FD0001091830220918402309185026023712315
:104FE000822393231F910F910C9447270F931F93B4
:104FF00000918202109183022091840230918502F7
:1050000060277127822793271F910F910C944727C0
:1050100008959E3F69F1E82F29E0929FE00D112449
:105020008E2F877041E001C0440F8A95EAF7E6951C
:10503000E695E69585E0E89FF0011124EB5AFD4FD7
:1050400030E020E070E05191DF011197CB01022E9A
:1050500002C0969587950A94E2F78170819585271D
:10506000842385278C932F5F3F4F2530310559F7D7
:1050700008959E3F49F1E82F29E0929FE00D112409
:105080009E2F9770E695E695E69585E0E89FF001FE
:105090001124EB5AFD4F50E040E080E0219130E0D8
:1050A000092E02C0369527950A94E2F7217033271E
:1050B000042E01C0220F0A94EAF7822B4F5F5F4F44
:1050C0004530510559F7089580E00895BF92CF9279
:1050D000DF92EF92FF920F931F93CF93DF938C0198
:1050E000C0908202D0908302E0908402F09085020A
:1050F0008091860290918702A0918802B0918902E6
:10510000C82AD92AEA2AFB2ACFE1D0E0BC2ED7014F
:10511000C6010C2E04C0B695A795979587950A945D
:10512000D2F780FD0EC0219788F7B12C8B2DDF912F
:10513000CF911F910F91FF90EF90DF90CF90BF9094
:105140000895B8018C2F0E942207019761F3EECFDA
:10515000CF93DF93EC010E946628BE01DF91CF91CF
:105160000C9422071F93CF93DF93EB0190911A02C7
:10517000992331F0CB01DF91CF911F910C94A82896
:10518000882379F0CB010E946628182F682FCE0162
:105190000E940928BE01812FDF91CF911F910C94AD
:1051A0002207CB010E943928182FF4CF682F809155
:1051B0000C0190910D010C94942B682F80910C019F
:1051C00090910D010C949F2B80910C0190910D01F9
:1051D0000C94AA2B80918F020895809126039091C0
:1051E0002703892B89F00E943F2C20918D0230915A
:1051F0008E02AC01421B530B81E0209126033091BB
:1052000027034217530708F480E0817008958091C6
:105210008C02859585958595089580918C0287707F
:1052200008950E943F2C20918A0230918B02821BAC
:10523000930B20912603309127038217930748F0A0
:1052400080918C0282FB882780F991E08927817008
:10525000089580E0FCCF90918C02977081E009F472
:1052600080E008959091D90292FB222720F9281717
:1052700051F080FB92F99093D9028091D8029091DD
:10528000D9020C94752A08958091D90282FB88274F
:1052900080F991E089270C94322981E00C9432291D
:1052A00080E00C9432298091B30208959091B3026A
:1052B000892B8093B302089580959091B30298232F
:1052C0009093B30208951092B30208959091B202A0
:1052D000892B8093B202089580959091B202982311
:1052E0009093B20208951092B20208959091B10283
:1052F000892B8093B102089580959091B1029823F3
:105300009093B10208951092B10208958091900295
:10531000089508950C94892990918F02981721F08F
:1053200080938F020C948A29089580918F0288239C
:1053300029F010928F0280E00C948A290895089534
:105340000C949F29CF93C82F8091D90282FD10C061
:10535000809190028C1761F00E943F2C90938E02F6
:1053600080938D02C09390028C2FCF910C94A02932
:10537000CF91089580919002882349F01092900275
:1053800010928E0210928D0280E00C94A029089554
:10539000E0910C01F0910D018091B3028083E091C6
:1053A0000C01F0910D0180819091B202892B8083D4
:1053B000E0910C01F0910D0180819091B102892B57
:1053C0008083809190028823E9F080912603909158
:1053D0002703892B29F00E94ED2881110E94BA2908
:1053E000E0910C01F0910D01808190919002892B48
:1053F000808380910C0190910D010E94002B8111FE
:105400000E94BA2980910C0190910D010C94931C7B
:1054100008950C94082A9091D90292FD16C098E044
:10542000899F90011124622B60938C020E946D274A
:105430000E943F2C90938B0280938A0280918C0271
:105440008595859585950C94092A0C946D27109265
:105450008C0210928B0210928A0280E00C94092A2E
:1054600090918C028095892380938C02282F27703D
:1054700039F4282F082E000C330B9217130621F451
:105480009091D90292FF07C08595859585950E94D8
:105490008E270C94272A089580E008956FEF7FEF00
:1054A00090E080E00C94B23490E080E00E948E3472
:1054B00021E08A3E9E4F09F020E0822F089582E08D
:1054C00090E00C94863483E090E00C948634CF9383
:1054D00084E090E00E948634C82F82E290E00E942F
:1054E0008634982F8C2FCF910895CF93C92F682F92
:1054F00084E090E00E9494346C2F82E290E0CF919F
:105500000C949434AB01BC018FE090E00C94A63471
:10551000AB01BC0183E190E00C94A63460E070E044
:10552000CB010C94882A60E070E0CB010E94822AB3
:105530000C948E2A6AEE7EEF90E080E00E94B234F6
:1055400060E082E090E00E94943460E083E090E0CC
:105550000E94943410928602109287021092880260
:105560001092890260E084E090E00E94943460E050
:1055700082E290E00E94943460E085E090E00E9436
:10558000943460E086E090E00E9494346FEF87E00E
:1055900090E00E94943440E050E0BA0188E090E04E
:1055A0000E94A63460E08DE090E00E94943440E0D8
:1055B00050E0BA0188E190E00E94A63460E087E103
:1055C00090E00E94943440E050E0BA018CE190E019
:1055D0000E94A63470E060E080E290E00E94B23465
:1055E00040E050E0BA0188E190E00E94A6340C94BB
:1055F000932A0C949A2A682F8EE090E00C949434AD
:10560000FC01329680911801882321F08091D80204
:105610009EE187FF96E080E0915008F40895219183
:105620002223D1F38F5FF8CF662301F12091180177
:105630002223F1F02091D80227FF1AC0462F469569
:10564000469546954E3190F4677021E030E002C0F7
:10565000220F331F6A95E2F7840F911DFC018281AE
:1056600090E02823392381E0232B69F480E008951A
:10567000FC01329608962191261721F0E817F907C8
:10568000D1F7F4CF81E008959C01FC0132969FEFA1
:1056900080E04191461751F09F3F19F4411101C03C
:1056A000982F8F5F8630A9F79F3F09F40895290F3F
:1056B000311D97FD3A95F90162830895FC013296F8
:1056C00008962191261303C0DF0111971C92E81759
:1056D000F907B9F70895E62FE695E695E695EE31D8
:1056E00068F4E80FF92FF11D677021E030E001C088
:1056F000220F6A95EAF78281822B82830895E62F32
:10570000E695E695E695EE3170F4E80FF92FF11D78
:10571000677021E030E001C0220F6A95EAF720951A
:10572000828128232283089520911801222329F0C1
:105730002091D80227FD0C946B2B0C94442B2091C4
:105740001801222329F02091D80227FD0C947F2BE9
:105750000C945E2BFC01329680911801882351F045
:105760008091D80287FF06C08EE1DF011D928A95E5
:10577000E9F7089586E0F9CF089508950C94BD2BBC
:1057800080914E03843049F10E94BE2B80E00E943C
:105790000E071092B50288E190E020E40FB6F8946D
:1057A000A895809360000FBE2093600083B7817F2F
:1057B000846083BF83B7816083BF7894889583B703
:1057C0008E7F83BF0FB6F894A895809160008861A2
:1057D00080936000109260000FBE08950895CF93EB
:1057E0000E94BC2B0E94B8090E94EE2BC0E08C2FB7
:1057F0000E946809892B31F4CF5FC830C1F780E07F
:10580000CF91089581E0FCCF08950C94042C0E9460
:10581000961F0E94871C0E940E070C94052C1F9255
:105820001FB61F9211248F939F93AF93BF938091C4
:10583000B502811113C08091460390914703A09156
:105840004803B09149034196A11DB11D80934603C1
:1058500090934703A0934803B0934903BF91AF913E
:105860009F918F911F901FBE1F90189582E084BD5D
:1058700093E095BD9AEF97BD80936E0008952FB782
:10588000F8948091460390914703A0914803B0910A
:1058900049032FBF08952FB7F89460914603709184
:1058A000470380914803909149032FBF08959C01BD
:1058B0004FB7F8948091460390914703A091480315
:1058C000B09149034FBF821B930B089578941F92A8
:1058D0001FB61F9211248F939F93AF93BF93809114
:1058E000460390914703A0914803B0914903019664
:1058F000A11DB11D8093460390934703A0934803D5
:10590000B0934903BF91AF919F918F911F901FBE9C
:105910001F90189581E08093E00080E28093D8008A
:105920001092C9008FE19EE40197F1F700C00000DA
:1059300087E090EBDC018093570390935803A0938A
:105940005903B0935A0388E19CE00FB6F894A895E8
:10595000809360000FBE90936000FFCF9093B901D9
:105960008093B80108958091D6020895CF93DF9374
:1059700000D00F92CDB7DEB790914E03943011F561
:1059800089837B836A839093E9008FEF9091E8008D
:10599000815095FD06C095ED9A95F1F700008111B3
:1059A000F5CF8091E80085FF0DC050E040E063E056
:1059B00070E0CE0101960E94482F8091E8008E771A
:1059C0008093E8000F900F900F90DF91CF91089592
:1059D000BC0184E00C94B62CBC0183E00C94B62C82
:1059E0009C0184E08093E9009FEF8091E800915052
:1059F00085FD06C085ED8A95F1F700009111F5CF80
:105A00008091E80085FF0CC050E040E066E070E067
:105A1000C9010E94482F8091E8008E778093E800AA
:105A20000895CF93DF93EC01809118018823B1F1A1
:105A30008091D80287FF32C060E284E08093E90061
:105A40008FEF9091E800815095FD06C095ED9A95F5
:105A5000F1F700008111F5CF8091E80085FF1BC0B0
:105A60008091180170E050E040E0811104C050E0E6
:105A700040E068E070E0CE010E94482F8091E8008D
:105A80008E778093E80080E2FE01A6EBB2E0019001
:105A90000D928A95E1F7DF91CF91089568E081E05A
:105AA000CDCFCF93FC01603221F580914E0384303D
:105AB00001F5C091E900CF702091EC00922F917018
:105AC00020FD90E8C92B82E08093E9008091E800F6
:105AD00080FF0CC050E040E060E270E0CF010E9427
