:100000000C9473030C94BA030C94BA030C94BA03C3
:100010000C94BA030C94BA030C94BA030C94BA036C
:100020000C94BA030C94BA030C94F3310C94C732B9
:100030000C948E2C0C94BA030C94BA030C94BA034F
:100040000C94BA030C94BA030C94BA030C94BA033C
:100050000C94BA030C94E52C0C94BA030C94BA03D8
:100060000C94BA030C94BA030C94BA030C94BA031C
:100070000C94BA030C94BA030C94BA030C94BA030C
:100080000C94BA030C94BA030C94BA030C94BA03FC
:100090000C94BA030C94BA030C94BA030C94BA03EC
:1000A0000C94BA030C94BA030C94BA030103E10153
:1000B00003E2000102E10102E2001E0000001F0055
:1000C00020002100220023000000000000000000AA
:1000D00000002B0014001A000800150017001C0077
:1000E00018000C00120013002A0029410400160019
:1000F000070009000A000B000D000E000F0033007E
:100100003441E1001D001B0006001900050011002C
:1001100010003600370038002842E0000251E300AA
:1001200000000000000000002C000000E500E600D8
:100130000353010000000100010001000100010063
:100140000000000000000000000035001E021F0239
:100150002002210222022302240225022602270273
:100160004C000100310034002D002E002F00300023
:100170005100520050004F00010001002900010011
:100180004600010001000100AD00AE00AC00AB0074
:10019000010001000100010000000000000000005B
:1001A0000100000001000100005C010000000100EE
:1001B000010001000100010000000000000000003B
:1001C000000035021E001F00200021002200230035
:1001D00024002500260027000100290031023402F6
:1001E0002D022E022F023002210022002300A9003E
:1001F00001000100010001000100010001002700D1
:100200001E001F002000AA000100010001000100E3
:1002100000000000000000000100000001000100DB
:1002200001000100000001000100010001000100C7
:1002300000000000000000000000010001000100BB
:1002400001000100010001003A003B003C003D00BC
:10025000010029000100010001000100010001006E
:100260003E003F00400041000100E10001000100AC
:10027000010001000100010042004300440045006C
:1002800001000100E2000100000000000000000089
:10029000010000000100010001000000000000005A
:1002A00000002A2B280000000000000000000000D1
:1002B000000000000029000000002C1E3420212234
:1002C00024342627252E362D3738271E1F2021229D
:1002D000232425263333362E37381F040506070816
:1002E000090A0B0C0D0E0F10111213141516171806
:1002F000191A1B1C1D2F3130232D35040506070844
:10030000090A0B0C0D0E0F101112131415161718E5
:10031000191A1B1C1D2F3130354C00000000000045
:1003200000000000000000000000000000000000CD
:1003300000000000000000000000000000007E0F30
:1003400000D4FFFFFFC700000078FD377A585A003D
:100350000004E6D6B4460200210116000000742F06
:10036000E5A3E001F900DE5D003D8889C65436C38F
:10037000174FE4E7DB4C8CCFA87ADDA20D334D4755
:10038000CC84F71D5254F61A0CBD6A33F3598ABC5B
:100390003D5738DCB7E0C117591792AC112C19A2A0
:1003A0006C841A7576742F8650A49BBE630F40210F
:1003B000FACE977191A07B1872D3F82B607681B238
:1003C000B74866BC8FC5D7744479FC937806D4735C
:1003D0002AE9CCE8FB714DFC50CDBD61691AAE76BF
:1003E000CFB6DEB47320DF0C1E8635480DAA7ABE68
:1003F00099E9C748148C1423DD6995700A2937617F
:10040000874A4D45350C9E635BFC43F2EB500CB2C2
:10041000276D1130012ADA20B73DC4AA4EED9EAEF9
:10042000A72622CB0B91295CD5C06D5A4C0ED6BFA6
:10043000EF750896DEC3C82EC3095D57192E176ADB
:100440006D0A61C7FE22000000004E67853256D853
:1004500072DA0001FA01FA030000888FA1A1B1C489
:1004600067FB020000000004595A01000100CA03A2
:10047000000002000200C603000003000100CB03DD
:10048000000004000200B003F01505000100CC03D9
:10049000000006000200B203000007000200C803CB
:1004A000000008000100CD03000009000200B403B1
:1004B000CB150A000200B603CB150B000200B803EF
:1004C000CB150C000200BA03CB150D000200BC03D3
:1004D000CB150E000200BE03CB150F000200C003B7
:1004E000CB1510000200C203CB1511000200C4039B
:1004F000CB1512000200CE03000013000200D0034F
:1005000000001C037600690061006C003A00660080
:1005100036003400630032006200330063000000E4
:100520001003560034004E003400470030004E00E7
:1005300000002203540068006500560061006E0050
:1005400020004B006500790062006F0061007200BE
:100550006400730000000403090409025B00030146
:1005600000A032090400000103010100092111016A
:1005700000012240000705810308000A0904010068
:1005800002030000000921110100012222000705D9
:100590008203200001070503032000010904020073
:1005A000010300000009211101000122BC00070520
:1005B000840320000A1201100100000008AEFE476B
:1005C000880100010203010660FF0961A1010962BF
:1005D000150026FF00952075088102096315002685
:1005E000FF00952075089102C005010902A101854F
:1005F000020901A100050919012905150025019528
:100600000575018102950175038101050109300914
:10061000311581257F9502750881060938158125D8
:100620007F950175088106050C0A38021581257F22
:10063000950175088106C0C005010980A1018503E7
:1006400019012AB700150126B70095017510810020
:10065000C0050C0901A101850419012AA002150198
:1006600026A002950175108100C005010906A101AF
:100670008505050719E029E715002501950875018D
:1006800081020507190029EF1500250195F0750174
:100690008102050819012905950575019102950149
:1006A00075039101C005010906A101050719E0299B
:1006B000E7150025019508750181029501750881EE
:1006C000010507190029FF150026FF00950675088A
:1006D000810005081901290595057501910295010B
:1006E00075039101C00011241FBECFEFDAE0DEBF19
:1006F000CDBF04B603FE27C08091E3039091E403CD
:10070000A091E503B091E6038730904BA740B04B32
:10071000D1F41092E3031092E4031092E5031092D7
:10072000E60314BE84B7877F84BF0FB6F894A895FC
:1007300080916000886180936000109260000FBE1D
:10074000E0E0F8E3099511E0A0E0B1E0E2EBFAE6C1
:1007500002C005900D92A43AB107D9F723E0A4EAAC
:10076000B1E001C01D92A33EB207E1F70E94DC2E6A
:100770000C9421350C940000CF93DF93AEE2B1E0EE
:1007800043E351E0C1E0D0E08D91E82FE295EF70B6
:10079000F0E061A18F709E0101C0220F8A95EAF7F7
:1007A000922F9095962391A382A1822B82A34A1720
:1007B0005B0751F7A2E2B1E04EE251E0C1E0D0E0C8
:1007C0008D91E82FE295EF70F0E061A18F709E01AE
:1007D00001C0220F8A95EAF7922F9095962391A354
:1007E00082A1822B82A34A175B0751F7DF91CF9139
:1007F00008956F927F928F929F92AF92BF92CF9205
:10080000DF92EF92FF920F931F93CF93DF932EE22D
:10081000C22E21E0D22E8C015C018AE0A80EB11C10
:10082000712C88248394912CF60181916F01C82F3B
:10083000C295CF70D0E099A18F70740101C0EE0C09
:100840008A95EAF7892F8E2989A38AA16E2C609454
:1008500086218AA30E94210AE2E2F1E050E040E012
:1008600030E020E06191A62FA295AF70B0E09096A5
:100870008C9190E06F7002C0959587956A95E2F72C
:1008800080FD34C0C401042E02C0880F991F0A9451
:10089000E2F7282B392B4F5F5F4F4C30510511F792
:1008A00089A1682269A28AA1E82AEAA2F8018081C6
:1008B000918128173907E9F03183208381E0782A74
:1008C0000E5F1F4F0A151B0509F0AECF872DDF9174
:1008D000CF911F910F91FF90EF90DF90CF90BF903D
:1008E000AF909F908F907F906F90089590E080E000
:1008F000D0CF80E0E4CF0C94FF090C94000A0C9454
:1009000083040C94B604CF93FB01C281CC2359F02D
:100910008E359D4529F483EB90E00E94B907C0E035
:100920008C2FCF9108958E359D4529F48CEA90E067
:100930000E94B907F5CFC1E0F3CF63FF03C02D9A42
:100940002C9A08952D982C980895269A2E9A259AD7
:10095000249A0E94D01D482F60916A0270916B0208
:1009600080916C0290916D020C949D040E94D01DA8
:10097000482F60916A0270916B0280916C02909195
:100980006D020C949D04CF92DF92EF92FF926B0167
:100990007C010E94D01D482FC701B6010E949D0412
:1009A000C701B601FF90EF90DF90CF900895CF93ED
:1009B000DF939C013A9521153F4168F5EC01CC2766
:1009C000D170DC01AA27B270AC01442754709C019D
:1009D0002227387094FF11C080E1CD2B09F480E00C
:1009E000AB2B09F08062452B09F08064232B09F0C2
:1009F0008068FB01DF91CF91099481E0CD2B09F450
:100A000080E0AB2B09F08260452B09F08460232B3A
:100A100081F38860EECFDF91CF910895CF93DF937C
:100A2000EC01805E9109089720F066E370E2209760
:100A300011F468E270E2CE010E94D7048C2FDF919E
:100A4000CF910C94881FCF93DF93EC010E94D61FA7
:100A5000CE01805E9109089720F06DE370E2209747
:100A600011F46FE270E2CE01DF91CF910C94D704C4
:100A700081E0089508950C943A051F93CF93DF9376
:100A800000D000D00F92CDB7DEB749835A836B8375
:100A90003091070289819A8131111DC06623B9F016
:100AA0002223A9F00E942A29182F682F89819A8170
:100AB0000E94CD2869817A81812F0F900F900F902D
:100AC0000F900F90DF91CF911F910C94B2140E9460
:100AD000FD28182FEFCF0E942A2969817A81EDCF56
:100AE000FC01262F408151816281738184810C94A5
:100AF0003D05CF93DF93EC0160E00E947005BE01DD
:100B0000DF91CF910C943B058F929F92AF92BF9251
:100B1000CF92DF92EF92FF920F931F936B017C01B4
:100B200081E090E0A0E0B0E04C015D0104C0880CE1
:100B3000991CAA1CBB1C4A95D2F7B501A4014C0113
:100B40005D0104C0880C991CAA1CBB1C2A95D2F715
:100B5000482959296A297B2904C0880F991FAA1F8F
:100B6000BB1F0A95D2F78A019B010C211D212E2162
:100B70003F21041715072607370789F48C299D297B
:100B8000AE29BF29BC01CD011F910F91FF90EF90BD
:100B9000DF90CF90BF90AF909F908F9008958095F9
:100BA0009095A095B0958C219D21AE21BF21EACFD3
:100BB0000F93382F262F60916A0270916B028091FB
:100BC0006C0290916D02042F432F0E9484050F91B7
:100BD0000C940B280E94DB090C947B040E94081CD7
:100BE0000E9491190E94C61C0C947D0408950E94D5
:100BF0005A200E94F6052FEF84E39CE021508040AC
:100C00009040E1F700C000000C94092D0F931F9352
:100C1000CF93DF93EC018B010E94661BB801CE01DC
:100C20000E94A90D882309F44FC0B801CE010E948B
:100C30007F04882309F448C0B801CE010E94AE1B8E
:100C4000882309F441C0B801CE010E94BC19882351
:100C5000D9F1B801CE010E94291D8823A9F1B8015C
:100C6000CE010E94A717882379F1B801CE010E9416
:100C7000F917882349F1B801CE010E941C19882375
:100C800019F1F8018281882361F0CA35FDE5DF079B
:100C900021F170F4C115ECE5DE07A1F0CE3DDC4595
:100CA000C9F0C801DF91CF911F910F910C943805C5
:100CB000CB358DE5D807A1F0CC35DD4591F70E9405
:100CC000082AEFCF0E94F70580E0DF91CF911F91B6
:100CD0000F9108950E94C02BF7CF0E94112AE1CFF7
:100CE0000E94142ADECFCF93DF93EC0161E00E94D3
:100CF0007005BE01DF91CF910C940606DF92EF9252
:100D0000FF920F931F93CF93DF93E82FF0E0E65607
:100D1000FD4FD490282F26952695269530E0F90191
:100D2000E65CFC4F0491877010E0082E02C0159518
:100D300007950A94E2F701701127F901E65DFC4F6F
:100D4000E490F12C082E02C0F594E7940A94E2F79F
:100D500091E0E922FF24F901E65EFC4FC491D0E066
:100D600002C0D595C7958A95E2F7C170DD270115B8
:100D7000110519F081EE0E94881FE114F10419F0A9
:100D800086EE0E94881F8D2D0E941C20EF2819F0EE
:100D900086EE0E94D61F012B19F081EE0E94D61F0D
:100DA000CD2B51F08CE2DF91CF911F910F91FF90ED
:100DB000EF90DF900C941C20DF91CF911F910F9149
:100DC000FF90EF90DF900895EF92FF920F931F93A3
:100DD000CF93DF93EC01162F0AE08881882309F472
:100DE00054C0813009F04EC08981813099F47E0170
:100DF00022E0E20EF11C8A810E941C20E70121966C
:100E0000812F815050F3EFE9FFE03197F1F700C0F7
:100E10000000F7CF823041F47E0182E0E80EF11C41
:100E20008A810E94881FEACF833041F47E01E2E08C
:100E3000EE0EF11C8A810E94D61FE0CF843011F0A3
:100E40002196DDCF2A81229690E080E0AE014F5FAF
:100E50005F4F2053330B2A30310548F0019778F269
:100E6000EFE9FFE03197F1F700C00000F7CF089FEE
:100E7000B001099F700D1124C901860F971F2981A8
:100E8000EA01E4CF0E947E06BACFDF91CF911F9195
:100E90000F91FF90EF90089560E00C94E406EF92BC
:100EA000FF920F931F93CF93DF938C01F62E8AE06E
:100EB000E82EF8018491882309F454C0813009F0A8
:100EC0004DC0E8012196FE018491813091F4219674
:100ED000FE0184910E941C208E010F5F1F4F8F2DF9
:100EE000815038F3EFE9FFE03197F1F700C00000DF
:100EF000F7CF823039F4E8012296FE0184910E94F6
:100F0000881FEACF833039F4E8012296FE018491EC
:100F10000E94D61FE1CF8430F9F6E8012296FE0147
:100F2000249190E080E0FE0131962053330B2A306B
:100F3000310548F0019780F2EFE9FFE03197F1F7D2
:100F400000C00000F7CFE89EA001E99E500D1124DB
:100F5000C901840F951F2491EF01E5CF0E947E0601
:100F6000E801BACFDF91CF911F910F91FF90EF90E1
:100F7000089560E00C944F0781E008950C94BC073D
:100F8000CF93C82F0E9481048C2FCF910C94BE0761
:100F900090E080E008950895FC01EE0FFF1FE65BEE
:100FA000FC4F859194910895CF93DF930E94B214E2
:100FB0000E94E908EC01811520E5920708F042C083
:100FC000811530E4930708F0BDC0883E910528F5EF
:100FD000803E910508F09DC0883A910588F4853AD5
:100FE000910508F08FC08130910509F492C00097F7
:100FF00009F48FC0049708F08CC0D0E0C0E089C02D
:101000008F3B910508F489C0805C9109C03CD105F3
:10101000A0F30E94CC07EC017CC08115904250F4F3
:10102000C11581E0D80708F074C0C03FD10528F38E
:10103000D0656FC0C11590E3D90708F079C0CE0123
:101040009F70E7CF811525E5920758F5811534E5A6
:10105000930708F0A6C0811542E5940750F4C11526
:1010600081E5D80708F471C0DC2FCC27C16FD06AA6
:1010700050C0982F969596959E0123703327C115E1
:10108000D34508F07FC0C1E0D0E002C0CC0FDD1F27
:101090002A95E2F720E2929FC0011124C82BD92B98
:1010A0006FC0C11589E5D807A8F4C11598E5D9071F
:1010B00008F07CC0C11526E5D20708F09ECF8C2F22
:1010C0000E948009C82FD0E0DC2FCC27CC27DF710D
:1010D000D0621FC0C1153AE5D30708F46CC0CE0139
:1010E00090568115904208F088CF8D2F8F710E9405
:1010F000800990E0982F882788279F719C012C2BCE
:10110000E901E6CFC55AD0E0CF59DE4FC881D0E023
:10111000D064CE01DF91CF910895C85AD0E0CC0FB2
:10112000DD1FCD5CDE4F0990D881C02DD464F1CF96
:10113000CE019927D3FF03C0EC01D86CEACFEC01B4
:10114000D06CE7CFDF70D06AE4CFCE01E4E09695B3
:101150008795EA95E1F783702C2F269526952370C5
:1011600090E2299F90011124382B8C2F8370C1E0CD
:10117000D0E002C0CC0FDD1F8A95E2F7C22BD32B43
:10118000DC68C7CFC1E0D0E002C0CC0FDD1F2A95DC
:10119000E2F730E2939FC0011124C82BD92BDA6803
:1011A000B8CFD82FCC27C46FD06AB3CFDC2FCC27D1
:1011B000C06FD06AAECF8C2F8F700E94800934E050
:1011C000D695C7953A95E1F7CF709C2FEC01D06981
:1011D000A0CF82389105B1F1B0F48133910509F4C3
:1011E00075C048F48932910509F469C08A329105C5
:1011F00009F473C008958533910509F459C0893302
:10120000910501F10895833E9105A9F138F4803EDE
:101210009105F9F0823E910549F10895863E9105C8
:10122000A9F1873E9105C9F1843E910519F52091F8
:10123000C10221FF1FC08091C00284FD14C087EE4F
:1012400090E008952091C0022370A1F080EE90E01C
:1012500008952091C00220FD47C03091C10230FFA7
:1012600009C024FF44C090E080E004C02091C00287
:1012700022FDF7CF08952091C00222FD3BC030919E
:10128000C10230FDE3CF24FFF5CFEDCF2091C002A6
:1012900023FFF0CF24FDE7CFD2CF2091C00223FD62
:1012A0002CC03091C10231FFEECF84EE90E0089562
:1012B0002091C00225FFDECF89E290E008952091C1
:1012C000C00225FFD7CF85E390E008952091C002AA
:1012D00026FFD0CF8AE290E008952091C00226FF39
:1012E000C9CF81E390E0089589E390E0089583EE0B
:1012F00090E0089582EE90E0089586EE90E00895E3
:101300009091C00292FF06C0282F28712830F9F46E
:10131000877F846093FF06C0282F28712831F1F45D
:10132000877E84612091C10220FF06C0382F38716A
:101330003830D9F4877F816021FF06C0282F2871BB
:101340002831D1F4877E816194FD877E0895282F0E
:1013500024712430F9F68B7F8860DCCF282F24712C
:10136000243101F78B7E8861DDCF382F3171313028
:1013700019F78E7F8860E0CF282F2171213121F766
:101380008E7E8861E1CF0C94830D0E944D0A8FE31D
:101390009CE90197F1F700C000000E944D0A80E02F
:1013A0000E94170A80FF04C00E94C3090C94092DF3
:1013B00008950C94C5090E941B2B811102C00E9444
:1013C000C02B0E94262B80939C020E942E2B909370
:1013D000C1028093C0020E94D9090E942A2B682F63
:1013E00070E090E080E00E94D12760916A027091E5
:1013F0006B0280916C0290916D020C940928089503
:101400000895E82FF0E0EE0FFF1FE453FD4F21E0B9
:1014100030E002C0220F331F6A95E2F7808191818C
:101420002823392381E0232B09F480E00895E82F55
:10143000F0E0EE0FFF1FE453FD4F8081918108958E
:10144000089580EA8A95F1F708950E94BC03A2EC02
:10145000B2E011961C921E92ECECF2E01182108226
:1014600013961C921E9212971382128215961C924A
:101470001E9214971582148217961C921E9216972C
:101480001782168219961C921E9218971186108642
:1014900085E00E94600A0C94EA05CF9382EC92E00A
:1014A0000E94F903C82F282F45E06CEC72E082EC13
:1014B00092E00E94610A0E94EE058C2FCF91089560
:1014C0000895FF920F931F93CF93DF93F82E092F68
:1014D000162FD72FC42F222349F081E08093A80133
:1014E0000E94BE2C9093A7018093A6018091A80131
:1014F0008823A1F08091A6019091A7010E94D62C8B
:10150000069760F0EF2DF02FA12FBD2F90E080E027
:10151000D0E08C179D0744F01092A801DF91CF9185
:101520001F910F91FF900895219131912D933D933B
:101530000196EFCF8091AF016091B8037091B9032C
:1015400080FF16C020910501269FC001279F900DA6
:101550001124BC017695679576956795603871057D
:1015600008F043C06115710509F441C0862F089544
:1015700081FF0BC020910501269FC001279F900D80
:101580001124BC0176956795E9CF82FF09C080914F
:1015900005019B01829FB001839F700D1124DECF56
:1015A0002091AE012223D1F2909104018091050196
:1015B000482F50E0291748F0CB01849FB001859F48
:1015C000700D949F700D1124C9CF289F9001112494
:1015D000269FA001279F500D369F500D1124692F83
:1015E00070E0CA010E947934B9CF8FE7089581E095
:1015F00008958091AF0180FF0CC06091010170E0FF
:1016000075956795759567956115710549F1862FF3
:10161000089581FF06C06091010170E0759567959E
:10162000F3CF6091010182FD0BC09091AD01992330
:10163000A1F06091000180910101961738F0682FA8
:1016400070E06038710500F38FE70895899FC0014D
:10165000112470E00E948D34F4CF61E070E0D7CFA8
:1016600081E00895803F31F40E949A0A8195809329
:10167000B3010895813F19F40E949A0AF8CF823F7E
:1016800031F40E949A0A81958093B2010895833FB4
:1016900019F40E949A0AF8CF893F29F40E94F90AA6
:1016A0008093B40108958A3F21F40E94F90A81953C
:1016B000F7CF8B3F31F40E94F90A81958093B501F1
:1016C00008958C3F19F40E94F90AF8CF843F31F451
:1016D0008091B10181608093B1010895853F21F42B
:1016E0008091B1018260F7CF863F21F48091B101F2
:1016F0008460F1CF873F21F48091B1018860EBCF06
:10170000883F21F48091B1018061E5CF8D3F31F4B4
:101710008091AF0181608093AF0108958E3F21F4E5
:101720008091AF018260F7CF8F3FB9F78091AF0111
:101730008460F1CF9091B201803F59F48091B30160
:1017400087FF0DC01092B30191110BC01092AE0132
:1017500008C0813F81F48091B30118169CF399234E
:1017600081F08091B4019091B501892B09F064C09A
:101770001092AD010895823F49F497FFF0CF109287
:10178000B2018091B3018111ECCFE0CF833F19F416
:101790001916ACF3E4CF2091B401893F29F4121655
:1017A000F4F61092B401DBCF8A3F19F427FFD7CFAC
:1017B000F8CF2091B5018B3F29F427FFD0CF1092AD
:1017C000B501CDCF8C3F19F41216CCF3C8CF843FAE
:1017D00031F48091B1018E7F8093B101C0CF853FFC
:1017E00021F48091B1018D7FF7CF863F21F4809164
:1017F000B1018B7FF1CF873F21F48091B101877FC9
:10180000EBCF883F21F48091B1018F7EE5CF8D3FF2
:1018100031F48091AF018E7F8093AF01A0CF8E3FD6
:1018200021F48091AF018D7FF7CF8F3F09F097CFE3
:101830008091AF018B7FF0CF08950E94BE2C9C0158
:101840009091B2018091B301982B21F03093AC01BB
:101850002093AB019091B4018091B501982B21F0B8
:101860003093AA012093A90180EB91E00C94F61D1E
:10187000EF92FF920F931F93CF93DF9300D000D08E
:1018800000D0CDB7DEB786E0E0EBF1E0DE011196E7
:1018900001900D928A95E1F7E090B201F090B301CA
:1018A0000091B4011091B5011092B2011092B301F0
:1018B0001092B4011092B5018E2D8F2991F0809174
:1018C000AB019091AC010E94D62CAC019091AE017D
:1018D000992309F43FC0809106018417150608F486
:1018E00047C0802F812B91F08091A9019091AA018E
:1018F0000E94D62CAC019091AD01992309F477C0D8
:10190000809102018417150608F47FC08091B2010E
:101910009091B301892B9091B401892B9091B501DD
:10192000892B11F00E941D0C86E0FE013196A0EB80
:10193000B1E001900D928A95E1F726960FB6F894E2
:10194000DEBF0FBECDBFDF91CF911F910F91FF90F2
:10195000EF900895209107018AE0289F90011124BB
:101960002417350708F0BDCF9F5F9093AE0102C0EA
:101970009F3FD1F7EE2059F00E949A0A9FEF1E1464
:101980000CF491E0899F802D11248093B201FF20F7
:1019900059F00E949A0A9FEF1F140CF491E0899F5E
:1019A000802D11248093B3013091B201332309F4C7
:1019B00098CF2091B301222309F493CF45EB340350
:1019C000C0011124992359F09093B20145EB2403EF
:1019D00090011124332339F03093B30182CF81E099
:1019E0008093B201F3CF81E08093B3017ACF20914D
:1019F00003018AE0289F900111242417350708F07D
:101A000085CF9F5F9093AD0102C09F3FD1F7002328
:101A100059F00E94F90A9FEF10160CF491E0899F8B
:101A2000802D11248093B401112359F00E94F90AEA
:101A30009FEF11160CF491E0899F802D1124809363
:101A4000B5013091B401332309F460CF2091B50181
:101A5000222309F45BCF45EB3403C0011124992301
:101A600059F09093B40145EB2403900111243323E2
:101A700039F03093B5014ACF81E08093B401F3CFC0
:101A800081E08093B50142CF86E0E0EBF1E0DF0139
:101A90001D928A95E9F71092AE011092AD01109255
:101AA000AF01089583E290E00E94D734803189F439
:101AB00084E290E00E94D7348C3559F485E290E0BE
:101AC0000E94D73491E08F3009F090E0892F817027
:101AD000089580E0FCCFCF93C82F6FEF811160E1B4
:101AE00083E290E00E94E5346FEFC1116CE584E27F
:101AF00090E00E94E5346FEFC1116FE085E290E065
:101B0000CF910C94E53480E00E946B0D0C94152B62
:101B1000089586E290E00E94D734682F70E090E04C
:101B200080E0089586E290E00C94E5340E94880DF0
:101B30000E94520D81110CC060E070E0CB010E9448
:101B4000920D0E9475130E94251581E00C946B0D77
:101B50000895CF93FB01C281CC2309F19C0122514E
:101B60003F452031310520F582510E943515C0E0F6
:101B70008C2FCF91089581E00E94312843E062E0EC
:101B800081E00E94D805F3CF81E00E94522843E013
:101B900062E081E00E94D805EBCF82E0F6CF803191
:101BA000FFE59F0789F381319F45B9F3C1E0E0CF9D
:101BB0008031EFE59E07F9F281319F45C9F682E059
:101BC000DBCF2FEFFC0120830895EF92FF920F935C
:101BD0001F93CF93DF93EC01162F88812091CC01C6
:101BE0003091CD01232B79F08E3F09F05CC08981C3
:101BF000833020F08550833008F055C0612FCE012E
:101C00000E94FA1050C08B3009F4EBC0D0F484303D
:101C100009F489C060F4823009F44FC008F076C03E
:101C20008130F1F1612FCE010E94E10D3CC0863080
:101C300009F48FC008F482C08A30A0F78FEF888340
:101C400032C0803109F4A5C000F58D3009F488C098
:101C500008F482C08E3009F48BC08F3019F7809160
:101C6000CE019091CF01892BF1F06B8170E06D3145
:101C70007105C8F489819A81AE014C5F5F4F982746
:101C8000892798270E94FA140EC0823109F487C070
:101C900008F482C0833109F493C08E3F19F6AECFA9
:101CA000198289E08A83612FCE01DF91CF911F9144
:101CB0000F91FF90EF900C94D02D8981823071F0BC
:101CC000833079F0813009F0ADCF0E94CA2C0E9498
:101CD000A7346A837B838C839D83E5CF0E94890D23
:101CE000F6CF8091CE019091CF01892BE1F27E0158
:101CF00000E0802F0E94170AF701928383830F5F11
:101D0000F2E0EF0EF11C0530A1F7CDCF89818230D2
:101D100009F088CF6A817B818C819D810E94A734E4
:101D20000E94920DC0CF4B816A8189810E94CA12A4
:101D30009827892798279D838C83B5CF2C813D8157
:101D40003227232732274B816A8189810E94EC1236
:101D5000AACF0E947513A7CF0E94CE148983A3CF68
:101D60000E94D0149827892798279A8389839BCF2C
:101D70006B8170E06D31710508F095CF89819A8192
:101D8000AE014C5F5F4F9827892798270E94D31494
:101D90008ACF0E94251587CF0E94B812DFCF6B81B2
:101DA00070E06D31710508F07ECF89819A81AE01B6
:101DB0004C5F5F4F9827892798270E94FA1373CFAB
:101DC0006B8170E06D31710508F06DCF89819A816A
:101DD000AE014C5F5F4F9827892798270E942014F7
:101DE00062CF8091CE019091CF01892B09F45BCF16
:101DF000CE010E94D02D2FEF81EE94E02150804043
:101E00009040E1F700C000000E94092D4CCF8F9256
:101E10009F92AF92BF92CF92DF92EF92FF920F9379
:101E20001F93CF93DF93CDB7DEB72A970FB6F89401
:101E3000DEBF0FBECDBF06ED12E0F12CE12C81E339
:101E4000C82E80E1D82E9BE5A92E90E1B92E2CE872
:101E5000822E2FE0922EF801D182C082B382A2821C
:101E600095828482F58AE48ABE016F5F7F4F8E2D52
:101E70000E942513892B29F489859A85F801938B73
:101E8000828BFFEFEF1AFF0A0A5E1F4F88E0E81609
:101E9000F10409F72A960FB6F894DEBF0FBECDBF46
:101EA000DF91CF911F910F91FF90EF90DF90CF9036
:101EB000BF90AF909F908F900895CF93DF9300D005
:101EC00000D00F92CDB7DEB79093AF038093AE03EF
:101ED000811520E2920748F40F900F900F900F9019
:101EE0000F90DF91CF910C9423058EEF89838A8325
:101EF0001B820E94BE2C8160782F9D838C83498138
:101F00005A816B818D810F900F900F900F900F90E1
:101F1000DF91CF910C942C1F0F931F93CF93DF93DE
:101F20008C01EB0166EB71E08C2F0E942513892B4D
:101F3000A1F48091CE039091CF03019798F4DD270F
:101F4000C054DE4F8881F80110821882833041F13D
:101F500080F4813091F08230B9F0DF91CF911F9100
:101F60000F910895EFE9FFE03197F1F700C000000D
:101F7000E4CF8430D1F0853081F78091B601909123
:101F8000B701009751F306C08091B8019091B90153
:101F9000009799F3DF91CF911F910F910C945D0FF2
:101FA0008091BA019091BB01F3CF8091BC019091D7
:101FB000BD01009779F72091B6013091B70180916A
:101FC000B8019091B90121153105D9F2009711F7A7
:101FD000C901E0CFCF93DF9300D000D00F92CDB7EF
:101FE000DEB79093AF038093AE03811520E2920792
:101FF00048F40F900F900F900F900F90DF91CF91BA
:102000000C940E058EEF89838A8381E08B830E9476
:10201000BE2C8160782F9D838C8349815A816B818E
:102020008D810F900F900F900F900F90DF91CF91B7
:102030000C942C1FCF93DF93EC010E94EA0F809148
:10204000CE039091CF03019728F4CE01DF91CF9179
:102050000C945D0FEFE9FFE03197F1F700C000004D
:10206000F2CF0F931F93CF93DF938C01862F66EBF4
:1020700071E00E942513892BC9F4C091B601D0915B
:10208000B701209799F0F8018081833069F4CE017F
:102090000E941A10CE010E941A10CE01DF91CF913A
:1020A0001F910F910C941A108430B8F7DF91CF91E3
:1020B0001F910F9108950F931F93CF93DF938C017E
:1020C000EB0166EB71E08C2F0E942513892B09F040
:1020D00064C0FE01FF27D8018C91E054FE4F81308F
:1020E000D9F419969C911997992311F080830CC00B
:1020F0001A969C919923D1F382E080838091B80154
:102100009091B9010097D9F48091B6019091B701EF
:10211000009709F442C013C08230E9F519968C91FA
:10212000199781112DC01A968C9181110EC083E0F0
:1021300080838091BA019091BB01009719F1DF91E2
:10214000CF911F910F910C94EA0F84E080838091CE
:10215000BC019091BD01009791F78091B6019091DB
:10216000B7010097F9F00E941A108091B801909180
:10217000B901009721F78091B6019091B701DFCFA7
:1021800085E080838091B6019091B701009729F096
:102190000E941A10F0CF86E08083DF91CF911F91CB
:1021A0000F9108958091B8019091B901B1CF0E942B
:1021B000070FE6E8F3E01182108281E090E0968359
:1021C000858382E090E09387828783E090E0908B24
:1021D000878784E090E0958B848B85E090E0928FF8
:1021E000818F86E090E0978F868F87E090E094A3C0
:1021F00083A30895CF92DF92FF920F931F93CF9303
:10220000DF93CDB7DEB72A970FB6F894DEBF0FBEC7
:10221000CDBF8C01603269F5DC011196EC9111970C
:10222000EE3038F5F0E0ED5DFA4C0C94A13488E026
:10223000EAE1F1E0DE01119601900D928A95E1F755
:1022400080E2F80111928A95E9F784E0D8018C9335
:1022500011961C92119712961C92129713961C922B
:10226000139788E0FE013196149601900D928A959D
:10227000E1F72A960FB6F894DEBF0FBECDBFDF910F
:10228000CF911F910F91FF90DF90CF90089580E242
:10229000F801808381E0818312821382EACF139652
:1022A0008C911397682F70E0762F662712968C9189
:1022B000860F972F911D092E000CAA0BBB0B45E032
:1022C000880F991FAA1FBB1F4A95D1F7AC01BD010A
:1022D000405E5F4F6F4F7F4F481759076A077B0774
:1022E00040F28032E1E09E07A105B10510F64132CF
:1022F000F1E05F076105710520F040E251E060E028
:1023000070E0481B590BBC01665B7C4FC8010E9402
:10231000AE34AFCF40E250E06FEF70E00E94C034C7
:102320008091CE01D8018C938091CC0111968C9331
:10233000119781E012968C93129713961C92139723
:1023400083E014968C9314978BE015968C9391CF21
:1023500081E090E09093CD018093CC0182E390E006
:102360009093CB018093CA010E94BE2C9093C90127
:102370008093C8017ECF8091CC019091CD01892BB3
:1023800091F160E081E00E94010AD82E6BE083E0C9
:102390000E94010AF82E8091C8019091C9010E9403
:1023A000D62C8536910550F1DD2041F1FF2031F129
:1023B0000E94BE2C9093C9018093C8018091CA01EC
:1023C0009091CB0101979093CB018093CA01892B07
:1023D00051F41092CD011092CC0181E090E09093E5
:1023E000CF018093CE018091CE01F801808380914E
:1023F000CC0181838091CA0182833BCF82E390E04C
:102400009093CB018093CA01EECF1092CF0110922E
:10241000CE012FCF40E250E0BC0112968D919C91ED
:102420000E94761626CFBC016F5F7F4F4FE150E0D0
:10243000FC01828193810E94A816D8018C9319CF48
:10244000BC016C5F7F4F4CE150E0FC0182819381C5
:102450000E94D016F2CF0E9437160BCFFC0182816A
:102460008230E1F1E0F4882389F1813009F001CF75
:1024700013968C912AE0F22EFE0131966F01DF0156
:10248000EF2D1D92EA95E9F7B6010E942513D801B8
:102490008D93F60101900D92FA94E1F7EACE833024
:1024A00089F1843009F0E5CE13968C919AE0349648
:1024B000DE01119601900D929A95E1F7BE016F5FD2
:1024C0007F4F0E946113F8018083D3CE80E21D927A
:1024D0008A95E9F788E080838183CBCE13968C912F
:1024E0009AE03496DE01119601900D929A95E1F7EB
:1024F000BE016F5F7F4F0E943913F80180830E94F5
:10250000070FB7CE13968C919AE0F92EFE01319603
:102510006F01DF01EF2D1D92EA95E9F7B6010E94E8
:102520004D13B5CF1F93CF93DF93CDB7DEB72A9767
:102530000FB6F894DEBF0FBECDBF162FBE016F5F82
:102540007F4F0E944D13892B31F489859A85112381
:1025500061F00E94EA0F2A960FB6F894DEBF0FBE14
:10256000CDBFDF91CF911F9108950E945D0FF3CFF2
:1025700084E0089550E0440F551F98E1699F400D95
:10258000511D112498E7899F400D511D1124CA0146
:10259000879608950F931F93CF93DF938430C8F4E9
:1025A0006530B8F44C30A8F40E94BA128C010E9435
:1025B000D734C82FD0E0DC2FCC27C80101960E9469
:1025C000D7349E01282BC901DF91CF911F910F9124
:1025D000089590E080E0F8CF0F931F93CF93DF939F
:1025E000E9018430E0F46530D0F44C30C0F42115BA
:1025F0003C4531F42091CE013091CF01232B79F06D
:102600000E94BA128C016D2F0E94E5346C2FC80114
:102610000196DF91CF911F910F910C94E534DF91DA
:10262000CF911F910F9108958232910520F4895F17
:102630009D4F0C94D73480E008958232910520F4A8
:10264000895F9D4F0C94E53408959B01883070F4A8
:102650009AE0899FB0011124675D7D4F4AE050E008
:10266000C9010E94C73490E080E008958FEF9FEF8A
:1026700008959B01883070F49AE0899FB00111247D
:10268000675D7D4F4AE050E0C9010E94093590E046
:1026900080E008958FEF9FEF08959B01883070F4DC
:1026A0009AE0899FB001112467587D4F4AE050E0BD
:1026B000C9010E94C73490E080E008958FEF9FEF3A
:1026C00008959B01883070F49AE0899FB00111242D
:1026D00067587D4F4AE050E0C9010E94093590E0FB
:1026E00080E008958FEF9FEF08957F928F929F92E1
:1026F000AF92BF92CF92DF92EF92FF920F931F9310
:10270000CF93DF93CDB7DEB764970FB6F894DEBFF3
:102710000FBECDBFA090CE01B090CF0181E090E080
:102720009093CF018093CE018AEBC82E80E0D82E03
:1027300000E0760110E015C0F40125913491472D99
:10274000612F802F0E94EC1282E0880E911C7394FE
:102750009CE07912F1CFE8E1EE0EF11C1F5F15301D
:1027600019F04701712CE8CF0F5FF8E7CF0ED11CAD
:102770000430F9F60E9437161C861B861E861D86BD
:10278000188A1F861A8A198A8FEA90E09C8B8B8B95
:1027900010E0BE01655F7F4F812F0E9439131F5FDC
:1027A0001830B9F7CE0101967C018AE0F701119249
:1027B0008A95E9F710E0B701812F0E9461131F5F2E
:1027C0001830C9F7B092CF01A092CE0164960FB62F
:1027D000F894DEBF0FBECDBFDF91CF911F910F9157
:1027E000FF90EF90DF90CF90BF90AF909F908F9031
:1027F0007F900895EF92FF920F931F93CF93DF93F3
:10280000EC018A017C01E60EF71ECE018796CE15FB
:10281000DF0539F4DF91CF911F910F91FF90EF9079
:102820000895C03E21E0D20740F40E94D734F80159
:1028300080830F5F1F4F2196E8CFF8011082F9CFF8
:102840004F925F926F927F928F929F92AF92BF92C0
:10285000CF92DF92EF92FF920F931F93CF93DF936C
:10286000EC017B018A01803E9140D8F480EE91E03A
:102870008C1B9D0B86179707A0F03E0137E2630E75
:10288000711C8091CE019091CF012E01460E571EF2
:10289000892BC1F07E01C7018796E414F50409F085
:1028A00050C0DF91CF911F910F91FF90EF90DF907B
:1028B000CF90BF90AF909F908F907F906F905F90E0
:1028C0004F9008956E0181E0C822DD24C0FF0FC043
:1028D000CE0186960E94D734F801908189279827E7
:1028E000892781159C4519F48FEFF80180835701E2
:1028F00040FE13C0F1E0AF1AB10848018A0C9B1CDE
:10290000C3018E0D9F1D0E94D734F4019081811563
:102910009C4519F48FEFF4018083F801EC0DFD1D47
:102920002FEFCA14DB0408F0B5CF908181818115A7
:102930009C4511F42083218382E0C80ED11C32967D
:10294000F0CFE0EEEE16E1E0FE0640F4F701EC1BFE
:10295000FD0BE00FF11F60810E94E534FFEFEF1ADD
:10296000FF0A99CF462F2091CC013091CD01232B26
:1029700091F47E3F39F46E3F71F48091AE039091F3
:10298000AF030895843038F4753028F46C3018F4AF
:10299000672F0C94CA1290E080E0089580E10895BA
:1029A00087E391E00895EF92FF920F931F93CF93E7
:1029B000DF93EC018A017C01E60EF71ECE018753FE
:1029C0009D4FCE15DF0539F4DF91CF911F910F9107
:1029D000FF90EF900895C73321E0D20740F40E94A2
:1029E000D734F80180830F5F1F4F2196E7CFF8019E
:1029F0001082F9CFCF92DF92EF92FF920F931F9345
:102A0000CF93DF937C016A018C01060F171FEC0145
:102A1000CE0187539D4FC017D10749F4DF91CF9165
:102A20001F910F91FF90EF90DF90CF900895C733E3
:102A300021E0D20740F4FE01EE19FF09EC0DFD1D67
:102A400060810E94E5342196E3CFCF93DF93C9ECF8
:102A5000D2E060E0CE010E94E5342196C11584E009
:102A6000D807B9F7DF91CF910895BF92CF92DF9247
:102A7000EF92FF920F931F93CF93DF9300D000D07C
:102A8000CDB7DEB7F82E2FE0281740F08FEF93E098
:102A90000E94D73409EC12E08823D1F00F900F90F8
:102AA0000F900F90DF91CF911F910F91FF90EF90BA
:102AB000DF90CF90BF900895011544E0140771F3A3
:102AC000C8010E94D734811101C0FA940F5F1F4FD3
:102AD000F110F2CF19821A821B821C82BB24BA9495
:102AE00078015FEFE51AF50AC8010E94D73489839F
:102AF0001A82882399F2813009F047C0680182E088
:102B0000C80ED11CC7010E94D734E82E8A838823BF
:102B100029F2C6010E94D734F82E8FEF8E0D833034
:102B200068F46801E3E0CE0ED11CFB82FF2021F0A7
:102B3000CE0101960E944C078601D2CFF4E0EF123D
:102B4000FBCF680124E0C20ED11CC80103960E948D
:102B5000D734FF2009F4A2CF882309F49FCF8150F6
:102B6000990BB89E9001B99E300D11244F2D415004
:102B7000550BCA01820F931F0197F0F2EFE9FFE0B6
:102B80003197F1F700C00000F7CFCE0101960E9407
:102B90004C076701D1CFE0EBF3E0848195812AE017
:102BA00030E0B9010E9479346093070186818093F7
:102BB00006018285809305018485809304018685C2
:102BC0009785B9010E9479346093030180898093CD
:102BD0000201828980930101848980930001089514
:102BE0008091B0039091B1030C94FB1C0F931F9341
:102BF000CF93DF9300EB13E0D0E0C0E0CE010E9462
:102C00001413F80161918F01861719F0CE010E940B
:102C10001D132196C232D10589F7DF91CF911F9103
:102C20000F9108950F931F93CF93DF9300EB13E061
:102C3000D0E0C0E0CE010E941413F80181938F010F
:102C40002196C232D105B1F7C0E7D4E0FE018591EB
:102C50009491009711F0FC0109952896F5E0C83091
:102C6000DF07A1F7DF91CF911F910F910895E0EB5E
:102C7000F3E0128E138E8FEA90E09183808325E03B
:102C8000248F28E833E1338322834CE251E05583DB
:102C9000448322E330E03783268325E030E0318728
:102CA00020872AE030E03387228764E170E075876F
:102CB00064875787468744E650E0518B408B48E055
:102CC00050E0538B428B48E250E0558B448B978BFE
:102CD000868B918F808F158E378F268F80E590E0C1
:102CE00091A380A30E94F6150C941216EF92FF9206
:102CF0000F931F93CF93DF937C01EB018A016FEF5A
:102D000070E0CE010E94C0342AE634E0A2E0B5E0D3
:102D100090E080E0AC014E5F5F4F0417150788F02C
:102D2000F90165917491E616F70630F48C0F9D1F3A
:102D3000FC0171836083CA01285F3F4FA217B3076C
:102D400049F7DF91CF911F910F91FF90EF90089578
:102D5000DC01CB012AE634E0F90165917491A617F4
:102D6000B70749F0285F3F4F65E022303607A1F7EB
:102D70008FEF9FEF0895B9016E5F7F4FFB01A59123
:102D8000B4914A175B07A0F3FB0145915491F901F7
:102D90003496659174910E94B73490E080E0089574
:102DA000CF93DF93CAE6D4E0FE01259134918217D8
:102DB000930741F0289625E0C230D207A9F78FEF9C
:102DC0009FEF1DC0CE010296FC0125913491421760
:102DD0005307A8F3FC0145915491FE013496859167
:102DE00094910E94B7340E94F615FE0136968591A3
:102DF0009491009711F0FC01099590E080E0DF913B
:102E0000CF9108958091C8039091C903089580914E
:102E1000CD03817008958091CD03869581700895CA
:102E20008091CD0382FB882780F908958091CD039E
:102E300083FB882780F90895AF92BF92CF92DF92EB
:102E4000EF92FF920F931F93CF93DF937C015B016F
:102E5000C42FD22FFC0182818823F9F04093D20144
:102E60000E94BE2C9093D1018093D00180E28C0F00
:102E7000883008F061C0C77081E001C0880FCA9532
:102E8000EAF7DF91CF911F910F91FF90EF90DF90C4
:102E9000CF90BF90AF900C9428201091D2011413C2
:102EA00040C08091D0019091D1010E94D62C6C013C
:102EB000B701C5010E940217C816D90690F5C0E2F5
:102EC000CD0F1D17B9F080E2810F883040F41770E4
:102ED00081E001C0880F1A95EAF70E942F20C830C0
:102EE00048F481E09D2F977001C0880F9A95EAF70A
:102EF0000E942820802F0E941C20C830E8F4D77040
:102F000081E001C0880FDA95EAF7DF91CF911F9138
:102F10000F91FF90EF90DF90CF90BF90AF900C9407
:102F20002F2080E28C0F883038F4C77081E001C018
:102F3000880FCA95EAF7E9CFDF91CF911F910F91E2
:102F4000FF90EF90DF90CF90BF90AF9008950F93D8
:102F50009C01CB01233F4CE5340759F1A8F4283DEF
:102F6000FCE53F0701F1293D4CE53407D1F1273D50
:102F70003C4591F406E221EE41EE67ED7CE50E94CE
:102F80001C1780E00F910895253FFCE53F07E9F00D
:102F9000B0F0263F3C45F9F0FC018281882339F1ED
:102FA0001092D201EFCF07E225EE45EE68ED7CE509
:102FB000E6CF06E221EE40EE63EF7CE5E0CF07E2EC
:102FC00025EE44EE64EF7CE5DACF06E221EE42EE38
:102FD00065EF7CE5D4CF07E225EE46EE66EF7CE5B3
:102FE000CECF08E221E045EE69ED7CE5C8CF81E077
:102FF000C9CFCF93DF93EC01FB018281882309F4D1
:1030000019C1C230FCE5DF07C0F1C6319CE5D90724
:1030100030F09E012A5F3C452930310570F50E9451
:103020002E2B9093C1028093C002C031ECE5DE07E5
:1030300009F4CFC008F05BC0C8308CE5D80709F4AC
:10304000B6C088F5C430ECE5DE0709F4A8C0C0F4CA
:10305000C2308CE5D80709F49CC08091C002826020
:10306000C330DC4509F498C08091C0029091C10240
:103070000E943C2B0E945A2080E0DF91CF9108955E
:103080008091C0028061C630ECE5DE0709F484C09F
:103090008091C0028860C730DC4508F47DC0809113
:1030A000C002806279C0CC308CE5D80709F489C0B1
:1030B00070F48091C0028C60CA30ECE5DE0709F440
:1030C0006BC008F478C08091C0028E7F65C0CE309E
:1030D0008CE5D80709F479C08091C0028B7FCF308E
:1030E000DC4508F459C08091C0028F7E55C0CB3FAB
:1030F000ECE5DE0709F457C030F5C3318CE5D8079D
:1031000009F46FC078F4C131ECE5DE0709F465C05D
:10311000C231DC4509F0A8CF0E945A208091C0023C
:103120008F773AC0C5318CE5D80709F462C008F43E
:1031300076C08091C1028160CA3FDC4509F094CF1E
:103140008093C10291CFCF3FFCE5DF0709F44DC06A
:1031500088F48091C1028D7FCD3F9CE5D90781F332
:103160008091C1028E7FCE3FDC4550F38091C10239
:103170008360E6CFC130FDE5DF0709F459C008F4EC
:1031800044C080E0C230DD4509F06ECF0E94C22B02
:103190006BCF8091C00281608093C00265CF809127
:1031A000C0028460F9CF8091C1028260C9CF809152
:1031B000C0028064F1CF0E945A208091C0028068D2
:1031C000EBCF8091C0028D7FE7CF8091C002877FD7
:1031D000E3CF8091C0028F7DDFCF8091C0028F7BD3
:1031E000DBCF8091C002837FD7CF8091C1028C7FDB
:1031F000A7CF8091C00282FB992790F921E0922706
:1032000090FB82F990FB83F9C7CF8091C102982F80
:10321000909591708E7F892B90FB81F991CF0E94C0
:103220005A209091C002892F97FB87F98058B4CF1C
:1032300081E0ACCF81E021CFCF93DF93EB018631EA
:103240009C4509F03BC00E94172A982F9A7A20913A
:10325000CA0320FF04C0382F347409F090E021FF26
:1032600004C0382F317109F090E022FF04C0382FDC
:10327000387809F090E023FF03C0827209F090E0F3
:103280008A81882389F081E0911101C080E08093D8
:10329000D30189E2911185E30E949A290E948F2A25
:1032A00080E0DF91CF9108958091D301811104C016
:1032B00089E20E94A129F2CF85E3FBCF81E0F1CF23
:1032C000E6E8F3E083E0EE3AF80739F488E090E0CE
:1032D0009093E5018093E4010895848187FF14822F
:1032E0003596F0CFCF939091E201992321F081118F
:1032F00016C01092E201CF910895EC2FF0E0EE0F8E
:10330000FF1FEC52FE4F808191810E940E050E94AA
:103310008F2ACF5F8091E201C81778F3EACFC0E02F
:10332000F9CF809108018823A1F08091E601909166
:10333000E701009771F00E94D62C2091C6033091CE
:10334000C7032817390728F481E00E9472190C94EA
:1033500060190895109208011092E7011092E60199
:1033600081E00C9472198091080181110C94AA19C2
:1033700081E08093080108952F923F924F925F92CF
:103380006F927F928F929F92AF92BF92CF92DF9275
:10339000EF92FF920F931F93CF93DF93CDB7DEB7DA
:1033A0002A970FB6F894DEBF0FBECDBF7C016B012C
:1033B000873F4CE5940709F5FB011281112391F138
:1033C00081E080930801812F2A960FB6F894DEBF22
:1033D0000FBECDBFDF91CF911F910F91FF90EF9066
:1033E000DF90CF90BF90AF909F908F907F906F9025
:1033F0005F904F903F902F900895883FFCE59F0786
:1034000039F4FB011281112369F00E94AA19DBCF64
:10341000893F9C4539F4FB011281112319F00E9468
:10342000B319D1CF4090080111E0442061F210920D
:10343000E5011092E40110E095E0392E8824839490
:10344000912C22242394A090E401B090E501F8E0AF
:10345000AF16B10480F08091E301882309F4B2C073
:103460000E94BE2C9093E7018093E6011092E30145
:1034700081E01827A8CF3A9CF0013B9CF00D112465
:10348000EA57FC4FBE016F5F7F4F80810E944D1352
:10349000892B61F000E0102B8091E4019091E5010F
:1034A00001969093E5018093E401CDCFFE01319622
:1034B00090E080E055245A94282F41915191411574
:1034C000510589F1E416F50609F4582E0196843069
:1034D000910591F724E0FFEF5F16E1F2F60102811A
:1034E0003A9CC0013B9C900D1124AC014A575C4FA3
:1034F0003A01FA018481A40102C0440F551F2A95A4
:10350000E2F79A0121503109002349F1A40101C0D9
:10351000440F5A94EAF7842B84838F77821713061B
:1035200031F0042DB8CF823008F4B4CFD4CF80E08E
:103530000E947219F301848180688483828193815F
:10354000009729F00E940E052092E301A4CF61E0CC
:103550008091E4019091E5010E949212F5CF8F775E
:103560008217130631F482819381009719F10E942A
:1035700023053A9CF0013B9CF00D1124EA57FC4FC7
:103580004481242F30E0052C02C0359527950A94FC
:10359000E2F720FF7FCFC40101C0880F5A94EAF7F9
:1035A00080958423848387FF75CF803809F0B9CF55
:1035B0001482B7CF60E08091E4019091E5010E9410
:1035C0009212D7CF111106C081E00E9472190E9499
:1035D00060194ECFF6018281882309F449CF0E94F9
:1035E000BE2C9093E7018093E601E091E201E73081
:1035F00008F03ECF81E08E0F8093E201F0E0EE0F05
:10360000FF1FEC52FE4FF182E08232CFCF93DF9367
:10361000EC0181E0898B8F810E941A2A88850E94A3
:103620002D2A0E948F2AEA81FB81309739F06C891C
:103630007D89CE010696DF91CF910994DF91CF91DC
:103640000895EF92FF920F931F93CF93DF93EC01B6
:103650008A85811134C0EB80FC8087E5F81A26E169
:103660002E9DC0012F9D900D1124DC01AA52BD4F4B
:103670001496ED91FC911597309731F054966D9119
:103680007C9184529D4F099586E18E9D80018F9D8E
:10369000100D11240A521D4FF80187810E94202A23
:1036A000F80180850E94332A0E948F2A1882198689
:1036B0001B861E821D821092E9011092E801DF91A3
:1036C000CF911F910F91FF90EF900895DF92EF92AD
:1036D000FF920F931F93CF93DF937C01FB018281B5
:1036E000882391F0809109018F3F71F0C6EDD2E0FF
:1036F00010E000E0DD24D39480910901082E000C35
:10370000990B8017910744F4DF91CF911F910F918E
:10371000FF90EF90DF9008958E818823D9F08985FE
:103720009A858E159F0539F48091E8019091E90101
:103730008E159F0579F0DF86FC86EB8689898111DD
:1037400003C0CE010E94061BCE0106960E94211BDB
:103750000E943A2A0F5F1F4F6696CECFEF92FF92DC
:103760000F931F93CF93DF937C0197558F3F910564
:1037700009F0D8F520910901022E000C330B28170F
:10378000390714F480930901FB01228136E1389F47
:103790008001399F100D1124E801CA52DD4F288B9A
:1037A00092818E81992349F1FA86E9868F5F8E8313
:1037B0000E94BE2C9E878D870E944D2A8F830E9477
:1037C000172A88870E942A2A9885892B8887E8816A
:1037D000F981309731F06C897D89C80184529D4F01
:1037E0000995F092E901E092E80181E0DF91CF9143
:1037F0001F910F91FF90EF9008958823B1F389896D
:10380000882399F3C80184529D4F0E94211BEDCF5C
:10381000CF92DF92EF92FF920F931F93CF93DF939C
:103820008091090110E006E18F3FF1F5DF91CF9122
:103830001F910F91FF90EF90DF90CF9008950E9D14
:10384000F0010F9DF00D1124EA52FD4FC288D3887C
:10385000C114D10439F470E060E0818592850E9442
:1038600002176C010E9DE0010F9DD00D1124CA526C
:10387000DD4F8E818823B9F08D859E850E94D62CE0
:10388000C816D90680F4109F70011124898981110E
:1038900005C0C7018A529D4F0E94061BC701845272
:1038A0009D4F0E94211B1F5FE12EF12C8091090189
:1038B000082E000C990B8E159F050CF6B7CFFF92C2
:1038C0000F931F93CF93DF938C01EB01F42E809124
:1038D0000A0182FF4AC08B7F80930A018091EC012C
:1038E0009091ED019B01281B390BC90120910B011F
:1038F00030910C0182179307B8F48091EA010E947D
:10390000881F80910A018D7F80930A018091CE03E8
:103910009091CF03019710F58091EA010E94D61F84
:1039200082E00E94332A2BC082E00E942D2A8091DF
:10393000EA010E94881F80910A01826080930A0137
:103940008091CB0385FFE2CF86FDE0CFFF20F1F22F
:10395000DF91CF911F910F91FF900895EFE9FFE064
:103960003197F1F700C00000D5CF802F0E94D61FFD
:103970008091EA019091EB018017910789F20E94F2
:103980008F2AD093ED01C093EC01E2CF8091CB035D
:1039900080FF1DC080910A0182FF19C00E94BE2CC9
:1039A0002091EC013091ED01AC01421B530B9A01C7
:1039B00040910B0150910C012417350740F041E074
:1039C000BC018091EA019091EB010C945F1C089579
:1039D00090910A01892F8E7F90FF816080930A0168
:1039E00082E00C94332A80910A018E7F80930A0131
:1039F00082E00C94332A90930C0180930B0108957C
:103A00008832910538F48E319105E8F40497A0F4DA
:103A100080E008958933910558F48D32910510F4B2
:103A20008B97B1F78091CB0382FB882780F908C080
:103A300084369105B9F3ECCF8091CB0382958170E8
:103A400091E0892708958091CB0383FB882780F933
:103A5000F7CFCF92DF92EF92FF920F931F93CF9306
:103A60008C016B018091CB0380FD0AC0C1E08C2FDB
:103A7000CF911F910F91FF90EF90DF90CF9008951D
:103A80000E94BE2C7C01F601C281CC2329F18091D9
:103A90000A0182FF06C040E0B70190E080E00E948A
:103AA0005F1C82E00E94332A0B31FCE51F0759F0AE
:103AB0000C314CE5140769F00A315CE5150761F437
:103AC0000E94E81CD4CF80910A01816080930A0192
:103AD000CECF0E94F31CCBCFB601C8010E94001DBF
:103AE000882321F2F601C281CC2309F44EC08091D3
:103AF0000A0180FFBBCF8091CB0381FF15C080916D
:103B0000CB0385FD16C01093EB010093EA01F09200
:103B1000ED01E092EC0180910A01846080930A013A
:103B200082E00E94F72A2FC00E94172A882339F3C7
:103B30009DCF2091EC013091ED01A701421B530B69
:103B40009A0186FD04C080910A0181FDDCCF2F3AE5
:103B50003105C8F68091EA019091EB010817190729
:103B600091F680910A0181FBCC27C0F981FD04C048
:103B7000802F0E94881F7BCF82E00E942D2A809197
:103B8000EA010E94881FC0E072CF40E0B701C8017F
:103B90000E945F1C6CCF9093F3018093F201089513
:103BA000E091F201F091F301309721F00190F08162
:103BB000E02D099480E00895E091F201F091F30185
:103BC000309799F020911901222359F02091C002D9
:103BD00027FF07C0DC012C9111962C93119725E04B
:103BE0002C930280F381E02D09940895E091F20175
:103BF000F091F301309739F022E0DC012C9304803E
:103C0000F581E02D099408952091F0013091F101A2
:103C10002817390771F09093F1018093F001E0913A
:103C2000F201F091F301309721F00680F781E02D49
:103C3000099408952091EE013091EF01281739077A
:103C400071F09093EF018093EE01E091F201F09119
:103C5000F301309721F00084F185E02D0994089557
:103C60000E94CA2C609303027093040280930502A1
:103C7000909306026093FF0170930002809301020B
:103C800090930202089585B7806885BF85B78068E4
:103C900085BF0895089508950C944A1E0C94A504B8
:103CA0000E94431E83E19BE20E942D2D0E94D710AB
:103CB0000E9412160E944B1E0C944C1E81E0089527
:103CC0000C945E1E089508950E94621E0C94631E5B
:103CD0000E94B52C0E94250A0E94960D0C944E1E3F
:103CE0008F929F92AF92BF92CF92DF92EF92FF920C
:103CF0000F931F93CF93DF93CDB7DEB72A970FB6FD
:103D0000F894DEBF0FBECDBF0E944D0A81110E9404
:103D1000301E55EF852E51E0952E10E000E0A02ECC
:103D2000802F0E94170A6C01F401E190F1904F017D
:103D3000E816F90609F45CC080919C0281FD0E949E
:103D4000200AC7018C259D25B12CEE24E394F12C8B
:103D50009C012E213F21232B09F444C00E94601EA8
:103D60008823A9F0BE82AF82CE20DF2081E0CD285B
:103D700009F480E088870E94BE2C8160782F9A87A2
:103D800089874E815F8168858A850E942C1F000F7C
:103D9000111FF801EB50FE4F80819181E826F92632
:103DA000F182E0820E94380C0E94D01D9091F401B3
:103DB0008917A9F10E94D01D8093F4012A960FB6AD
:103DC000F894DEBF0FBECDBFDF91CF911F910F9151
:103DD000FF90EF90DF90CF90BF90AF909F908F902B
:103DE0000C94C007B394EE0CFF1CFCE0BF12B0CFE4
:103DF0000F5F1F4F0530110509F091CF8FEF8983B9
:103E00008A831B820E94BE2C8160782F9D838C83C5
:103E100049815A816B818D810E942C1FC3CF2A96C4
:103E20000FB6F894DEBF0FBECDBFDF91CF911F91CB
:103E30000F91FF90EF90DF90CF90BF90AF909F9049
:103E40008F900895019708F40895EFE9FFE0319706
:103E5000F1F700C00000F6CFCF92DF92FF920F93F0
:103E60001F93CF93DF93CDB7DEB72B970FB6F894A0
:103E7000DEBF0FBECDBF7A878B878A01F62ECA843C
:103E8000DB84C114D10421F0812F84238F3F89F575
:103E9000F1100E943A2A1E821D8209831A83FB8236
:103EA000DD82CC828091B2039091B303892B61F0C3
:103EB0000E94D529882319F082E00E94F72A0E94E7
:103EC000B12981110E94812A49815A816B817C81AB
:103ED0008D819E812B960FB6F894DEBF0FBECDBFAD
:103EE000DF91CF911F910F91FF90DF90CF900C94B5
:103EF000AF268091080290910902019690930902E1
:103F000080930802C5CFFC01808191810C946C29BB
:103F1000CF93C82F882309F447C08CEF8C0F813AC8
:103F2000A0F46C2F80910D0190910E010E94DB2B6B
:103F3000882329F08C2F0E94A1290E948F2A8C2F80
:103F40000E949A29CF910C948F2A80E28C0F88309E
:103F500048F4C77081E001C0880FCA95EAF70E9453
:103F60001A2AF0CFEBE5EC0FE33040F4F0E0EE5628
:103F7000FE4F808190E0CF910C94041EE8E5EC0F99
:103F8000E73150F4F0E0EE0FFF1FEC59FE4F808157
:103F90009181CF910C941A1EC03F30F08C2F0E945B
:103FA000320BCF910C941D0CCF910895882361F1B1
:103FB0009CEF980F913A20F40E94A1290C948F2A2B
:103FC00090E2980F983050F4877091E001C0990FFB
:103FD0008A95EAF7892F0E94202AF0CF9BE5980F57
:103FE000933020F490E080E00C94041E98E5980F44
:103FF000973120F490E080E00C941A1E803F20F06E
:104000000E949A0B0C941D0C08951F93CF93DF937D
:10401000182FEB010E94881F209731F4812FDF9128
:10402000CF911F910C94D61F8FE99FE00197F1F774
:1040300000C000002197F0CF6091D0037091D103B0
:10404000893321F06091CE037091CF030C94052049
:10405000882321F00E941A2A0C948F2A089588231D
:1040600021F00E94202A0C948F2A0895882321F0A1
:104070000E942D2A0C948F2A0895882321F00E94F3
:10408000332A0C948F2A089590E080E00E94041E49
:1040900090E080E00E941A1E0E943A2A0E944A2A5A
:1040A0000E948F2A0E94440D0C941D0C0E94A82986
:1040B0000C9444200E94272A0C945620E92FE29564
:1040C000EF70E250EE3070F4F0E0EF5CFA4C0C94DC
:1040D000A134803F19F020F4883E20F481E0089557
:1040E000843FE1F380E00895883EC0F3813FD1F73B
:1040F000F5CF93FB882780F908950E946C290C94D2
:104100005E204F925F926F927F92BF92CF92DF922A
:10411000EF92FF920F931F93CF93DF937C01EB01FC
:10412000FC010281158112951F700E94EF29C82E93
:104130008823A1F0C02E002389F08D2F807F80344A
:1041400029F080E28C0FC12C883040F082E00E9480
:10415000F72A0E94EF2991E0C82EC926BD2EB294FD
:104160002FE0B222EB2DF0E0E15CFA4C0C94A1348C
:10417000FD2FFF70DF2E8D2F807F19F0D29490EFEE
:10418000D9220023A9F0DD2059F080E28C0F88307D
:1041900010F0C11109C08D2D0E941A2A0E948F2A89
:1041A0008C2F0E94881F14C08D2D0E942D2AF6CFBF
:1041B0008C2F0E94D61FDD2059F080E28C0F8830B2
:1041C00010F0C11138C08D2D0E94202A0E948F2A24
:1041D000EB2DE850FF0B349720F40E94D01D0E9475
:1041E000C007CE010E945E20811111C21092090207
:1041F00010920802CC2009F42BC20E94D12980FD24
:1042000027C2F70112820E94CB290E943128C701E0
:104210000E944D230E94CB29DF91CF911F910F91D6
:10422000FF90EF90DF90CF90BF907F906F905F9066
:104230004F900C9452288D2D0E94332AC7CF2D2FDA
:104240002F70D22E8D2F807F803219F0D29480EF84
:10425000D822CC23E9F0C13009F455C0002309F479
:104260005CC0112391F120E0F7014081518162810E
:10427000738184810E943D05B7010E940B17811153
:104280008FCFF701858180FF8BCF8F7085831DC015
:104290000023E9F0111106C00E944D2A8D290E94C9
:1042A000282096CF113031F40E944D2A8D290E948A
:1042B000692A8ECF8091CC03823070F38113ECCFCA
:1042C0000E94812A8D2D0E94532A8D2DE8CF111135
:1042D00006C00E94812A8D2D0E942F2079CF8091C7
:1042E000CC03113059F4823008F472CF0E94172A9F
:1042F0008D2109F46DCF0E945C2AEBCF823048F308
:104300001813E7CF65CF002321F0163008F060CFF7
:10431000DCCF153008F05CCFDECF1123E1F28091C5
:10432000D0039091D103C93321F08091CE039091B5
:10433000CF030E94221F8C2F0E94D61F49CF8D2FA2
:1043400086958695837061F0813009F041CFCE016A
:104350009370011102C090E080E00E941A1E38CFD5
:10436000CE019370011102C090E080E00E94041E13
:104370002FCF8C2F002339F00E94320B0E941D0C8E
:104380000E941D0C25CF0E949A0BFACF8D2F8370AF
:1043900009F043C001111CCF2C2F229526952770C0
:1043A000220F220F6C2F6F70462E512C712C612C16
:1043B000022E04C0440C551C661C771C0A94D2F7CC
:1043C00060E070E0CB01C4FF0FC06FE070E080E000
:1043D00090E004C0660F771F881F991F2A95D2F7B7
:1043E00060957095809590952D2F26952695237034
:1043F0006429752986299729223049F058F42130FB
:1044000019F00E94E527E4CE0E94D327E1CE0E9456
:10441000F727DECE0E94D127DBCE8695002311F050
:104420008D2F8170882309F4D3CE2C2F22952695C9
:104430002770220F220F6C2F6F70462E512C712C7B
:10444000612C022E04C0440C551C661C771C0A9477
:10445000D2F760E070E0CB01C4FF0FC06FE070E006
:1044600080E090E004C0660F771F881F991F2A958F
:10447000D2F760957095809590952D2F269526956D
:1044800023706429752986299729223049F058F428
:10449000213019F00E94A8289BCE0E94962898CE21
:1044A0000E94BA2895CE0E940B2892CEFD2FFF7055
:1044B000DF2E002329F08F2F0E9431288C2FEFCE82
:1044C0008C2F0E942F208D2D0E94522881CEC23F1A
:1044D00009F43FC060F4C03F31F1C13F91F10023C6
:1044E00009F480C011115CCE8D2F8F712FC0C33F96
:1044F000A9F1C43FA1F78091CC03823008F45BC0DE
:10450000002309F444C00E94AE290E94202A0E9480
:10451000D129843069F50E94EE2A8D2F8F710E9477
:104520005228C12C55CE002341F0153008F050CE52
:104530008D2F8F710E9475284BCE163008F048CE13
:10454000F7CF8D2F8F71002309F4BECF0E94312841
:104550003FCE8D2F8F710023C9F3B6CF002329F0F2
:104560008D2F8F710E941C2833CE0E94172830CEC9
:104570008091CC031817A8F62D2F2F71D22E822FE1
:104580000E94312863E08D2D0E94D22ACACF0E945A
:10459000AE290E941A2A8091CC03181740F00E947D
:1045A000EE2A0E945C2A64E08D2F8F71EDCF81E0AE
:1045B0000E94F72AB6CF002359F03D2F3F71D32E2A
:1045C000832F0E94312863E08D2D0E94D22A00CED5
:1045D00081E00E94F72A123008F4FACD82E00E94AE
:1045E000F72AF6CD11119BCE8D2F8F716DCF4D2FE8
:1045F0004F706C2FC7010E94C8070E944927E8CD61
:104600004D2F4F706C2FC7010E94CB07E1CD0023C7
:1046100019F01111EBCDEECD1111E8CD20E0F7012D
:10462000408151816281738184810E943D05B7017F
:104630000E941617882309F4D9CD80910802909121
:104640000902029709F0D2CD8C2F0E941C20CECDFA
:10465000DF91CF911F910F91FF90EF90DF90CF905E
:10466000BF907F906F905F904F9008950F931F932E
:10467000CF93DF93EC01688179818A810E9476294A
:104680008C010E94CC280E94D027B801CE01DF9176
:10469000CF911F910F910C948120CF93DF93EC0168
:1046A0008B819C81892B29F08881998189238F3F77
:1046B00059F4DF91CF910895CE010E943623CE01A7
:1046C000DF91CF910C947905CE010E947306811180
:1046D000F3CF0E94EF29882361F38A81882349F36D
:1046E00082E0DF91CF910C94F72ACF93DF9300D033
:1046F00000D00F92CDB7DEB70F900F900F900F90B4
:104700000F90DF91CF910895CF93DF9300D000D029
:1047100000D0CDB7DEB726960FB6F894DEBF0FBE39
:10472000CDBFDF91CF9108951F93CF93DF93C091B9
:104730000A0216E080910B028C1304C0DF91CF9126
:104740001F910895D0E01C9FF0011D9FF00D1124D2
:10475000E45FFD4F40815181628173818481958145
:104760000E9484232196C770E5CF40913C0250916E
:104770003D0260913E0270913F0280914002909113
:1047800041020C94842320910A0290910B0256E07E
:10479000291302C080E0089530E0529FF001539F3A
:1047A000F00D1124E45FFD4F7181761306C0708116
:1047B000781303C07281741304C02F5F3F4F2770BA
:1047C000E7CF81E00895DF92EF92FF920F931F935E
:1047D000CF93DF9380914102807F61F480913E020C
:1047E000882341F0C0910A0286E0D82E80910B0206
:1047F0008C1308C0DF91CF911F910F91FF90EF9024
:10480000DF90089520913F0230914002D0E02115C1
:10481000310541F080913C0290913D02482F49239F
:104820004F3F19F42196C770E1CFDC9E8001DD9ED9
:10483000100D1124F801E45FFD4F51815913F2CF9F
:1048400040814813EFCF82818111ECCFE380F48067
:10485000E21AF30A20E060913E0270913F028091DB
:1048600040020E943D056CE372E00E940217E816C8
:10487000F906C0F6809141028F70806180934102F9
:10488000F801EF5EFD4F80818F70806180838CE343
:1048900092E00E944D23DF91CF911F910F91FF90E5
:1048A000EF90DF900C9494236F927F928F929F925F
:1048B000AF92BF92CF92DF92EF92FF920F931F932E
:1048C000CF93DF93CDB7DEB761970FB6F894DEBF15
:1048D0000FBECDBF8C0185E0F801DE011D96019071
:1048E0000D928A95E1F7D8017C901196EC90119782
:1048F0001296FC908CE3882E82E0982E80913F02E5
:1049000090914002009749F040913C0250913D0245
:10491000242F25232F3F09F0BDC1F1101BC1C80171
:104920000E944D2387C020E040913C0250913D02FF
:1049300060913E0270913F02809140020E943D05CD
:10494000B8010E9407178111E9C1CD2829F08E2DE9
:1049500087218F3F09F017C180E0B82FB170CB2EAF
:1049600080FF29C04F2D6E2D872D0E94C323D82E86
:10497000811121C07D86EE868D859E850E946C29E1
:10498000292F22952F70223050F0243078F49F7018
:1049900051F0F8019581907F31F46D2C10C19F701A
:1049A00011F08823D1F3805E8830B8F3C8010E94EB
:1049B0004D23DC2CF2CFFF2009F401C1809141028C
:1049C000816080934102612CFAC0892B49F080916B
:1049D0003C0290913D02282F29232F3F09F005C169
:1049E0007D86EE868D859E850E947D20882309F434
:1049F00096CFFF2009F493CF80914102803270F06E
:104A000020913C0230913D0238872F831986DB8646
:104A1000CA868C87CE0107960E944D2386E0F80156
:104A2000ACE3B2E001900D928A95E1F70E94E32396
:104A30000E94B52366246394C2C0211113C07C2D4B
:104A4000D98AC88A472D5E2D6F2D89890E947523CA
:104A50008CE392E00E944D2386E0F40111928A9546
:104A6000E9F77AC180913F0290914002892B49F089
:104A700080913C0290913D02282F29232F3F09F07D
:104A8000CDC07D86EE868D859E850E947D20882303
:104A900009F445CFFF2009F442CF809141028032D2
:104AA00008F4BCCF20913C0230913D023A83298327
:104AB0001B82DD82CC828E83CE010196ADCF20E0B9
:104AC00060E070913F02809140020E943D056CE3DE
:104AD00072E00E940217A816B90668F56F2CFF2035
:104AE00009F41DCF80913F0290914002892B49F03B
:104AF00040913C0250913D02842F85238F3F09F065
:104B0000A3C07D86EE868D859E850E947D208111C5
:104B100085CF80914102816080934102C8010E944B
:104B20004D234DC086E0F801ACE3B2E001900D9258
:104B30008A95E1F744C07C2DD98AC88A472D5E2D1D
:104B40006F2D89890E94752386E0D4011D928A9574
:104B5000E9F761C07D86EE868D859E850E947D2069
:104B6000682E882309F4DBCE86E0F801ACE3B2E0DE
:104B700001900D928A95E1F78CE392E00E94831FE9
:104B80000E94E32348C081E08F25E7CE81E08F2596
:104B9000CEC09E11AFC08711ADC0F110ABC08091E7
:104BA00041028F708061809341020E94B5238CE3A3
:104BB00092E00E944D2380914102F8018583862D69
:104BC00061960FB6F894DEBF0FBECDBFDF91CF91D7
:104BD0001F910F91FF90EF90DF90CF90BF90AF901B
:104BE0009F908F907F906F9008959E11F9CE8711BE
:104BF000F7CEF110F5CE80914102D80115968C9335
:104C0000C8010E944D2386E0F801ACE3B2E00190B8
:104C10000D928A95E1F70E94B523D1CF9E1131CF35
:104C200087112FCFF1102DCF80914102D801159619
:104C30008C93C8010E944D23ECE3F2E086E0DF0193
:104C40001D928A95E9F7BBCF5E115BCF471159CF13
:104C500020E060913E0270913F02809140020E94EC
:104C60003D05B8010E94101781115CCF809141026F
:104C700080FD58CF982F907F09F454CFF801858399
:104C8000903F09F4BDCF982F907F905F8F70892B54
:104C90008583B6CFF801C380D48060903E02560170
:104CA000A81AB90A662009F40ACF20E0662D70918F
:104CB0003F02809140020E943D056CE372E00E9439
:104CC000021720914102207FA816B90608F0B5CE40
:104CD00080913F0290914002211177CE6F2C892B59
:104CE00049F080913C0290913D02282F29232F3FCB
:104CF00009F04FCF20E040913C0250913D0260917D
:104D00003E0270913F02809140020E943D05B80131
:104D10000E940217843F914008F405CEC114D104CB
:104D200029F08E2D87218F3F09F030CF80E080FF62
:104D30000CCE4F2D6E2D872D0E94C323882309F49E
:104D400004CE8CE392E00E944D2386E0ECE3F2E097
:104D5000DF011D928A95E9F70E94B52334CE1F9397
:104D6000CF93DF93CDB7DEB72C970FB6F894DEBFA5
:104D70000FBECDBF4F83588769877A878B879C8703
:104D8000CE0107960E945424882369F08A859B856A
:104D9000892B39F04F815885842F85238F3F09F067
:104DA00071C016E05FC086E0FE013796DE01119605
:104DB00001900D928A95E1F78A859B85892B89F36D
:104DC0008F81988589238F3F61F320910B0230E01A
:104DD000C90101968770992740910A024817190660
:104DE00071F40E945A2010920B0210920A0286E07F
:104DF000ECE3F2E0DF011D928A95E9F7D2CF96E06D
:104E0000929FD001939FB00D1124A45FBD4FFE016E
:104E1000319601900D929A95E1F780930B020E94D2
:104E20009423BFCF819FC0011124845F9D4F0E94B6
:104E300054248823E9F0E0910A021E9FF001112416
:104E4000E45FFD4F4081518162817381848195814E
:104E50000E94842380910A0290E00196877099272E
:104E600080930A0280910A0290910B028913DACF93
:104E70002C960FB6F894DEBF0FBECDBFDF91CF9159
:104E80001F91089569857A858B859C850E9484236E
:104E900088CFEF92FF920F931F93CF93DF938C01F4
:104EA000892B81F0F12CEE24E394E8012196F8019E
:104EB0008491843770F4843008F05FC08130B1F0A1
:104EC0008230A1F1DF91CF911F910F91FF90EF9070
:104ED0000895853709F44CC008F43DC09CE7980F4D
:104EE000903780F78F770E94D61F49C00E5F1F4F03
:104EF000FE01849190E2980F983060F48770FE2D47
:104F000001C0FF0F8A95EAF78F2F0E943D2A0E9469
:104F10008F2A02C00E94881F8F2D815030F2EFE946
:104F2000FFE03197F1F700C00000F7CF0E5F1F4F91
:104F3000FE01849190E2980F983050F48770FE2D16
:104F400001C0FF0F8A95EAF78F2F0E94432ADFCF17
:104F50000E94D61FE1CF0E5F1F4FFE01C491C150CA
:104F6000D8F28FE99FE00197F1F700C00000F7CF7A
:104F70000E5F1F4FFE01F490CFCF0E94881F8E015D
:104F8000CBCF08950C94C1270E94C22760936E0274
:104F900070936F0280937002909371020C9444207E
:104FA00008950C94C4270F931F9300916E021091E3
:104FB0006F022091700230917102602B712B822B55
:104FC000932B1F910F910C94C4270F931F93009163
:104FD0006E0210916F022091700230917102602375
:104FE0007123822393231F910F910C94C4270F9355
:104FF0001F9300916E0210916F0220917002309108
:10500000710260277127822793271F910F910C94BB
:10501000C4270C94C3040E94092860936A02709309
:105020006B0280936C0290936D020C94442060E0BC
:1050300070E0CB010C940B280F931F9341E050E0DC
:1050400060E070E08A019B0104C0000F111F221F65
:10505000331F8A95D2F7C901B8011F910F910C94A3
:105060000B280F931F9341E050E060E070E004C014
:10507000440F551F661F771F8A95D2F780916A02E9
:1050800090916B02A0916C02B0916D028A019B011C
:10509000082B192B2A2B3B2BC901B8011F910F910B
:1050A0000C940B280F931F9341E050E060E070E0F8
:1050B00004C0440F551F661F771F8A95D2F7CB0196
:1050C000BA01609570958095909500916A02109153
:1050D0006B0220916C0230916D0260237123822358
:1050E00093231F910F910C940B280F931F9341E072
:1050F00050E060E070E004C0440F551F661F771F4A
:105100008A95D2F780916A0290916B02A0916C020D
:10511000B0916D028A019B01082719272A273B2796
:10512000C901B8011F910F910C940B280F931F9385
:1051300000916A0210916B0220916C0230916D0215
:10514000602B712B822B932B1F910F910C940B28AA
:105150000F931F9300916A0210916B0220916C02D1
:1051600030916D0260237123822393231F910F914D
:105170000C940B280F931F9300916A0210916B02FD
:1051800020916C0230916D0260277127822793274E
:105190001F910F910C940B2808959E3F69F1E82F01
:1051A0002CE0929FE00D11248E2F877041E001C00A
:1051B000440F8A95EAF7E695E695E69585E0E89F3F
:1051C000F0011124EE5BFD4F30E020E070E05191E2
:1051D000DF011197CB01022E02C0969587950A94A4
:1051E000E2F7817081958527842385278C932F5F33
:1051F0003F4F2530310559F708959E3F49F1E82F7B
:105200002CE0929FE00D11249E2F9770E695E69575
:10521000E69585E0E89FF0011124EE5BFD4F50E03C
:1052200040E080E0219130E0092E02C036952795BC
:105230000A94E2F721703327042E01C0220F0A944A
:10524000EAF7822B4F5F5F4F4530510559F70895BC
:1052500080E00895BF92CF92DF92EF92FF920F937A
:105260001F93CF93DF938C01C0906A02D0906B02A2
:10527000E0906C02F0906D0280916E0290916F024E
:10528000A0917002B0917102C82AD92AEA2AFB2A99
:10529000CFE1D0E0BC2ED701C6010C2E04C0B695DC
:1052A000A795979587950A94D2F780FD0EC0219710
:1052B00088F7B12C8B2DDF91CF911F910F91FF902B
:1052C000EF90DF90CF90BF900895B8018C2F0E948F
:1052D000D407019761F3EECFCF93DF93EC010E94E7
:1052E0002A29BE01DF91CF910C94D4071F93CF934D
:1052F000DF93EB0190910702992331F0CB01DF910D
:10530000CF911F910C946C29882379F0CB010E94D6
:105310002A29182F682FCE010E94CD28BE01812F87
:10532000DF91CF911F910C94D407CB010E94FD28EF
:10533000182FF4CF682F80910D0190910E010C94DD
:105340005B2C682F80910D0190910E010C94662CBE
:1053500080910D0190910E010C94712C8091770237
:1053600008958091B2039091B303892B89F00E9434
:10537000BE2C2091750230917602AC01421B530B7A
:1053800081E02091B2033091B3034217530708F430
:1053900080E081700895809174028595859585954A
:1053A000089580917402877008950E94BE2C209108
:1053B000720230917302821B930B2091B2033091E1
:1053C000B3038217930748F08091740282FB882709
:1053D00080F991E089278170089580E0FCCF909159
:1053E0007402977081E009F480E008959091C10201
:1053F00092FB222720F9281751F080FB92F9909315
:10540000C1028091C0029091C1020C943C2B08957E
:105410008091C10282FB882780F991E089270C9452
:10542000F62981E00C94F62980E00C94F62980910D
:105430009B02089590919B02892B80939B02089573
:10544000809590919B02982390939B0208951092CF
:105450009B02089580919A02089590919A02892B57
:1054600080939A020895809590919A029823909340
:105470009A02089510929A02089590919902892BA8
:105480008093990208958095909199029823909322
:1054900099020895109299020895809178020895D2
:1054A00008950C94502A90917702981721F08093D8
:1054B00077020C94512A089580917702882329F06D
:1054C0001092770280E00C94512A089508950C946C
:1054D000662ACF93C82F8091C10282FD10C08091AF
:1054E00078028C1761F00E94BE2C90937602809314
:1054F0007502C09378028C2FCF910C94672ACF91BC
:10550000089580917802882349F0109278021092D1
:1055100076021092750280E00C94672A0895E0915B
:105520000D01F0910E0180919B028083E0910D01AD
:10553000F0910E01808190919A02892B8083E091F5
:105540000D01F0910E01808190919902892B808349
:10555000809178028823E9F08091B2039091B3039F
:10556000892B29F00E94B12981110E94812AE091A2
:105570000D01F0910E01808190917802892B80833A
:1055800080910D0190910E010E94C72B81110E9404
:10559000812A80910D0190910E010C94DC1D0895DB
:1055A0000C94CF2A9091C10292FD16C098E0899F79
:1055B00090011124622B609374020E9431280E9492
:1055C000BE2C909373028093720280917402859531
:1055D000859585950C94D02A0C94312810927402EC
:1055E000109273021092720280E00C94D02A909173
:1055F00074028095892380937402282F277039F4D0
:10560000282F082E000C330B9217130621F49091CB
:10561000C10292FF07C08595859585950E94522805
:105620000C94EE2A089580E008956FEF7FEF90E0EC
:1056300080E00C94033590E080E00E94DF3421E0AC
:105640008A3E9E4F09F020E0822F089582E090E08C
:105650000C94D73483E090E00C94D734CF9384E05B
:1056600090E00E94D734C82F82E290E00E94D734A5
:10567000982F8C2FCF910895CF93C92F682F84E056
:1056800090E00E94E5346C2F82E290E0CF910C9480
:10569000E534AB01BC018FE090E00C94F734AB0132
:1056A000BC0183E190E00C94F73460E070E0CB0142
:1056B0000C944F2B60E070E0CB010E94492B0C94BE
:1056C000552B6AEE7EEF90E080E00E94033560E0AB
:1056D00082E090E00E94E53460E083E090E00E9488
:1056E000E53410926E0210926F02109270021092C6
:1056F000710260E084E090E00E94E53460E082E2C4
:1057000090E00E94E53460E085E090E00E94E5349E
:1057100060E086E090E00E94E5346FEF87E090E083
:105720000E94E53440E050E0BA0188E090E00E9439
:10573000F73460E08DE090E00E94E53440E050E016
:10574000BA0188E190E00E94F73460E087E190E0E0
:105750000E94E53440E050E0BA018CE190E00E9404
:10576000F73470E060E080E290E00E94033540E0B2
:1057700050E0BA0188E190E00E94F7340C945A2B73
:105780000C94612B682F8EE090E00C94E534FC01C2
:10579000329680911901882321F08091C0029EE108
:1057A00087FF96E080E0915008F40895219122232C
:1057B000D1F38F5FF8CF662301F1209119012223E5
:1057C000F1F02091C00227FF1AC0462F469546955A
:1057D00046954E3190F4677021E030E002C0220F10
:1057E000331F6A95E2F7840F911DFC01828190E0DE
:1057F0002823392381E0232B69F480E00895FC01FC
:10580000329608962191261721F0E817F907D1F76B
:10581000F4CF81E008959C01FC0132969FEF80E077
:105820004191461751F09F3F19F4411101C0982F43
:105830008F5F8630A9F79F3F09F40895290F311D26
:1058400097FD3A95F90162830895FC013296089616
:105850002191261303C0DF0111971C92E817F90765
:10586000B9F70895E62FE695E695E695EE3168F4EA
:10587000E80FF92FF11D677021E030E001C0220F21
:105880006A95EAF78281822B82830895E62FE69556
:10589000E695E695EE3170F4E80FF92FF11D67708B
:1058A00021E030E001C0220F6A95EAF7209582815D
:1058B00028232283089520911901222329F0209181
:1058C000C00227FD0C94322C0C940B2C2091190152
:1058D000222329F02091C00227FD0C94462C0C9421
:1058E000252CFC01329680911901882351F080917A
:1058F000C00287FF06C08EE1DF011D928A95E9F79D
:10590000089586E0F9CF08950C94832C0E945A20C4
:105910000E94D01D0E94C0070C94842C1F921FB6B9
:105920001F9211248F939F93AF93BF9380919D02F9
:10593000811113C08091D2039091D303A091D4031D
:10594000B091D5034196A11DB11D8093D2039093D0
:10595000D303A093D403B093D503BF91AF919F918C
:105960008F911F901FBE1F90189582E084BD93E019
:1059700095BD9AEF97BD80936E0008952FB7F89468
:105980008091D2039091D303A091D403B091D50319
:105990002FBF08952FB7F8946091D2037091D3036D
:1059A0008091D4039091D5032FBF08959C014FB7E8
:1059B000F8948091D2039091D303A091D403B09135
:1059C000D5034FBF821B930B089578941F921FB687
:1059D0001F9211248F939F93AF93BF938091D20313
:1059E0009091D303A091D403B091D5030196A11D4A
:1059F000B11D8093D2039093D303A093D403B093AB
:105A0000D503BF91AF919F918F911F901FBE1F90A3
:105A1000189581E08093E00080E28093D800109296
:105A2000C9008FE19EE40197F1F700C0000087E014
:105A300090EBDC018093E3039093E403A093E503F0
:105A4000B093E60388E19CE00FB6F894A8958093A4
:105A500060000FBE90936000FFCF9093A5018093EC
:105A6000A40108958091BE020895CF93DF9300D0E2
:105A70000F92CDB7DEB79091DA03943011F5898398
:105A80007B836A839093E9008FEF9091E8008150C7
:105A900095FD06C095ED9A95F1F700008111F5CFBF
:105AA0008091E80085FF0DC050E040E063E070E0C9
:105AB000CE0101960E94992F8091E8008E77809305
:105AC000E8000F900F900F90DF91CF910895BC01E7
:105AD00084E00C94352DBC0183E00C94352D9C01A1
